{"abi":[{"type":"constructor","inputs":[{"name":"_tempoChainId","type":"uint64","internalType":"uint64"},{"name":"_initialEpoch","type":"uint64","internalType":"uint64"}],"stateMutability":"nonpayable"},{"type":"function","name":"HEADER_DOMAIN","inputs":[],"outputs":[{"name":"","type":"bytes32","internalType":"bytes32"}],"stateMutability":"view"},{"type":"function","name":"ROTATION_DOMAIN","inputs":[],"outputs":[{"name":"","type":"bytes32","internalType":"bytes32"}],"stateMutability":"view"},{"type":"function","name":"acceptOwnership","inputs":[],"outputs":[],"stateMutability":"nonpayable"},{"type":"function","name":"addValidator","inputs":[{"name":"validator","type":"address","internalType":"address"}],"outputs":[],"stateMutability":"nonpayable"},{"type":"function","name":"currentEpoch","inputs":[],"outputs":[{"name":"","type":"uint64","internalType":"uint64"}],"stateMutability":"view"},{"type":"function","name":"currentPublicKey","inputs":[],"outputs":[{"name":"","type":"bytes","internalType":"bytes"}],"stateMutability":"view"},{"type":"function","name":"getReceiptsRoot","inputs":[{"name":"height","type":"uint64","internalType":"uint64"}],"outputs":[{"name":"","type":"bytes32","internalType":"bytes32"}],"stateMutability":"view"},{"type":"function","name":"headerHashes","inputs":[{"name":"","type":"uint64","internalType":"uint64"}],"outputs":[{"name":"","type":"bytes32","internalType":"bytes32"}],"stateMutability":"view"},{"type":"function","name":"isHeaderFinalized","inputs":[{"name":"height","type":"uint64","internalType":"uint64"}],"outputs":[{"name":"","type":"bool","internalType":"bool"}],"stateMutability":"view"},{"type":"function","name":"isValidator","inputs":[{"name":"","type":"address","internalType":"address"}],"outputs":[{"name":"","type":"bool","internalType":"bool"}],"stateMutability":"view"},{"type":"function","name":"latestFinalizedHeight","inputs":[],"outputs":[{"name":"","type":"uint64","internalType":"uint64"}],"stateMutability":"view"},{"type":"function","name":"owner","inputs":[],"outputs":[{"name":"","type":"address","internalType":"address"}],"stateMutability":"view"},{"type":"function","name":"pendingOwner","inputs":[],"outputs":[{"name":"","type":"address","internalType":"address"}],"stateMutability":"view"},{"type":"function","name":"receiptsRoots","inputs":[{"name":"","type":"uint64","internalType":"uint64"}],"outputs":[{"name":"","type":"bytes32","internalType":"bytes32"}],"stateMutability":"view"},{"type":"function","name":"removeValidator","inputs":[{"name":"validator","type":"address","internalType":"address"}],"outputs":[],"stateMutability":"nonpayable"},{"type":"function","name":"renounceOwnership","inputs":[],"outputs":[],"stateMutability":"nonpayable"},{"type":"function","name":"submitHeader","inputs":[{"name":"height","type":"uint64","internalType":"uint64"},{"name":"parentHash","type":"bytes32","internalType":"bytes32"},{"name":"stateRoot","type":"bytes32","internalType":"bytes32"},{"name":"receiptsRoot","type":"bytes32","internalType":"bytes32"},{"name":"epoch","type":"uint64","internalType":"uint64"},{"name":"signatures","type":"bytes[]","internalType":"bytes[]"}],"outputs":[],"stateMutability":"nonpayable"},{"type":"function","name":"submitKeyRotation","inputs":[{"name":"newEpoch","type":"uint64","internalType":"uint64"},{"name":"newPublicKey","type":"bytes","internalType":"bytes"},{"name":"signatures","type":"bytes[]","internalType":"bytes[]"}],"outputs":[],"stateMutability":"nonpayable"},{"type":"function","name":"tempoChainId","inputs":[],"outputs":[{"name":"","type":"uint64","internalType":"uint64"}],"stateMutability":"view"},{"type":"function","name":"threshold","inputs":[],"outputs":[{"name":"","type":"uint256","internalType":"uint256"}],"stateMutability":"view"},{"type":"function","name":"transferOwnership","inputs":[{"name":"newOwner","type":"address","internalType":"address"}],"outputs":[],"stateMutability":"nonpayable"},{"type":"function","name":"validatorCount","inputs":[],"outputs":[{"name":"","type":"uint256","internalType":"uint256"}],"stateMutability":"view"},{"type":"function","name":"validators","inputs":[{"name":"","type":"uint256","internalType":"uint256"}],"outputs":[{"name":"","type":"address","internalType":"address"}],"stateMutability":"view"},{"type":"event","name":"HeaderSubmitted","inputs":[{"name":"height","type":"uint64","indexed":true,"internalType":"uint64"},{"name":"headerHash","type":"bytes32","indexed":false,"internalType":"bytes32"},{"name":"receiptsRoot","type":"bytes32","indexed":false,"internalType":"bytes32"}],"anonymous":false},{"type":"event","name":"KeyRotated","inputs":[{"name":"newEpoch","type":"uint64","indexed":true,"internalType":"uint64"},{"name":"newPublicKey","type":"bytes","indexed":false,"internalType":"bytes"}],"anonymous":false},{"type":"event","name":"OwnershipTransferStarted","inputs":[{"name":"previousOwner","type":"address","indexed":true,"internalType":"address"},{"name":"newOwner","type":"address","indexed":true,"internalType":"address"}],"anonymous":false},{"type":"event","name":"OwnershipTransferred","inputs":[{"name":"previousOwner","type":"address","indexed":true,"internalType":"address"},{"name":"newOwner","type":"address","indexed":true,"internalType":"address"}],"anonymous":false},{"type":"event","name":"ValidatorAdded","inputs":[{"name":"validator","type":"address","indexed":true,"internalType":"address"}],"anonymous":false},{"type":"event","name":"ValidatorRemoved","inputs":[{"name":"validator","type":"address","indexed":true,"internalType":"address"}],"anonymous":false},{"type":"error","name":"ECDSAInvalidSignature","inputs":[]},{"type":"error","name":"ECDSAInvalidSignatureLength","inputs":[{"name":"length","type":"uint256","internalType":"uint256"}]},{"type":"error","name":"ECDSAInvalidSignatureS","inputs":[{"name":"s","type":"bytes32","internalType":"bytes32"}]},{"type":"error","name":"HeightNotMonotonic","inputs":[]},{"type":"error","name":"InvalidParentHash","inputs":[]},{"type":"error","name":"InvalidSignature","inputs":[]},{"type":"error","name":"InvalidSignatureCount","inputs":[]},{"type":"error","name":"OwnableInvalidOwner","inputs":[{"name":"owner","type":"address","internalType":"address"}]},{"type":"error","name":"OwnableUnauthorizedAccount","inputs":[{"name":"account","type":"address","internalType":"address"}]},{"type":"error","name":"ThresholdNotMet","inputs":[]},{"type":"error","name":"ValidatorExists","inputs":[]},{"type":"error","name":"ValidatorNotFound","inputs":[]}],"bytecode":{"object":"0x60a060405234801562000010575f80fd5b50604051620027b7380380620027b7833981810160405281019062000036919062000248565b335f73ffffffffffffffffffffffffffffffffffffffff168173ffffffffffffffffffffffffffffffffffffffff1603620000aa575f6040517f1e4fbdf7000000000000000000000000000000000000000000000000000000008152600401620000a19190620002d0565b60405180910390fd5b620000bb816200010960201b60201c565b508167ffffffffffffffff1660808167ffffffffffffffff168152505080600160146101000a81548167ffffffffffffffff021916908367ffffffffffffffff1602179055505050620002eb565b60015f6101000a81549073ffffffffffffffffffffffffffffffffffffffff02191690556200013e816200014160201b60201c565b50565b5f805f9054906101000a900473ffffffffffffffffffffffffffffffffffffffff169050815f806101000a81548173ffffffffffffffffffffffffffffffffffffffff021916908373ffffffffffffffffffffffffffffffffffffffff1602179055508173ffffffffffffffffffffffffffffffffffffffff168173ffffffffffffffffffffffffffffffffffffffff167f8be0079c531659141344cd1fd0a4f28419497f9722a3daafe3b4186f6b6457e060405160405180910390a35050565b5f80fd5b5f67ffffffffffffffff82169050919050565b620002248162000206565b81146200022f575f80fd5b50565b5f81519050620002428162000219565b92915050565b5f806040838503121562000261576200026062000202565b5b5f620002708582860162000232565b9250506020620002838582860162000232565b9150509250929050565b5f73ffffffffffffffffffffffffffffffffffffffff82169050919050565b5f620002b8826200028d565b9050919050565b620002ca81620002ac565b82525050565b5f602082019050620002e55f830184620002bf565b92915050565b6080516124a5620003125f395f81816105c201528181610b950152610e7301526124a55ff3fe608060405234801561000f575f80fd5b506004361061014b575f3560e01c806379ba5097116100c1578063cc54ebf71161007a578063cc54ebf714610367578063d0deef1714610397578063e0226760146103b5578063e30c3978146103d1578063f2fde38b146103ef578063facd743b1461040b5761014b565b806379ba5097146102a35780638da5cb5b146102ad5780639e39bbfd146102cb578063a09d3879146102e9578063c06b35b014610307578063c83eacc2146103375761014b565b806342cde4e81161011357806342cde4e8146102055780634d238c8e14610223578063548bed751461023f578063715018a61461025d578063766718081461026757806379732fbc146102855761014b565b80630c6038ed1461014f5780630f43a6771461017f57806322504a851461019d57806335aa2e44146101b957806340a141ff146101e9575b5f80fd5b610169600480360381019061016491906116e9565b61043b565b604051610176919061172c565b60405180910390f35b610187610469565b604051610194919061175d565b60405180910390f35b6101b760048036038101906101b29190611801565b610475565b005b6101d360048036038101906101ce91906118d5565b61071c565b6040516101e0919061193f565b60405180910390f35b61020360048036038101906101fe9190611982565b610757565b005b61020d610a01565b60405161021a919061175d565b60405180910390f35b61023d60048036038101906102389190611982565b610a07565b005b610247610b93565b60405161025491906119bc565b60405180910390f35b610265610bb7565b005b61026f610bca565b60405161027c91906119bc565b60405180910390f35b61028d610be4565b60405161029a919061172c565b60405180910390f35b6102ab610c08565b005b6102b5610c96565b6040516102c2919061193f565b60405180910390f35b6102d3610cbd565b6040516102e0919061172c565b60405180910390f35b6102f1610ce1565b6040516102fe91906119bc565b60405180910390f35b610321600480360381019061031c91906116e9565b610cfa565b60405161032e919061172c565b60405180910390f35b610351600480360381019061034c91906116e9565b610d0f565b60405161035e91906119ef565b60405180910390f35b610381600480360381019061037c91906116e9565b610d42565b60405161038e919061172c565b60405180910390f35b61039f610d57565b6040516103ac9190611a92565b60405180910390f35b6103cf60048036038101906103ca9190611b07565b610de3565b005b6103d9610f53565b6040516103e6919061193f565b60405180910390f35b61040960048036038101906104049190611982565b610f7b565b005b61042560048036038101906104209190611982565b611027565b60405161043291906119ef565b60405180910390f35b5f60055f8367ffffffffffffffff1667ffffffffffffffff1681526020019081526020015f20549050919050565b5f600880549050905090565b60035f9054906101000a900467ffffffffffffffff1667ffffffffffffffff168767ffffffffffffffff16111580156104cc57505f60035f9054906101000a900467ffffffffffffffff1667ffffffffffffffff16115b15610503576040517fae0c382600000000000000000000000000000000000000000000000000000000815260040160405180910390fd5b5f60035f9054906101000a900467ffffffffffffffff1667ffffffffffffffff16111561059e5760045f60035f9054906101000a900467ffffffffffffffff1667ffffffffffffffff1667ffffffffffffffff1681526020019081526020015f2054861461059d576040517f591c836700000000000000000000000000000000000000000000000000000000815260040160405180910390fd5b5b5f7fb7e5c549800b144fb8b534568f698ddeb69e84956c61706fee8fefdb813d3a8a7f000000000000000000000000000000000000000000000000000000000000000089898989896040516020016105fc9796959493929190611bec565b60405160208183030381529060405280519060200120905061061f818484611044565b5f8888888888604051602001610639959493929190611c6c565b6040516020818303038152906040528051906020012090508060045f8b67ffffffffffffffff1667ffffffffffffffff1681526020019081526020015f20819055508560055f8b67ffffffffffffffff1667ffffffffffffffff1681526020019081526020015f20819055508860035f6101000a81548167ffffffffffffffff021916908367ffffffffffffffff1602179055508867ffffffffffffffff167f2993dbc1bc5a75fad02580d988d66672fb97594b89f81503088f9e1f66e21c048288604051610709929190611cca565b60405180910390a2505050505050505050565b6008818154811061072b575f80fd5b905f5260205f20015f915054906101000a900473ffffffffffffffffffffffffffffffffffffffff1681565b61075f61122c565b60075f8273ffffffffffffffffffffffffffffffffffffffff1673ffffffffffffffffffffffffffffffffffffffff1681526020019081526020015f205f9054906101000a900460ff166107df576040517f580e542f00000000000000000000000000000000000000000000000000000000815260040160405180910390fd5b5f60075f8373ffffffffffffffffffffffffffffffffffffffff1673ffffffffffffffffffffffffffffffffffffffff1681526020019081526020015f205f6101000a81548160ff0219169083151502179055505f5b6008805490508110156109b2578173ffffffffffffffffffffffffffffffffffffffff166008828154811061086d5761086c611cf1565b5b905f5260205f20015f9054906101000a900473ffffffffffffffffffffffffffffffffffffffff1673ffffffffffffffffffffffffffffffffffffffff160361099f57600860016008805490506108c49190611d4b565b815481106108d5576108d4611cf1565b5b905f5260205f20015f9054906101000a900473ffffffffffffffffffffffffffffffffffffffff166008828154811061091157610910611cf1565b5b905f5260205f20015f6101000a81548173ffffffffffffffffffffffffffffffffffffffff021916908373ffffffffffffffffffffffffffffffffffffffff160217905550600880548061096857610967611d7e565b5b600190038181905f5260205f20015f6101000a81549073ffffffffffffffffffffffffffffffffffffffff021916905590556109b2565b80806109aa90611dab565b915050610835565b506109bb6112b3565b8073ffffffffffffffffffffffffffffffffffffffff167fe1434e25d6611e0db941968fdc97811c982ac1602e951637d206f5fdda9dd8f160405160405180910390a250565b60065481565b610a0f61122c565b60075f8273ffffffffffffffffffffffffffffffffffffffff1673ffffffffffffffffffffffffffffffffffffffff1681526020019081526020015f205f9054906101000a900460ff1615610a90576040517f7e9b8fa600000000000000000000000000000000000000000000000000000000815260040160405180910390fd5b600160075f8373ffffffffffffffffffffffffffffffffffffffff1673ffffffffffffffffffffffffffffffffffffffff1681526020019081526020015f205f6101000a81548160ff021916908315150217905550600881908060018154018082558091505060019003905f5260205f20015f9091909190916101000a81548173ffffffffffffffffffffffffffffffffffffffff021916908373ffffffffffffffffffffffffffffffffffffffff160217905550610b4d6112b3565b8073ffffffffffffffffffffffffffffffffffffffff167fe366c1c0452ed8eec96861e9e54141ebff23c9ec89fe27b996b45f5ec388498760405160405180910390a250565b7f000000000000000000000000000000000000000000000000000000000000000081565b610bbf61122c565b610bc85f6112e4565b565b600160149054906101000a900467ffffffffffffffff1681565b7fb7e5c549800b144fb8b534568f698ddeb69e84956c61706fee8fefdb813d3a8a81565b5f610c11611314565b90508073ffffffffffffffffffffffffffffffffffffffff16610c32610f53565b73ffffffffffffffffffffffffffffffffffffffff1614610c8a57806040517f118cdaa7000000000000000000000000000000000000000000000000000000008152600401610c81919061193f565b60405180910390fd5b610c93816112e4565b50565b5f805f9054906101000a900473ffffffffffffffffffffffffffffffffffffffff16905090565b7fe5af582cf3f77d10e5e9ea85538be744d6b61da44268eb68b35faaf4639edb6481565b60035f9054906101000a900467ffffffffffffffff1681565b6005602052805f5260405f205f915090505481565b5f805f1b60045f8467ffffffffffffffff1667ffffffffffffffff1681526020019081526020015f205414159050919050565b6004602052805f5260405f205f915090505481565b60028054610d6490611e1f565b80601f0160208091040260200160405190810160405280929190818152602001828054610d9090611e1f565b8015610ddb5780601f10610db257610100808354040283529160200191610ddb565b820191905f5260205f20905b815481529060010190602001808311610dbe57829003601f168201915b505050505081565b600160149054906101000a900467ffffffffffffffff1667ffffffffffffffff168567ffffffffffffffff1611610e4f576040517f08c379a0000000000000000000000000000000000000000000000000000000008152600401610e4690611ea9565b60405180910390fd5b5f7fe5af582cf3f77d10e5e9ea85538be744d6b61da44268eb68b35faaf4639edb647f0000000000000000000000000000000000000000000000000000000000000000878787604051602001610ea9959493929190611f03565b604051602081830303815290604052805190602001209050610ecc818484611044565b85600160146101000a81548167ffffffffffffffff021916908367ffffffffffffffff160217905550848460029182610f06929190612122565b508567ffffffffffffffff167f372ab7c5944f1577c45b82904b419a4cd3bd305b60b2d062228a90aa641a5bd38686604051610f4392919061221b565b60405180910390a2505050505050565b5f60015f9054906101000a900473ffffffffffffffffffffffffffffffffffffffff16905090565b610f8361122c565b8060015f6101000a81548173ffffffffffffffffffffffffffffffffffffffff021916908373ffffffffffffffffffffffffffffffffffffffff1602179055508073ffffffffffffffffffffffffffffffffffffffff16610fe2610c96565b73ffffffffffffffffffffffffffffffffffffffff167f38d16b8cac22d99fc7c124b9cd0de2d3fa1faef420bfe791d8c362d765e2270060405160405180910390a350565b6007602052805f5260405f205f915054906101000a900460ff1681565b600654828290501015611083576040517f59fa4a9300000000000000000000000000000000000000000000000000000000815260040160405180910390fd5b5f805f5b848490508110156111e8575f611103878787858181106110aa576110a9611cf1565b5b90506020028101906110bc9190612249565b8080601f0160208091040260200160405190810160405280939291908181526020018383808284375f81840152601f19601f8201169050808301925050505050505061131b565b90508273ffffffffffffffffffffffffffffffffffffffff168173ffffffffffffffffffffffffffffffffffffffff1611611173576040517f08c379a000000000000000000000000000000000000000000000000000000000815260040161116a906122f5565b60405180910390fd5b80925060075f8273ffffffffffffffffffffffffffffffffffffffff1673ffffffffffffffffffffffffffffffffffffffff1681526020019081526020015f205f9054906101000a900460ff16156111d45783806111d090611dab565b9450505b5080806111e090611dab565b915050611087565b50600654821015611225576040517f59fa4a9300000000000000000000000000000000000000000000000000000000815260040160405180910390fd5b5050505050565b611234611314565b73ffffffffffffffffffffffffffffffffffffffff16611252610c96565b73ffffffffffffffffffffffffffffffffffffffff16146112b157611275611314565b6040517f118cdaa70000000000000000000000000000000000000000000000000000000081526004016112a8919061193f565b60405180910390fd5b565b60036002806008805490506112c89190612313565b6112d29190612354565b6112dc91906123b4565b600681905550565b60015f6101000a81549073ffffffffffffffffffffffffffffffffffffffff021916905561131181611345565b50565b5f33905090565b5f805f806113298686611406565b925092509250611339828261145b565b82935050505092915050565b5f805f9054906101000a900473ffffffffffffffffffffffffffffffffffffffff169050815f806101000a81548173ffffffffffffffffffffffffffffffffffffffff021916908373ffffffffffffffffffffffffffffffffffffffff1602179055508173ffffffffffffffffffffffffffffffffffffffff168173ffffffffffffffffffffffffffffffffffffffff167f8be0079c531659141344cd1fd0a4f28419497f9722a3daafe3b4186f6b6457e060405160405180910390a35050565b5f805f6041845103611446575f805f602087015192506040870151915060608701515f1a9050611438888285856115bd565b955095509550505050611454565b5f600285515f1b9250925092505b9250925092565b5f600381111561146e5761146d6123e4565b5b826003811115611481576114806123e4565b5b03156115b9576001600381111561149b5761149a6123e4565b5b8260038111156114ae576114ad6123e4565b5b036114e5576040517ff645eedf00000000000000000000000000000000000000000000000000000000815260040160405180910390fd5b600260038111156114f9576114f86123e4565b5b82600381111561150c5761150b6123e4565b5b0361155057805f1c6040517ffce698f7000000000000000000000000000000000000000000000000000000008152600401611547919061175d565b60405180910390fd5b600380811115611563576115626123e4565b5b826003811115611576576115756123e4565b5b036115b857806040517fd78bce0c0000000000000000000000000000000000000000000000000000000081526004016115af919061172c565b60405180910390fd5b5b5050565b5f805f7f7fffffffffffffffffffffffffffffff5d576e7357a4501ddfe92f46681b20a0845f1c11156115f9575f60038592509250925061169a565b5f6001888888886040515f815260200160405260405161161c949392919061242c565b6020604051602081039080840390855afa15801561163c573d5f803e3d5ffd5b5050506020604051035190505f73ffffffffffffffffffffffffffffffffffffffff168173ffffffffffffffffffffffffffffffffffffffff160361168d575f60015f801b9350935093505061169a565b805f805f1b935093509350505b9450945094915050565b5f80fd5b5f80fd5b5f67ffffffffffffffff82169050919050565b6116c8816116ac565b81146116d2575f80fd5b50565b5f813590506116e3816116bf565b92915050565b5f602082840312156116fe576116fd6116a4565b5b5f61170b848285016116d5565b91505092915050565b5f819050919050565b61172681611714565b82525050565b5f60208201905061173f5f83018461171d565b92915050565b5f819050919050565b61175781611745565b82525050565b5f6020820190506117705f83018461174e565b92915050565b61177f81611714565b8114611789575f80fd5b50565b5f8135905061179a81611776565b92915050565b5f80fd5b5f80fd5b5f80fd5b5f8083601f8401126117c1576117c06117a0565b5b8235905067ffffffffffffffff8111156117de576117dd6117a4565b5b6020830191508360208202830111156117fa576117f96117a8565b5b9250929050565b5f805f805f805f60c0888a03121561181c5761181b6116a4565b5b5f6118298a828b016116d5565b975050602061183a8a828b0161178c565b965050604061184b8a828b0161178c565b955050606061185c8a828b0161178c565b945050608061186d8a828b016116d5565b93505060a088013567ffffffffffffffff81111561188e5761188d6116a8565b5b61189a8a828b016117ac565b925092505092959891949750929550565b6118b481611745565b81146118be575f80fd5b50565b5f813590506118cf816118ab565b92915050565b5f602082840312156118ea576118e96116a4565b5b5f6118f7848285016118c1565b91505092915050565b5f73ffffffffffffffffffffffffffffffffffffffff82169050919050565b5f61192982611900565b9050919050565b6119398161191f565b82525050565b5f6020820190506119525f830184611930565b92915050565b6119618161191f565b811461196b575f80fd5b50565b5f8135905061197c81611958565b92915050565b5f60208284031215611997576119966116a4565b5b5f6119a48482850161196e565b91505092915050565b6119b6816116ac565b82525050565b5f6020820190506119cf5f8301846119ad565b92915050565b5f8115159050919050565b6119e9816119d5565b82525050565b5f602082019050611a025f8301846119e0565b92915050565b5f81519050919050565b5f82825260208201905092915050565b5f5b83811015611a3f578082015181840152602081019050611a24565b5f8484015250505050565b5f601f19601f8301169050919050565b5f611a6482611a08565b611a6e8185611a12565b9350611a7e818560208601611a22565b611a8781611a4a565b840191505092915050565b5f6020820190508181035f830152611aaa8184611a5a565b905092915050565b5f8083601f840112611ac757611ac66117a0565b5b8235905067ffffffffffffffff811115611ae457611ae36117a4565b5b602083019150836001820283011115611b0057611aff6117a8565b5b9250929050565b5f805f805f60608688031215611b2057611b1f6116a4565b5b5f611b2d888289016116d5565b955050602086013567ffffffffffffffff811115611b4e57611b4d6116a8565b5b611b5a88828901611ab2565b9450945050604086013567ffffffffffffffff811115611b7d57611b7c6116a8565b5b611b89888289016117ac565b92509250509295509295909350565b5f819050919050565b611bb2611bad82611714565b611b98565b82525050565b5f8160c01b9050919050565b5f611bce82611bb8565b9050919050565b611be6611be1826116ac565b611bc4565b82525050565b5f611bf7828a611ba1565b602082019150611c078289611bd5565b600882019150611c178288611bd5565b600882019150611c278287611ba1565b602082019150611c378286611ba1565b602082019150611c478285611ba1565b602082019150611c578284611bd5565b60088201915081905098975050505050505050565b5f611c778288611bd5565b600882019150611c878287611ba1565b602082019150611c978286611ba1565b602082019150611ca78285611ba1565b602082019150611cb78284611bd5565b6008820191508190509695505050505050565b5f604082019050611cdd5f83018561171d565b611cea602083018461171d565b9392505050565b7f4e487b71000000000000000000000000000000000000000000000000000000005f52603260045260245ffd5b7f4e487b71000000000000000000000000000000000000000000000000000000005f52601160045260245ffd5b5f611d5582611745565b9150611d6083611745565b9250828203905081811115611d7857611d77611d1e565b5b92915050565b7f4e487b71000000000000000000000000000000000000000000000000000000005f52603160045260245ffd5b5f611db582611745565b91507fffffffffffffffffffffffffffffffffffffffffffffffffffffffffffffffff8203611de757611de6611d1e565b5b600182019050919050565b7f4e487b71000000000000000000000000000000000000000000000000000000005f52602260045260245ffd5b5f6002820490506001821680611e3657607f821691505b602082108103611e4957611e48611df2565b5b50919050565b5f82825260208201905092915050565b7f45706f6368206d75737420696e637265617365000000000000000000000000005f82015250565b5f611e93601383611e4f565b9150611e9e82611e5f565b602082019050919050565b5f6020820190508181035f830152611ec081611e87565b9050919050565b5f81905092915050565b828183375f83830152505050565b5f611eea8385611ec7565b9350611ef7838584611ed1565b82840190509392505050565b5f611f0e8288611ba1565b602082019150611f1e8287611bd5565b600882019150611f2e8286611bd5565b600882019150611f3f828486611edf565b91508190509695505050505050565b5f82905092915050565b7f4e487b71000000000000000000000000000000000000000000000000000000005f52604160045260245ffd5b5f819050815f5260205f209050919050565b5f6020601f8301049050919050565b5f82821b905092915050565b5f60088302611fe17fffffffffffffffffffffffffffffffffffffffffffffffffffffffffffffffff82611fa6565b611feb8683611fa6565b95508019841693508086168417925050509392505050565b5f819050919050565b5f61202661202161201c84611745565b612003565b611745565b9050919050565b5f819050919050565b61203f8361200c565b61205361204b8261202d565b848454611fb2565b825550505050565b5f90565b61206761205b565b612072818484612036565b505050565b5b818110156120955761208a5f8261205f565b600181019050612078565b5050565b601f8211156120da576120ab81611f85565b6120b484611f97565b810160208510156120c3578190505b6120d76120cf85611f97565b830182612077565b50505b505050565b5f82821c905092915050565b5f6120fa5f19846008026120df565b1980831691505092915050565b5f61211283836120eb565b9150826002028217905092915050565b61212c8383611f4e565b67ffffffffffffffff81111561214557612144611f58565b5b61214f8254611e1f565b61215a828285612099565b5f601f831160018114612187575f8415612175578287013590505b61217f8582612107565b8655506121e6565b601f19841661219586611f85565b5f5b828110156121bc57848901358255600182019150602085019450602081019050612197565b868310156121d957848901356121d5601f8916826120eb565b8355505b6001600288020188555050505b50505050505050565b5f6121fa8385611a12565b9350612207838584611ed1565b61221083611a4a565b840190509392505050565b5f6020820190508181035f8301526122348184866121ef565b90509392505050565b5f80fd5b5f80fd5b5f80fd5b5f80833560016020038436030381126122655761226461223d565b5b80840192508235915067ffffffffffffffff82111561228757612286612241565b5b6020830192506001820236038313156122a3576122a2612245565b5b509250929050565b7f5369676e617475726573206e6f7420736f7274656400000000000000000000005f82015250565b5f6122df601583611e4f565b91506122ea826122ab565b602082019050919050565b5f6020820190508181035f83015261230c816122d3565b9050919050565b5f61231d82611745565b915061232883611745565b925082820261233681611745565b9150828204841483151761234d5761234c611d1e565b5b5092915050565b5f61235e82611745565b915061236983611745565b925082820190508082111561238157612380611d1e565b5b92915050565b7f4e487b71000000000000000000000000000000000000000000000000000000005f52601260045260245ffd5b5f6123be82611745565b91506123c983611745565b9250826123d9576123d8612387565b5b828204905092915050565b7f4e487b71000000000000000000000000000000000000000000000000000000005f52602160045260245ffd5b5f60ff82169050919050565b61242681612411565b82525050565b5f60808201905061243f5f83018761171d565b61244c602083018661241d565b612459604083018561171d565b612466606083018461171d565b9594505050505056fea2646970667358221220ee0a694a740b46e12894ae8b429d9d26b5b58784e34b7f68227e614303337bd064736f6c63430008140033","linkReferences":{}},"methodIdentifiers":{"HEADER_DOMAIN()":"79732fbc","ROTATION_DOMAIN()":"9e39bbfd","acceptOwnership()":"79ba5097","addValidator(address)":"4d238c8e","currentEpoch()":"76671808","currentPublicKey()":"d0deef17","getReceiptsRoot(uint64)":"0c6038ed","headerHashes(uint64)":"cc54ebf7","isHeaderFinalized(uint64)":"c83eacc2","isValidator(address)":"facd743b","latestFinalizedHeight()":"a09d3879","owner()":"8da5cb5b","pendingOwner()":"e30c3978","receiptsRoots(uint64)":"c06b35b0","removeValidator(address)":"40a141ff","renounceOwnership()":"715018a6","submitHeader(uint64,bytes32,bytes32,bytes32,uint64,bytes[])":"22504a85","submitKeyRotation(uint64,bytes,bytes[])":"e0226760","tempoChainId()":"548bed75","threshold()":"42cde4e8","transferOwnership(address)":"f2fde38b","validatorCount()":"0f43a677","validators(uint256)":"35aa2e44"},"id":32}