{"abi":[{"type":"constructor","inputs":[{"name":"_tempoChainId","type":"uint64","internalType":"uint64"},{"name":"_initialEpoch","type":"uint64","internalType":"uint64"}],"stateMutability":"nonpayable"},{"type":"function","name":"HEADER_DOMAIN","inputs":[],"outputs":[{"name":"","type":"bytes32","internalType":"bytes32"}],"stateMutability":"view"},{"type":"function","name":"ROTATION_DOMAIN","inputs":[],"outputs":[{"name":"","type":"bytes32","internalType":"bytes32"}],"stateMutability":"view"},{"type":"function","name":"acceptOwnership","inputs":[],"outputs":[],"stateMutability":"nonpayable"},{"type":"function","name":"addValidator","inputs":[{"name":"validator","type":"address","internalType":"address"}],"outputs":[],"stateMutability":"nonpayable"},{"type":"function","name":"blsPublicKey","inputs":[],"outputs":[{"name":"","type":"bytes","internalType":"bytes"}],"stateMutability":"view"},{"type":"function","name":"currentEpoch","inputs":[],"outputs":[{"name":"","type":"uint64","internalType":"uint64"}],"stateMutability":"view"},{"type":"function","name":"currentPublicKey","inputs":[],"outputs":[{"name":"","type":"bytes","internalType":"bytes"}],"stateMutability":"view"},{"type":"function","name":"getReceiptsRoot","inputs":[{"name":"height","type":"uint64","internalType":"uint64"}],"outputs":[{"name":"","type":"bytes32","internalType":"bytes32"}],"stateMutability":"view"},{"type":"function","name":"headerHashes","inputs":[{"name":"","type":"uint64","internalType":"uint64"}],"outputs":[{"name":"","type":"bytes32","internalType":"bytes32"}],"stateMutability":"view"},{"type":"function","name":"isBLSAvailable","inputs":[],"outputs":[{"name":"","type":"bool","internalType":"bool"}],"stateMutability":"view"},{"type":"function","name":"isHeaderFinalized","inputs":[{"name":"height","type":"uint64","internalType":"uint64"}],"outputs":[{"name":"","type":"bool","internalType":"bool"}],"stateMutability":"view"},{"type":"function","name":"isValidator","inputs":[{"name":"","type":"address","internalType":"address"}],"outputs":[{"name":"","type":"bool","internalType":"bool"}],"stateMutability":"view"},{"type":"function","name":"latestFinalizedHeight","inputs":[],"outputs":[{"name":"","type":"uint64","internalType":"uint64"}],"stateMutability":"view"},{"type":"function","name":"owner","inputs":[],"outputs":[{"name":"","type":"address","internalType":"address"}],"stateMutability":"view"},{"type":"function","name":"pendingOwner","inputs":[],"outputs":[{"name":"","type":"address","internalType":"address"}],"stateMutability":"view"},{"type":"function","name":"receiptsRoots","inputs":[{"name":"","type":"uint64","internalType":"uint64"}],"outputs":[{"name":"","type":"bytes32","internalType":"bytes32"}],"stateMutability":"view"},{"type":"function","name":"removeValidator","inputs":[{"name":"validator","type":"address","internalType":"address"}],"outputs":[],"stateMutability":"nonpayable"},{"type":"function","name":"renounceOwnership","inputs":[],"outputs":[],"stateMutability":"nonpayable"},{"type":"function","name":"setBLSPublicKey","inputs":[{"name":"_blsPublicKey","type":"bytes","internalType":"bytes"}],"outputs":[],"stateMutability":"nonpayable"},{"type":"function","name":"setSignatureMode","inputs":[{"name":"_useEcdsaMode","type":"bool","internalType":"bool"}],"outputs":[],"stateMutability":"nonpayable"},{"type":"function","name":"submitBLSKeyRotation","inputs":[{"name":"newEpoch","type":"uint64","internalType":"uint64"},{"name":"newBLSPublicKey","type":"bytes","internalType":"bytes"},{"name":"blsSignature","type":"bytes","internalType":"bytes"}],"outputs":[],"stateMutability":"nonpayable"},{"type":"function","name":"submitHeader","inputs":[{"name":"height","type":"uint64","internalType":"uint64"},{"name":"parentHash","type":"bytes32","internalType":"bytes32"},{"name":"stateRoot","type":"bytes32","internalType":"bytes32"},{"name":"receiptsRoot","type":"bytes32","internalType":"bytes32"},{"name":"epoch","type":"uint64","internalType":"uint64"},{"name":"signatures","type":"bytes[]","internalType":"bytes[]"}],"outputs":[],"stateMutability":"nonpayable"},{"type":"function","name":"submitHeader","inputs":[{"name":"height","type":"uint64","internalType":"uint64"},{"name":"parentHash","type":"bytes32","internalType":"bytes32"},{"name":"stateRoot","type":"bytes32","internalType":"bytes32"},{"name":"receiptsRoot","type":"bytes32","internalType":"bytes32"},{"name":"epoch","type":"uint64","internalType":"uint64"},{"name":"signature","type":"bytes","internalType":"bytes"}],"outputs":[],"stateMutability":"nonpayable"},{"type":"function","name":"submitKeyRotation","inputs":[{"name":"newEpoch","type":"uint64","internalType":"uint64"},{"name":"newPublicKey","type":"bytes","internalType":"bytes"},{"name":"signatures","type":"bytes[]","internalType":"bytes[]"}],"outputs":[],"stateMutability":"nonpayable"},{"type":"function","name":"tempoChainId","inputs":[],"outputs":[{"name":"","type":"uint64","internalType":"uint64"}],"stateMutability":"view"},{"type":"function","name":"threshold","inputs":[],"outputs":[{"name":"","type":"uint256","internalType":"uint256"}],"stateMutability":"view"},{"type":"function","name":"transferOwnership","inputs":[{"name":"newOwner","type":"address","internalType":"address"}],"outputs":[],"stateMutability":"nonpayable"},{"type":"function","name":"useEcdsaMode","inputs":[],"outputs":[{"name":"","type":"bool","internalType":"bool"}],"stateMutability":"view"},{"type":"function","name":"validatorCount","inputs":[],"outputs":[{"name":"","type":"uint256","internalType":"uint256"}],"stateMutability":"view"},{"type":"function","name":"validators","inputs":[{"name":"","type":"uint256","internalType":"uint256"}],"outputs":[{"name":"","type":"address","internalType":"address"}],"stateMutability":"view"},{"type":"event","name":"BLSPublicKeyUpdated","inputs":[{"name":"epoch","type":"uint64","indexed":true,"internalType":"uint64"},{"name":"blsKey","type":"bytes","indexed":false,"internalType":"bytes"}],"anonymous":false},{"type":"event","name":"HeaderSubmitted","inputs":[{"name":"height","type":"uint64","indexed":true,"internalType":"uint64"},{"name":"headerHash","type":"bytes32","indexed":false,"internalType":"bytes32"},{"name":"receiptsRoot","type":"bytes32","indexed":false,"internalType":"bytes32"}],"anonymous":false},{"type":"event","name":"KeyRotated","inputs":[{"name":"newEpoch","type":"uint64","indexed":true,"internalType":"uint64"},{"name":"newPublicKey","type":"bytes","indexed":false,"internalType":"bytes"}],"anonymous":false},{"type":"event","name":"OwnershipTransferStarted","inputs":[{"name":"previousOwner","type":"address","indexed":true,"internalType":"address"},{"name":"newOwner","type":"address","indexed":true,"internalType":"address"}],"anonymous":false},{"type":"event","name":"OwnershipTransferred","inputs":[{"name":"previousOwner","type":"address","indexed":true,"internalType":"address"},{"name":"newOwner","type":"address","indexed":true,"internalType":"address"}],"anonymous":false},{"type":"event","name":"SignatureModeChanged","inputs":[{"name":"useEcdsa","type":"bool","indexed":false,"internalType":"bool"}],"anonymous":false},{"type":"event","name":"ValidatorAdded","inputs":[{"name":"validator","type":"address","indexed":true,"internalType":"address"}],"anonymous":false},{"type":"event","name":"ValidatorRemoved","inputs":[{"name":"validator","type":"address","indexed":true,"internalType":"address"}],"anonymous":false},{"type":"error","name":"BLSHashToG1Failed","inputs":[]},{"type":"error","name":"BLSInvalidPublicKeyLength","inputs":[]},{"type":"error","name":"BLSInvalidSignatureLength","inputs":[]},{"type":"error","name":"BLSPrecompileCallFailed","inputs":[]},{"type":"error","name":"BLSPrecompilesNotAvailable","inputs":[]},{"type":"error","name":"BLSVerificationFailed","inputs":[]},{"type":"error","name":"ECDSAInvalidSignature","inputs":[]},{"type":"error","name":"ECDSAInvalidSignatureLength","inputs":[{"name":"length","type":"uint256","internalType":"uint256"}]},{"type":"error","name":"ECDSAInvalidSignatureS","inputs":[{"name":"s","type":"bytes32","internalType":"bytes32"}]},{"type":"error","name":"HeightNotMonotonic","inputs":[]},{"type":"error","name":"InvalidBLSPublicKeyLength","inputs":[]},{"type":"error","name":"InvalidBLSSignatureLength","inputs":[]},{"type":"error","name":"InvalidParentHash","inputs":[]},{"type":"error","name":"InvalidSignature","inputs":[]},{"type":"error","name":"InvalidSignatureCount","inputs":[]},{"type":"error","name":"OwnableInvalidOwner","inputs":[{"name":"owner","type":"address","internalType":"address"}]},{"type":"error","name":"OwnableUnauthorizedAccount","inputs":[{"name":"account","type":"address","internalType":"address"}]},{"type":"error","name":"ThresholdNotMet","inputs":[]},{"type":"error","name":"ValidatorExists","inputs":[]},{"type":"error","name":"ValidatorNotFound","inputs":[]}],"bytecode":{"object":"0x60a060405234801561000f575f5ffd5b5060405161452038038061452083398181016040528101906100319190610250565b335f73ffffffffffffffffffffffffffffffffffffffff168173ffffffffffffffffffffffffffffffffffffffff16036100a2575f6040517f1e4fbdf700000000000000000000000000000000000000000000000000000000815260040161009991906102cd565b60405180910390fd5b6100b18161011860201b60201c565b508167ffffffffffffffff1660808167ffffffffffffffff168152505080600160146101000a81548167ffffffffffffffff021916908367ffffffffffffffff160217905550600160065f6101000a81548160ff02191690831515021790555050506102e6565b60015f6101000a81549073ffffffffffffffffffffffffffffffffffffffff021916905561014b8161014e60201b60201c565b50565b5f5f5f9054906101000a900473ffffffffffffffffffffffffffffffffffffffff169050815f5f6101000a81548173ffffffffffffffffffffffffffffffffffffffff021916908373ffffffffffffffffffffffffffffffffffffffff1602179055508173ffffffffffffffffffffffffffffffffffffffff168173ffffffffffffffffffffffffffffffffffffffff167f8be0079c531659141344cd1fd0a4f28419497f9722a3daafe3b4186f6b6457e060405160405180910390a35050565b5f5ffd5b5f67ffffffffffffffff82169050919050565b61022f81610213565b8114610239575f5ffd5b50565b5f8151905061024a81610226565b92915050565b5f5f604083850312156102665761026561020f565b5b5f6102738582860161023c565b92505060206102848582860161023c565b9150509250929050565b5f73ffffffffffffffffffffffffffffffffffffffff82169050919050565b5f6102b78261028e565b9050919050565b6102c7816102ad565b82525050565b5f6020820190506102e05f8301846102be565b92915050565b60805161420661031a5f395f818161071901528181610dae01528181611117015281816114a7015261182301526142065ff3fe608060405234801561000f575f5ffd5b50600436106101d8575f3560e01c806379c4473a11610102578063cc54ebf7116100a0578063e30c39781161006f578063e30c39781461050a578063e539ed1714610528578063f2fde38b14610546578063facd743b14610562576101d8565b8063cc54ebf714610482578063d0deef17146104b2578063d49efac0146104d0578063e0226760146104ee576101d8565b80639e39bbfd116100dc5780639e39bbfd146103e6578063a09d387914610404578063c06b35b014610422578063c83eacc214610452576101d8565b806379c4473a1461038e578063860af5e6146103ac5780638da5cb5b146103c8576101d8565b8063472efe381161017a578063715018a611610149578063715018a61461033e578063766718081461034857806379732fbc1461036657806379ba509714610384576101d8565b8063472efe38146102cc5780634d238c8e146102e8578063548bed75146103045780636bbe869d14610322576101d8565b806335aa2e44116101b657806335aa2e441461024657806340a141ff1461027657806342cde4e81461029257806344954b4a146102b0576101d8565b80630c6038ed146101dc5780630f43a6771461020c57806322504a851461022a575b5f5ffd5b6101f660048036038101906101f19190612c0c565b610592565b6040516102039190612c4f565b60405180910390f35b6102146105c0565b6040516102219190612c80565b60405180910390f35b610244600480360381019061023f9190612d24565b6105cc565b005b610260600480360381019061025b9190612df8565b6109f8565b60405161026d9190612e62565b60405180910390f35b610290600480360381019061028b9190612ea5565b610a33565b005b61029a610cda565b6040516102a79190612c80565b60405180910390f35b6102ca60048036038101906102c59190612f25565b610ce0565b005b6102e660048036038101906102e19190612feb565b610ee4565b005b61030260048036038101906102fd9190612ea5565b610f89565b005b61030c611115565b6040516103199190613025565b60405180910390f35b61033c6004803603810190610337919061303e565b611139565b005b6103466111ef565b005b610350611202565b60405161035d9190613025565b60405180910390f35b61036e61121c565b60405161037b9190612c4f565b60405180910390f35b61038c611240565b005b6103966112ce565b6040516103a391906130f9565b60405180910390f35b6103c660048036038101906103c19190613119565b61135a565b005b6103d0611638565b6040516103dd9190612e62565b60405180910390f35b6103ee61165f565b6040516103fb9190612c4f565b60405180910390f35b61040c611683565b6040516104199190613025565b60405180910390f35b61043c60048036038101906104379190612c0c565b61169c565b6040516104499190612c4f565b60405180910390f35b61046c60048036038101906104679190612c0c565b6116b1565b60405161047991906131d2565b60405180910390f35b61049c60048036038101906104979190612c0c565b6116e4565b6040516104a99190612c4f565b60405180910390f35b6104ba6116f9565b6040516104c791906130f9565b60405180910390f35b6104d8611785565b6040516104e591906131d2565b60405180910390f35b610508600480360381019061050391906131eb565b611793565b005b610512611aeb565b60405161051f9190612e62565b60405180910390f35b610530611b13565b60405161053d91906131d2565b60405180910390f35b610560600480360381019061055b9190612ea5565b611b25565b005b61057c60048036038101906105779190612ea5565b611bd1565b60405161058991906131d2565b60405180910390f35b5f60055f8367ffffffffffffffff1667ffffffffffffffff1681526020019081526020015f20549050919050565b5f600980549050905090565b60035f9054906101000a900467ffffffffffffffff1667ffffffffffffffff168767ffffffffffffffff161115801561062357505f60035f9054906101000a900467ffffffffffffffff1667ffffffffffffffff16115b1561065a576040517fae0c382600000000000000000000000000000000000000000000000000000000815260040160405180910390fd5b5f60035f9054906101000a900467ffffffffffffffff1667ffffffffffffffff1611156106f55760045f60035f9054906101000a900467ffffffffffffffff1667ffffffffffffffff1667ffffffffffffffff1681526020019081526020015f205486146106f4576040517f591c836700000000000000000000000000000000000000000000000000000000815260040160405180910390fd5b5b5f7fb7e5c549800b144fb8b534568f698ddeb69e84956c61706fee8fefdb813d3a8a7f0000000000000000000000000000000000000000000000000000000000000000898989898960405160200161075397969594939291906132d0565b60405160208183030381529060405280519060200120905060065f9054906101000a900460ff1615610886575f8383905067ffffffffffffffff81111561079d5761079c613350565b5b6040519080825280602002602001820160405280156107d057816020015b60608152602001906001900390816107bb5790505b5090505f5f90505b84849050811015610875578484828181106107f6576107f561337d565b5b905060200281019061080891906133b6565b8080601f0160208091040260200160405190810160405280939291908181526020018383808284375f81840152601f19601f8201169050808301925050505050505082828151811061085d5761085c61337d565b5b602002602001018190525080806001019150506107d8565b506108808282611bee565b506108fb565b600183839050146108cc576040517f08c379a00000000000000000000000000000000000000000000000000000000081526004016108c390613498565b60405180910390fd5b6108fa8184845f8181106108e3576108e261337d565b5b90506020028101906108f591906133b6565b611d88565b5b5f88888888886040516020016109159594939291906134b6565b6040516020818303038152906040528051906020012090508060045f8b67ffffffffffffffff1667ffffffffffffffff1681526020019081526020015f20819055508560055f8b67ffffffffffffffff1667ffffffffffffffff1681526020019081526020015f20819055508860035f6101000a81548167ffffffffffffffff021916908367ffffffffffffffff1602179055508867ffffffffffffffff167f2993dbc1bc5a75fad02580d988d66672fb97594b89f81503088f9e1f66e21c0482886040516109e5929190613514565b60405180910390a2505050505050505050565b60098181548110610a07575f80fd5b905f5260205f20015f915054906101000a900473ffffffffffffffffffffffffffffffffffffffff1681565b610a3b611f24565b60085f8273ffffffffffffffffffffffffffffffffffffffff1673ffffffffffffffffffffffffffffffffffffffff1681526020019081526020015f205f9054906101000a900460ff16610abb576040517f580e542f00000000000000000000000000000000000000000000000000000000815260040160405180910390fd5b5f60085f8373ffffffffffffffffffffffffffffffffffffffff1673ffffffffffffffffffffffffffffffffffffffff1681526020019081526020015f205f6101000a81548160ff0219169083151502179055505f5f90505b600980549050811015610c8b578173ffffffffffffffffffffffffffffffffffffffff1660098281548110610b4c57610b4b61337d565b5b905f5260205f20015f9054906101000a900473ffffffffffffffffffffffffffffffffffffffff1673ffffffffffffffffffffffffffffffffffffffff1603610c7e5760096001600980549050610ba39190613568565b81548110610bb457610bb361337d565b5b905f5260205f20015f9054906101000a900473ffffffffffffffffffffffffffffffffffffffff1660098281548110610bf057610bef61337d565b5b905f5260205f20015f6101000a81548173ffffffffffffffffffffffffffffffffffffffff021916908373ffffffffffffffffffffffffffffffffffffffff1602179055506009805480610c4757610c4661359b565b5b600190038181905f5260205f20015f6101000a81549073ffffffffffffffffffffffffffffffffffffffff02191690559055610c8b565b8080600101915050610b14565b50610c94611fab565b8073ffffffffffffffffffffffffffffffffffffffff167fe1434e25d6611e0db941968fdc97811c982ac1602e951637d206f5fdda9dd8f160405160405180910390a250565b60075481565b600160149054906101000a900467ffffffffffffffff1667ffffffffffffffff168567ffffffffffffffff1611610d4c576040517f08c379a0000000000000000000000000000000000000000000000000000000008152600401610d4390613612565b60405180910390fd5b6101008484905014610d8a576040517f7b7d6d1700000000000000000000000000000000000000000000000000000000815260040160405180910390fd5b5f7fe5af582cf3f77d10e5e9ea85538be744d6b61da44268eb68b35faaf4639edb647f0000000000000000000000000000000000000000000000000000000000000000878787604051602001610de495949392919061366c565b604051602081830303815290604052805190602001209050610e07818484611d88565b85600160146101000a81548167ffffffffffffffff021916908367ffffffffffffffff160217905550848460029182610e419291906138be565b508484600a9182610e539291906138be565b508567ffffffffffffffff167f48b3aa711887c5c9a4bc0f4bbf4b7dfe91a9d6528b3dfc328a21ed26fc335fa58686604051610e909291906139b7565b60405180910390a28567ffffffffffffffff167f372ab7c5944f1577c45b82904b419a4cd3bd305b60b2d062228a90aa641a5bd38686604051610ed49291906139b7565b60405180910390a2505050505050565b610eec611f24565b80158015610eff5750610efd611ff6565b155b15610f36576040517fd5313b2b00000000000000000000000000000000000000000000000000000000815260040160405180910390fd5b8060065f6101000a81548160ff0219169083151502179055507fb1ad7aeba0be5ac6144392b92e31727e4f376c05eac1d9d6c8183be2fa70dff781604051610f7e91906131d2565b60405180910390a150565b610f91611f24565b60085f8273ffffffffffffffffffffffffffffffffffffffff1673ffffffffffffffffffffffffffffffffffffffff1681526020019081526020015f205f9054906101000a900460ff1615611012576040517f7e9b8fa600000000000000000000000000000000000000000000000000000000815260040160405180910390fd5b600160085f8373ffffffffffffffffffffffffffffffffffffffff1673ffffffffffffffffffffffffffffffffffffffff1681526020019081526020015f205f6101000a81548160ff021916908315150217905550600981908060018154018082558091505060019003905f5260205f20015f9091909190916101000a81548173ffffffffffffffffffffffffffffffffffffffff021916908373ffffffffffffffffffffffffffffffffffffffff1602179055506110cf611fab565b8073ffffffffffffffffffffffffffffffffffffffff167fe366c1c0452ed8eec96861e9e54141ebff23c9ec89fe27b996b45f5ec388498760405160405180910390a250565b7f000000000000000000000000000000000000000000000000000000000000000081565b611141611f24565b610100828290501461117f576040517f7b7d6d1700000000000000000000000000000000000000000000000000000000815260040160405180910390fd5b8181600291826111909291906138be565b50600160149054906101000a900467ffffffffffffffff1667ffffffffffffffff167f48b3aa711887c5c9a4bc0f4bbf4b7dfe91a9d6528b3dfc328a21ed26fc335fa583836040516111e39291906139b7565b60405180910390a25050565b6111f7611f24565b6112005f6120de565b565b600160149054906101000a900467ffffffffffffffff1681565b7fb7e5c549800b144fb8b534568f698ddeb69e84956c61706fee8fefdb813d3a8a81565b5f61124961210e565b90508073ffffffffffffffffffffffffffffffffffffffff1661126a611aeb565b73ffffffffffffffffffffffffffffffffffffffff16146112c257806040517f118cdaa70000000000000000000000000000000000000000000000000000000081526004016112b99190612e62565b60405180910390fd5b6112cb816120de565b50565b600280546112db906136ee565b80601f0160208091040260200160405190810160405280929190818152602001828054611307906136ee565b80156113525780601f1061132957610100808354040283529160200191611352565b820191905f5260205f20905b81548152906001019060200180831161133557829003601f168201915b505050505081565b60035f9054906101000a900467ffffffffffffffff1667ffffffffffffffff168767ffffffffffffffff16111580156113b157505f60035f9054906101000a900467ffffffffffffffff1667ffffffffffffffff16115b156113e8576040517fae0c382600000000000000000000000000000000000000000000000000000000815260040160405180910390fd5b5f60035f9054906101000a900467ffffffffffffffff1667ffffffffffffffff1611156114835760045f60035f9054906101000a900467ffffffffffffffff1667ffffffffffffffff1667ffffffffffffffff1681526020019081526020015f20548614611482576040517f591c836700000000000000000000000000000000000000000000000000000000815260040160405180910390fd5b5b5f7fb7e5c549800b144fb8b534568f698ddeb69e84956c61706fee8fefdb813d3a8a7f000000000000000000000000000000000000000000000000000000000000000089898989896040516020016114e197969594939291906132d0565b60405160208183030381529060405280519060200120905060065f9054906101000a900460ff161561152f575f838381019061151d9190613ba4565b90506115298282611bee565b5061153b565b61153a818484611d88565b5b5f88888888886040516020016115559594939291906134b6565b6040516020818303038152906040528051906020012090508060045f8b67ffffffffffffffff1667ffffffffffffffff1681526020019081526020015f20819055508560055f8b67ffffffffffffffff1667ffffffffffffffff1681526020019081526020015f20819055508860035f6101000a81548167ffffffffffffffff021916908367ffffffffffffffff1602179055508867ffffffffffffffff167f2993dbc1bc5a75fad02580d988d66672fb97594b89f81503088f9e1f66e21c048288604051611625929190613514565b60405180910390a2505050505050505050565b5f5f5f9054906101000a900473ffffffffffffffffffffffffffffffffffffffff16905090565b7fe5af582cf3f77d10e5e9ea85538be744d6b61da44268eb68b35faaf4639edb6481565b60035f9054906101000a900467ffffffffffffffff1681565b6005602052805f5260405f205f915090505481565b5f5f5f1b60045f8467ffffffffffffffff1667ffffffffffffffff1681526020019081526020015f205414159050919050565b6004602052805f5260405f205f915090505481565b600a8054611706906136ee565b80601f0160208091040260200160405190810160405280929190818152602001828054611732906136ee565b801561177d5780601f106117545761010080835404028352916020019161177d565b820191905f5260205f20905b81548152906001019060200180831161176057829003601f168201915b505050505081565b5f61178e611ff6565b905090565b600160149054906101000a900467ffffffffffffffff1667ffffffffffffffff168567ffffffffffffffff16116117ff576040517f08c379a00000000000000000000000000000000000000000000000000000000081526004016117f690613612565b60405180910390fd5b5f7fe5af582cf3f77d10e5e9ea85538be744d6b61da44268eb68b35faaf4639edb647f000000000000000000000000000000000000000000000000000000000000000087878760405160200161185995949392919061366c565b60405160208183030381529060405280519060200120905060065f9054906101000a900460ff161561198c575f8383905067ffffffffffffffff8111156118a3576118a2613350565b5b6040519080825280602002602001820160405280156118d657816020015b60608152602001906001900390816118c15790505b5090505f5f90505b8484905081101561197b578484828181106118fc576118fb61337d565b5b905060200281019061190e91906133b6565b8080601f0160208091040260200160405190810160405280939291908181526020018383808284375f81840152601f19601f820116905080830192505050505050508282815181106119635761196261337d565b5b602002602001018190525080806001019150506118de565b506119868282611bee565b50611a01565b600183839050146119d2576040517f08c379a00000000000000000000000000000000000000000000000000000000081526004016119c990613498565b60405180910390fd5b611a008184845f8181106119e9576119e861337d565b5b90506020028101906119fb91906133b6565b611d88565b5b85600160146101000a81548167ffffffffffffffff021916908367ffffffffffffffff1602179055508484600a9182611a3b9291906138be565b506101008585905003611a9f57848460029182611a599291906138be565b508567ffffffffffffffff167f48b3aa711887c5c9a4bc0f4bbf4b7dfe91a9d6528b3dfc328a21ed26fc335fa58686604051611a969291906139b7565b60405180910390a25b8567ffffffffffffffff167f372ab7c5944f1577c45b82904b419a4cd3bd305b60b2d062228a90aa641a5bd38686604051611adb9291906139b7565b60405180910390a2505050505050565b5f60015f9054906101000a900473ffffffffffffffffffffffffffffffffffffffff16905090565b60065f9054906101000a900460ff1681565b611b2d611f24565b8060015f6101000a81548173ffffffffffffffffffffffffffffffffffffffff021916908373ffffffffffffffffffffffffffffffffffffffff1602179055508073ffffffffffffffffffffffffffffffffffffffff16611b8c611638565b73ffffffffffffffffffffffffffffffffffffffff167f38d16b8cac22d99fc7c124b9cd0de2d3fa1faef420bfe791d8c362d765e2270060405160405180910390a350565b6008602052805f5260405f205f915054906101000a900460ff1681565b60075481511015611c2b576040517f59fa4a9300000000000000000000000000000000000000000000000000000000815260040160405180910390fd5b5f5f90505f5f90505f5f90505b8351811015611d45575f611c6686868481518110611c5957611c5861337d565b5b6020026020010151612115565b90508273ffffffffffffffffffffffffffffffffffffffff168173ffffffffffffffffffffffffffffffffffffffff1611611cd6576040517f08c379a0000000000000000000000000000000000000000000000000000000008152600401611ccd90613c35565b60405180910390fd5b80925060085f8273ffffffffffffffffffffffffffffffffffffffff1673ffffffffffffffffffffffffffffffffffffffff1681526020019081526020015f205f9054906101000a900460ff1615611d37578380611d3390613c53565b9450505b508080600101915050611c38565b50600754821015611d82576040517f59fa4a9300000000000000000000000000000000000000000000000000000000815260040160405180910390fd5b50505050565b60808282905014611dc5576040517fffa68d7c00000000000000000000000000000000000000000000000000000000815260040160405180910390fd5b61010060028054611dd5906136ee565b905014611e0e576040517f7b7d6d1700000000000000000000000000000000000000000000000000000000815260040160405180910390fd5b5f611ee583838080601f0160208091040260200160405190810160405280939291908181526020018383808284375f81840152601f19601f8201169050808301925050505050505060028054611e63906136ee565b80601f0160208091040260200160405190810160405280929190818152602001828054611e8f906136ee565b8015611eda5780601f10611eb157610100808354040283529160200191611eda565b820191905f5260205f20905b815481529060010190602001808311611ebd57829003601f168201915b50505050508661213f565b905080611f1e576040517fd495b61600000000000000000000000000000000000000000000000000000000815260040160405180910390fd5b50505050565b611f2c61210e565b73ffffffffffffffffffffffffffffffffffffffff16611f4a611638565b73ffffffffffffffffffffffffffffffffffffffff1614611fa957611f6d61210e565b6040517f118cdaa7000000000000000000000000000000000000000000000000000000008152600401611fa09190612e62565b60405180910390fd5b565b5f60098054905003611fc4576001600781905550611ff4565b6003600280600980549050611fd99190613c9a565b611fe39190613cdb565b611fed9190613d3b565b6007819055505b565b5f5f608067ffffffffffffffff81111561201357612012613350565b5b6040519080825280601f01601f1916602001820160405280156120455781602001600182028036833780820191505090505b5090505f818260405160200161205c929190613d9b565b60405160208183030381529060405290505f600b73ffffffffffffffffffffffffffffffffffffffff16826040516120949190613dbe565b5f60405180830381855afa9150503d805f81146120cc576040519150601f19603f3d011682016040523d82523d5f602084013e6120d1565b606091505b5050905080935050505090565b60015f6101000a81549073ffffffffffffffffffffffffffffffffffffffff021916905561210b816122e8565b50565b5f33905090565b5f5f5f5f61212386866123a9565b92509250925061213382826123fe565b82935050505092915050565b5f608084511461217b576040517fec19c2c100000000000000000000000000000000000000000000000000000000815260040160405180910390fd5b6101008351146121b7576040517f6211cf4500000000000000000000000000000000000000000000000000000000815260040160405180910390fd5b5f6121c183612560565b90505f6121cd82612674565b90505f866040518061012001604052806101008152602001614091610100913983886040516020016122029493929190613dd4565b60405160208183030381529060405290505f5f601173ffffffffffffffffffffffffffffffffffffffff168360405161223b9190613dbe565b5f60405180830381855afa9150503d805f8114612273576040519150601f19603f3d011682016040523d82523d5f602084013e612278565b606091505b509150915081158061228c57506020815114155b156122c3576040517f6df788d200000000000000000000000000000000000000000000000000000000815260040160405180910390fd5b6001818060200190518101906122d99190613e25565b14955050505050509392505050565b5f5f5f9054906101000a900473ffffffffffffffffffffffffffffffffffffffff169050815f5f6101000a81548173ffffffffffffffffffffffffffffffffffffffff021916908373ffffffffffffffffffffffffffffffffffffffff1602179055508173ffffffffffffffffffffffffffffffffffffffff168173ffffffffffffffffffffffffffffffffffffffff167f8be0079c531659141344cd1fd0a4f28419497f9722a3daafe3b4186f6b6457e060405160405180910390a35050565b5f5f5f60418451036123e9575f5f5f602087015192506040870151915060608701515f1a90506123db88828585612915565b9550955095505050506123f7565b5f600285515f1b9250925092505b9250925092565b5f600381111561241157612410613e50565b5b82600381111561242457612423613e50565b5b031561255c576001600381111561243e5761243d613e50565b5b82600381111561245157612450613e50565b5b03612488576040517ff645eedf00000000000000000000000000000000000000000000000000000000815260040160405180910390fd5b6002600381111561249c5761249b613e50565b5b8260038111156124af576124ae613e50565b5b036124f357805f1c6040517ffce698f70000000000000000000000000000000000000000000000000000000081526004016124ea9190612c80565b60405180910390fd5b60038081111561250657612505613e50565b5b82600381111561251957612518613e50565b5b0361255b57806040517fd78bce0c0000000000000000000000000000000000000000000000000000000081526004016125529190612c4f565b60405180910390fd5b5b5050565b60605f604067ffffffffffffffff81111561257e5761257d613350565b5b6040519080825280601f01601f1916602001820160405280156125b05781602001600182028036833780820191505090505b5090508260408201525f5f601273ffffffffffffffffffffffffffffffffffffffff16836040516125e19190613dbe565b5f60405180830381855afa9150503d805f8114612619576040519150601f19603f3d011682016040523d82523d5f602084013e61261e565b606091505b509150915081158061263257506080815114155b15612669576040517f4ed07c3f00000000000000000000000000000000000000000000000000000000815260040160405180910390fd5b809350505050919050565b606060808251146126ba576040517f08c379a00000000000000000000000000000000000000000000000000000000081526004016126b190613ec7565b60405180910390fd5b5f604051806060016040528060408152602001614191604091399050608067ffffffffffffffff8111156126f1576126f0613350565b5b6040519080825280601f01601f1916602001820160405280156127235781602001600182028036833780820191505090505b5091505f5f90505b60408110156127a0578381815181106127475761274661337d565b5b602001015160f81c60f81b8382815181106127655761276461337d565b5b60200101907effffffffffffffffffffffffffffffffffffffffffffffffffffffffffffff191690815f1a905350808060010191505061272b565b505f604067ffffffffffffffff8111156127bd576127bc613350565b5b6040519080825280601f01601f1916602001820160405280156127ef5781602001600182028036833780820191505090505b5090505f5f90505b6040811015612878578481604061280e9190613cdb565b8151811061281f5761281e61337d565b5b602001015160f81c60f81b82828151811061283d5761283c61337d565b5b60200101907effffffffffffffffffffffffffffffffffffffffffffffffffffffffffffff191690815f1a90535080806001019150506127f7565b505f61288483836129fc565b90505f5f90505b604081101561290c578181815181106128a7576128a661337d565b5b602001015160f81c60f81b858260406128c09190613cdb565b815181106128d1576128d061337d565b5b60200101907effffffffffffffffffffffffffffffffffffffffffffffffffffffffffffff191690815f1a905350808060010191505061288b565b50505050919050565b5f5f5f7f7fffffffffffffffffffffffffffffff5d576e7357a4501ddfe92f46681b20a0845f1c1115612951575f6003859250925092506129f2565b5f6001888888886040515f81526020016040526040516129749493929190613f00565b6020604051602081039080840390855afa158015612994573d5f5f3e3d5ffd5b5050506020604051035190505f73ffffffffffffffffffffffffffffffffffffffff168173ffffffffffffffffffffffffffffffffffffffff16036129e5575f60015f5f1b935093509350506129f2565b805f5f5f1b935093509350505b9450945094915050565b606060408351148015612a10575060408251145b612a4f576040517f08c379a0000000000000000000000000000000000000000000000000000000008152600401612a4690613f8d565b60405180910390fd5b604067ffffffffffffffff811115612a6a57612a69613350565b5b6040519080825280601f01601f191660200182016040528015612a9c5781602001600182028036833780820191505090505b5090505f5f90505f604090505b5f811115612bb6575f8285600184612ac19190613568565b81518110612ad257612ad161337d565b5b602001015160f81c60f81b60f81c60ff1687600185612af19190613568565b81518110612b0257612b0161337d565b5b602001015160f81c60f81b60f81c60ff16612b1d9190613fb7565b612b279190613fb7565b90505f8160010b1215612b4d5761010081612b429190614010565b905060019250612b51565b5f92505b8060f81b84600184612b639190613568565b81518110612b7457612b7361337d565b5b60200101907effffffffffffffffffffffffffffffffffffffffffffffffffffffffffffff191690815f1a905350508080612bae90614069565b915050612aa9565b505092915050565b5f604051905090565b5f5ffd5b5f5ffd5b5f67ffffffffffffffff82169050919050565b612beb81612bcf565b8114612bf5575f5ffd5b50565b5f81359050612c0681612be2565b92915050565b5f60208284031215612c2157612c20612bc7565b5b5f612c2e84828501612bf8565b91505092915050565b5f819050919050565b612c4981612c37565b82525050565b5f602082019050612c625f830184612c40565b92915050565b5f819050919050565b612c7a81612c68565b82525050565b5f602082019050612c935f830184612c71565b92915050565b612ca281612c37565b8114612cac575f5ffd5b50565b5f81359050612cbd81612c99565b92915050565b5f5ffd5b5f5ffd5b5f5ffd5b5f5f83601f840112612ce457612ce3612cc3565b5b8235905067ffffffffffffffff811115612d0157612d00612cc7565b5b602083019150836020820283011115612d1d57612d1c612ccb565b5b9250929050565b5f5f5f5f5f5f5f60c0888a031215612d3f57612d3e612bc7565b5b5f612d4c8a828b01612bf8565b9750506020612d5d8a828b01612caf565b9650506040612d6e8a828b01612caf565b9550506060612d7f8a828b01612caf565b9450506080612d908a828b01612bf8565b93505060a088013567ffffffffffffffff811115612db157612db0612bcb565b5b612dbd8a828b01612ccf565b925092505092959891949750929550565b612dd781612c68565b8114612de1575f5ffd5b50565b5f81359050612df281612dce565b92915050565b5f60208284031215612e0d57612e0c612bc7565b5b5f612e1a84828501612de4565b91505092915050565b5f73ffffffffffffffffffffffffffffffffffffffff82169050919050565b5f612e4c82612e23565b9050919050565b612e5c81612e42565b82525050565b5f602082019050612e755f830184612e53565b92915050565b612e8481612e42565b8114612e8e575f5ffd5b50565b5f81359050612e9f81612e7b565b92915050565b5f60208284031215612eba57612eb9612bc7565b5b5f612ec784828501612e91565b91505092915050565b5f5f83601f840112612ee557612ee4612cc3565b5b8235905067ffffffffffffffff811115612f0257612f01612cc7565b5b602083019150836001820283011115612f1e57612f1d612ccb565b5b9250929050565b5f5f5f5f5f60608688031215612f3e57612f3d612bc7565b5b5f612f4b88828901612bf8565b955050602086013567ffffffffffffffff811115612f6c57612f6b612bcb565b5b612f7888828901612ed0565b9450945050604086013567ffffffffffffffff811115612f9b57612f9a612bcb565b5b612fa788828901612ed0565b92509250509295509295909350565b5f8115159050919050565b612fca81612fb6565b8114612fd4575f5ffd5b50565b5f81359050612fe581612fc1565b92915050565b5f6020828403121561300057612fff612bc7565b5b5f61300d84828501612fd7565b91505092915050565b61301f81612bcf565b82525050565b5f6020820190506130385f830184613016565b92915050565b5f5f6020838503121561305457613053612bc7565b5b5f83013567ffffffffffffffff81111561307157613070612bcb565b5b61307d85828601612ed0565b92509250509250929050565b5f81519050919050565b5f82825260208201905092915050565b8281835e5f83830152505050565b5f601f19601f8301169050919050565b5f6130cb82613089565b6130d58185613093565b93506130e58185602086016130a3565b6130ee816130b1565b840191505092915050565b5f6020820190508181035f83015261311181846130c1565b905092915050565b5f5f5f5f5f5f5f60c0888a03121561313457613133612bc7565b5b5f6131418a828b01612bf8565b97505060206131528a828b01612caf565b96505060406131638a828b01612caf565b95505060606131748a828b01612caf565b94505060806131858a828b01612bf8565b93505060a088013567ffffffffffffffff8111156131a6576131a5612bcb565b5b6131b28a828b01612ed0565b925092505092959891949750929550565b6131cc81612fb6565b82525050565b5f6020820190506131e55f8301846131c3565b92915050565b5f5f5f5f5f6060868803121561320457613203612bc7565b5b5f61321188828901612bf8565b955050602086013567ffffffffffffffff81111561323257613231612bcb565b5b61323e88828901612ed0565b9450945050604086013567ffffffffffffffff81111561326157613260612bcb565b5b61326d88828901612ccf565b92509250509295509295909350565b5f819050919050565b61329661329182612c37565b61327c565b82525050565b5f8160c01b9050919050565b5f6132b28261329c565b9050919050565b6132ca6132c582612bcf565b6132a8565b82525050565b5f6132db828a613285565b6020820191506132eb82896132b9565b6008820191506132fb82886132b9565b60088201915061330b8287613285565b60208201915061331b8286613285565b60208201915061332b8285613285565b60208201915061333b82846132b9565b60088201915081905098975050505050505050565b7f4e487b71000000000000000000000000000000000000000000000000000000005f52604160045260245ffd5b7f4e487b71000000000000000000000000000000000000000000000000000000005f52603260045260245ffd5b5f5ffd5b5f5ffd5b5f5ffd5b5f5f833560016020038436030381126133d2576133d16133aa565b5b80840192508235915067ffffffffffffffff8211156133f4576133f36133ae565b5b6020830192506001820236038313156134105761340f6133b2565b5b509250929050565b5f82825260208201905092915050565b7f424c53206d6f646520657870656374732073696e676c652061676772656761745f8201527f6564207369676e61747572650000000000000000000000000000000000000000602082015250565b5f613482602c83613418565b915061348d82613428565b604082019050919050565b5f6020820190508181035f8301526134af81613476565b9050919050565b5f6134c182886132b9565b6008820191506134d18287613285565b6020820191506134e18286613285565b6020820191506134f18285613285565b60208201915061350182846132b9565b6008820191508190509695505050505050565b5f6040820190506135275f830185612c40565b6135346020830184612c40565b9392505050565b7f4e487b71000000000000000000000000000000000000000000000000000000005f52601160045260245ffd5b5f61357282612c68565b915061357d83612c68565b92508282039050818111156135955761359461353b565b5b92915050565b7f4e487b71000000000000000000000000000000000000000000000000000000005f52603160045260245ffd5b7f45706f6368206d75737420696e637265617365000000000000000000000000005f82015250565b5f6135fc601383613418565b9150613607826135c8565b602082019050919050565b5f6020820190508181035f830152613629816135f0565b9050919050565b5f81905092915050565b828183375f83830152505050565b5f6136538385613630565b935061366083858461363a565b82840190509392505050565b5f6136778288613285565b60208201915061368782876132b9565b60088201915061369782866132b9565b6008820191506136a8828486613648565b91508190509695505050505050565b5f82905092915050565b7f4e487b71000000000000000000000000000000000000000000000000000000005f52602260045260245ffd5b5f600282049050600182168061370557607f821691505b602082108103613718576137176136c1565b5b50919050565b5f819050815f5260205f209050919050565b5f6020601f8301049050919050565b5f82821b905092915050565b5f6008830261377a7fffffffffffffffffffffffffffffffffffffffffffffffffffffffffffffffff8261373f565b613784868361373f565b95508019841693508086168417925050509392505050565b5f819050919050565b5f6137bf6137ba6137b584612c68565b61379c565b612c68565b9050919050565b5f819050919050565b6137d8836137a5565b6137ec6137e4826137c6565b84845461374b565b825550505050565b5f5f905090565b6138036137f4565b61380e8184846137cf565b505050565b5b81811015613831576138265f826137fb565b600181019050613814565b5050565b601f821115613876576138478161371e565b61385084613730565b8101602085101561385f578190505b61387361386b85613730565b830182613813565b50505b505050565b5f82821c905092915050565b5f6138965f198460080261387b565b1980831691505092915050565b5f6138ae8383613887565b9150826002028217905092915050565b6138c883836136b7565b67ffffffffffffffff8111156138e1576138e0613350565b5b6138eb82546136ee565b6138f6828285613835565b5f601f831160018114613923575f8415613911578287013590505b61391b85826138a3565b865550613982565b601f1984166139318661371e565b5f5b8281101561395857848901358255600182019150602085019450602081019050613933565b868310156139755784890135613971601f891682613887565b8355505b6001600288020188555050505b50505050505050565b5f6139968385613093565b93506139a383858461363a565b6139ac836130b1565b840190509392505050565b5f6020820190508181035f8301526139d081848661398b565b90509392505050565b6139e2826130b1565b810181811067ffffffffffffffff82111715613a0157613a00613350565b5b80604052505050565b5f613a13612bbe565b9050613a1f82826139d9565b919050565b5f67ffffffffffffffff821115613a3e57613a3d613350565b5b602082029050602081019050919050565b5f5ffd5b5f67ffffffffffffffff821115613a6d57613a6c613350565b5b613a76826130b1565b9050602081019050919050565b5f613a95613a9084613a53565b613a0a565b905082815260208101848484011115613ab157613ab0613a4f565b5b613abc84828561363a565b509392505050565b5f82601f830112613ad857613ad7612cc3565b5b8135613ae8848260208601613a83565b91505092915050565b5f613b03613afe84613a24565b613a0a565b90508083825260208201905060208402830185811115613b2657613b25612ccb565b5b835b81811015613b6d57803567ffffffffffffffff811115613b4b57613b4a612cc3565b5b808601613b588982613ac4565b85526020850194505050602081019050613b28565b5050509392505050565b5f82601f830112613b8b57613b8a612cc3565b5b8135613b9b848260208601613af1565b91505092915050565b5f60208284031215613bb957613bb8612bc7565b5b5f82013567ffffffffffffffff811115613bd657613bd5612bcb565b5b613be284828501613b77565b91505092915050565b7f5369676e617475726573206e6f7420736f7274656400000000000000000000005f82015250565b5f613c1f601583613418565b9150613c2a82613beb565b602082019050919050565b5f6020820190508181035f830152613c4c81613c13565b9050919050565b5f613c5d82612c68565b91507fffffffffffffffffffffffffffffffffffffffffffffffffffffffffffffffff8203613c8f57613c8e61353b565b5b600182019050919050565b5f613ca482612c68565b9150613caf83612c68565b9250828202613cbd81612c68565b91508282048414831517613cd457613cd361353b565b5b5092915050565b5f613ce582612c68565b9150613cf083612c68565b9250828201905080821115613d0857613d0761353b565b5b92915050565b7f4e487b71000000000000000000000000000000000000000000000000000000005f52601260045260245ffd5b5f613d4582612c68565b9150613d5083612c68565b925082613d6057613d5f613d0e565b5b828204905092915050565b5f613d7582613089565b613d7f8185613630565b9350613d8f8185602086016130a3565b80840191505092915050565b5f613da68285613d6b565b9150613db28284613d6b565b91508190509392505050565b5f613dc98284613d6b565b915081905092915050565b5f613ddf8287613d6b565b9150613deb8286613d6b565b9150613df78285613d6b565b9150613e038284613d6b565b915081905095945050505050565b5f81519050613e1f81612dce565b92915050565b5f60208284031215613e3a57613e39612bc7565b5b5f613e4784828501613e11565b91505092915050565b7f4e487b71000000000000000000000000000000000000000000000000000000005f52602160045260245ffd5b7f496e76616c696420473120706f696e74206c656e6774680000000000000000005f82015250565b5f613eb1601783613418565b9150613ebc82613e7d565b602082019050919050565b5f6020820190508181035f830152613ede81613ea5565b9050919050565b5f60ff82169050919050565b613efa81613ee5565b82525050565b5f608082019050613f135f830187612c40565b613f206020830186613ef1565b613f2d6040830185612c40565b613f3a6060830184612c40565b95945050505050565b7f496e76616c6964206f706572616e64206c656e677468000000000000000000005f82015250565b5f613f77601683613418565b9150613f8282613f43565b602082019050919050565b5f6020820190508181035f830152613fa481613f6b565b9050919050565b5f8160010b9050919050565b5f613fc182613fab565b9150613fcc83613fab565b92508282039050617fff81137fffffffffffffffffffffffffffffffffffffffffffffffffffffffffffff80008212171561400a5761400961353b565b5b92915050565b5f61401a82613fab565b915061402583613fab565b925082820190507fffffffffffffffffffffffffffffffffffffffffffffffffffffffffffff80008112617fff821317156140635761406261353b565b5b92915050565b5f61407382612c68565b91505f82036140855761408461353b565b5b60018203905091905056fe00000000000000000000000000000000024aa2b2f08f0a91260805272dc51051c6e47ad4fa403b02b4510b647ae3d1770bac0326a805bbefd48056c8c121bdb80000000000000000000000000000000013e02b6052719f607dacd3a088274f65596bd0d09920b61ab5da61bbdc7f5049334cf11213945d57e5ac7d055d042b7e00000000000000000000000000000000ce5d527727d6e118cc9cdc6da2e351aadfd9baa8cbdd3a76d429a695160d12c923ac9cc3baca289e193548608b828010000000000000000000000000000000000606c4a02ea734cc32acd2b02bc28b99cb3e287e85a763af267492ab572e99ab3f370d275cec1da1aaa9075ff05f79be000000000000000000000000000000001a0111ea397fe69a4b1ba7b6434bacd764774b84f38512bf6730d2a0f6b0f6241eabfffeb153ffffb9feffffffffaaaba26469706673582212206d93a6eafebc2dfa75d8c8f664fefaf30766c85e27129c4291d76a7b7768b68b64736f6c634300081c0033","linkReferences":{}},"methodIdentifiers":{"HEADER_DOMAIN()":"79732fbc","ROTATION_DOMAIN()":"9e39bbfd","acceptOwnership()":"79ba5097","addValidator(address)":"4d238c8e","blsPublicKey()":"79c4473a","currentEpoch()":"76671808","currentPublicKey()":"d0deef17","getReceiptsRoot(uint64)":"0c6038ed","headerHashes(uint64)":"cc54ebf7","isBLSAvailable()":"d49efac0","isHeaderFinalized(uint64)":"c83eacc2","isValidator(address)":"facd743b","latestFinalizedHeight()":"a09d3879","owner()":"8da5cb5b","pendingOwner()":"e30c3978","receiptsRoots(uint64)":"c06b35b0","removeValidator(address)":"40a141ff","renounceOwnership()":"715018a6","setBLSPublicKey(bytes)":"6bbe869d","setSignatureMode(bool)":"472efe38","submitBLSKeyRotation(uint64,bytes,bytes)":"44954b4a","submitHeader(uint64,bytes32,bytes32,bytes32,uint64,bytes)":"860af5e6","submitHeader(uint64,bytes32,bytes32,bytes32,uint64,bytes[])":"22504a85","submitKeyRotation(uint64,bytes,bytes[])":"e0226760","tempoChainId()":"548bed75","threshold()":"42cde4e8","transferOwnership(address)":"f2fde38b","useEcdsaMode()":"e539ed17","validatorCount()":"0f43a677","validators(uint256)":"35aa2e44"},"id":42}