{"abi":[{"type":"constructor","inputs":[{"name":"_tempoChainId","type":"uint64","internalType":"uint64"},{"name":"_initialEpoch","type":"uint64","internalType":"uint64"}],"stateMutability":"nonpayable"},{"type":"function","name":"HEADER_DOMAIN","inputs":[],"outputs":[{"name":"","type":"bytes32","internalType":"bytes32"}],"stateMutability":"view"},{"type":"function","name":"ROTATION_DOMAIN","inputs":[],"outputs":[{"name":"","type":"bytes32","internalType":"bytes32"}],"stateMutability":"view"},{"type":"function","name":"acceptOwnership","inputs":[],"outputs":[],"stateMutability":"nonpayable"},{"type":"function","name":"addValidator","inputs":[{"name":"validator","type":"address","internalType":"address"}],"outputs":[],"stateMutability":"nonpayable"},{"type":"function","name":"blsPublicKey","inputs":[],"outputs":[{"name":"","type":"bytes","internalType":"bytes"}],"stateMutability":"view"},{"type":"function","name":"currentEpoch","inputs":[],"outputs":[{"name":"","type":"uint64","internalType":"uint64"}],"stateMutability":"view"},{"type":"function","name":"currentPublicKey","inputs":[],"outputs":[{"name":"","type":"bytes","internalType":"bytes"}],"stateMutability":"view"},{"type":"function","name":"getReceiptsRoot","inputs":[{"name":"height","type":"uint64","internalType":"uint64"}],"outputs":[{"name":"","type":"bytes32","internalType":"bytes32"}],"stateMutability":"view"},{"type":"function","name":"headerHashes","inputs":[{"name":"","type":"uint64","internalType":"uint64"}],"outputs":[{"name":"","type":"bytes32","internalType":"bytes32"}],"stateMutability":"view"},{"type":"function","name":"isBLSAvailable","inputs":[],"outputs":[{"name":"","type":"bool","internalType":"bool"}],"stateMutability":"view"},{"type":"function","name":"isHeaderFinalized","inputs":[{"name":"height","type":"uint64","internalType":"uint64"}],"outputs":[{"name":"","type":"bool","internalType":"bool"}],"stateMutability":"view"},{"type":"function","name":"isValidator","inputs":[{"name":"","type":"address","internalType":"address"}],"outputs":[{"name":"","type":"bool","internalType":"bool"}],"stateMutability":"view"},{"type":"function","name":"latestFinalizedHeight","inputs":[],"outputs":[{"name":"","type":"uint64","internalType":"uint64"}],"stateMutability":"view"},{"type":"function","name":"owner","inputs":[],"outputs":[{"name":"","type":"address","internalType":"address"}],"stateMutability":"view"},{"type":"function","name":"pendingOwner","inputs":[],"outputs":[{"name":"","type":"address","internalType":"address"}],"stateMutability":"view"},{"type":"function","name":"receiptsRoots","inputs":[{"name":"","type":"uint64","internalType":"uint64"}],"outputs":[{"name":"","type":"bytes32","internalType":"bytes32"}],"stateMutability":"view"},{"type":"function","name":"removeValidator","inputs":[{"name":"validator","type":"address","internalType":"address"}],"outputs":[],"stateMutability":"nonpayable"},{"type":"function","name":"renounceOwnership","inputs":[],"outputs":[],"stateMutability":"nonpayable"},{"type":"function","name":"setBLSPublicKey","inputs":[{"name":"_blsPublicKey","type":"bytes","internalType":"bytes"}],"outputs":[],"stateMutability":"nonpayable"},{"type":"function","name":"setSignatureMode","inputs":[{"name":"_useEcdsaMode","type":"bool","internalType":"bool"}],"outputs":[],"stateMutability":"nonpayable"},{"type":"function","name":"submitBLSKeyRotation","inputs":[{"name":"newEpoch","type":"uint64","internalType":"uint64"},{"name":"newBLSPublicKey","type":"bytes","internalType":"bytes"},{"name":"blsSignature","type":"bytes","internalType":"bytes"}],"outputs":[],"stateMutability":"nonpayable"},{"type":"function","name":"submitHeader","inputs":[{"name":"height","type":"uint64","internalType":"uint64"},{"name":"parentHash","type":"bytes32","internalType":"bytes32"},{"name":"stateRoot","type":"bytes32","internalType":"bytes32"},{"name":"receiptsRoot","type":"bytes32","internalType":"bytes32"},{"name":"epoch","type":"uint64","internalType":"uint64"},{"name":"signatures","type":"bytes[]","internalType":"bytes[]"}],"outputs":[],"stateMutability":"nonpayable"},{"type":"function","name":"submitHeader","inputs":[{"name":"height","type":"uint64","internalType":"uint64"},{"name":"parentHash","type":"bytes32","internalType":"bytes32"},{"name":"stateRoot","type":"bytes32","internalType":"bytes32"},{"name":"receiptsRoot","type":"bytes32","internalType":"bytes32"},{"name":"epoch","type":"uint64","internalType":"uint64"},{"name":"signature","type":"bytes","internalType":"bytes"}],"outputs":[],"stateMutability":"nonpayable"},{"type":"function","name":"submitKeyRotation","inputs":[{"name":"newEpoch","type":"uint64","internalType":"uint64"},{"name":"newPublicKey","type":"bytes","internalType":"bytes"},{"name":"signatures","type":"bytes[]","internalType":"bytes[]"}],"outputs":[],"stateMutability":"nonpayable"},{"type":"function","name":"tempoChainId","inputs":[],"outputs":[{"name":"","type":"uint64","internalType":"uint64"}],"stateMutability":"view"},{"type":"function","name":"threshold","inputs":[],"outputs":[{"name":"","type":"uint256","internalType":"uint256"}],"stateMutability":"view"},{"type":"function","name":"transferOwnership","inputs":[{"name":"newOwner","type":"address","internalType":"address"}],"outputs":[],"stateMutability":"nonpayable"},{"type":"function","name":"useEcdsaMode","inputs":[],"outputs":[{"name":"","type":"bool","internalType":"bool"}],"stateMutability":"view"},{"type":"function","name":"validatorCount","inputs":[],"outputs":[{"name":"","type":"uint256","internalType":"uint256"}],"stateMutability":"view"},{"type":"function","name":"validators","inputs":[{"name":"","type":"uint256","internalType":"uint256"}],"outputs":[{"name":"","type":"address","internalType":"address"}],"stateMutability":"view"},{"type":"event","name":"BLSPublicKeyUpdated","inputs":[{"name":"epoch","type":"uint64","indexed":true,"internalType":"uint64"},{"name":"blsKey","type":"bytes","indexed":false,"internalType":"bytes"}],"anonymous":false},{"type":"event","name":"HeaderSubmitted","inputs":[{"name":"height","type":"uint64","indexed":true,"internalType":"uint64"},{"name":"headerHash","type":"bytes32","indexed":false,"internalType":"bytes32"},{"name":"receiptsRoot","type":"bytes32","indexed":false,"internalType":"bytes32"}],"anonymous":false},{"type":"event","name":"KeyRotated","inputs":[{"name":"newEpoch","type":"uint64","indexed":true,"internalType":"uint64"},{"name":"newPublicKey","type":"bytes","indexed":false,"internalType":"bytes"}],"anonymous":false},{"type":"event","name":"OwnershipTransferStarted","inputs":[{"name":"previousOwner","type":"address","indexed":true,"internalType":"address"},{"name":"newOwner","type":"address","indexed":true,"internalType":"address"}],"anonymous":false},{"type":"event","name":"OwnershipTransferred","inputs":[{"name":"previousOwner","type":"address","indexed":true,"internalType":"address"},{"name":"newOwner","type":"address","indexed":true,"internalType":"address"}],"anonymous":false},{"type":"event","name":"SignatureModeChanged","inputs":[{"name":"useEcdsa","type":"bool","indexed":false,"internalType":"bool"}],"anonymous":false},{"type":"event","name":"ValidatorAdded","inputs":[{"name":"validator","type":"address","indexed":true,"internalType":"address"}],"anonymous":false},{"type":"event","name":"ValidatorRemoved","inputs":[{"name":"validator","type":"address","indexed":true,"internalType":"address"}],"anonymous":false},{"type":"error","name":"BLSHashToG1Failed","inputs":[]},{"type":"error","name":"BLSInvalidPublicKeyLength","inputs":[]},{"type":"error","name":"BLSInvalidSignatureLength","inputs":[]},{"type":"error","name":"BLSPrecompileCallFailed","inputs":[]},{"type":"error","name":"BLSPrecompilesNotAvailable","inputs":[]},{"type":"error","name":"BLSVerificationFailed","inputs":[]},{"type":"error","name":"ECDSAInvalidSignature","inputs":[]},{"type":"error","name":"ECDSAInvalidSignatureLength","inputs":[{"name":"length","type":"uint256","internalType":"uint256"}]},{"type":"error","name":"ECDSAInvalidSignatureS","inputs":[{"name":"s","type":"bytes32","internalType":"bytes32"}]},{"type":"error","name":"HeightNotMonotonic","inputs":[]},{"type":"error","name":"InvalidBLSPublicKeyLength","inputs":[]},{"type":"error","name":"InvalidBLSSignatureLength","inputs":[]},{"type":"error","name":"InvalidParentHash","inputs":[]},{"type":"error","name":"InvalidSignature","inputs":[]},{"type":"error","name":"InvalidSignatureCount","inputs":[]},{"type":"error","name":"OwnableInvalidOwner","inputs":[{"name":"owner","type":"address","internalType":"address"}]},{"type":"error","name":"OwnableUnauthorizedAccount","inputs":[{"name":"account","type":"address","internalType":"address"}]},{"type":"error","name":"ThresholdNotMet","inputs":[]},{"type":"error","name":"ValidatorExists","inputs":[]},{"type":"error","name":"ValidatorNotFound","inputs":[]}],"bytecode":{"object":"0x60a060405234801562000010575f80fd5b506040516200456338038062004563833981810160405281019062000036919062000262565b335f73ffffffffffffffffffffffffffffffffffffffff168173ffffffffffffffffffffffffffffffffffffffff1603620000aa575f6040517f1e4fbdf7000000000000000000000000000000000000000000000000000000008152600401620000a19190620002ea565b60405180910390fd5b620000bb816200012360201b60201c565b508167ffffffffffffffff1660808167ffffffffffffffff168152505080600160146101000a81548167ffffffffffffffff021916908367ffffffffffffffff160217905550600160065f6101000a81548160ff021916908315150217905550505062000305565b60015f6101000a81549073ffffffffffffffffffffffffffffffffffffffff021916905562000158816200015b60201b60201c565b50565b5f805f9054906101000a900473ffffffffffffffffffffffffffffffffffffffff169050815f806101000a81548173ffffffffffffffffffffffffffffffffffffffff021916908373ffffffffffffffffffffffffffffffffffffffff1602179055508173ffffffffffffffffffffffffffffffffffffffff168173ffffffffffffffffffffffffffffffffffffffff167f8be0079c531659141344cd1fd0a4f28419497f9722a3daafe3b4186f6b6457e060405160405180910390a35050565b5f80fd5b5f67ffffffffffffffff82169050919050565b6200023e8162000220565b811462000249575f80fd5b50565b5f815190506200025c8162000233565b92915050565b5f80604083850312156200027b576200027a6200021c565b5b5f6200028a858286016200024c565b92505060206200029d858286016200024c565b9150509250929050565b5f73ffffffffffffffffffffffffffffffffffffffff82169050919050565b5f620002d282620002a7565b9050919050565b620002e481620002c6565b82525050565b5f602082019050620002ff5f830184620002d9565b92915050565b6080516142296200033a5f395f818161071901528181610db40152818161111d015281816114ad015261182901526142295ff3fe608060405234801561000f575f80fd5b50600436106101d8575f3560e01c806379c4473a11610102578063cc54ebf7116100a0578063e30c39781161006f578063e30c39781461050a578063e539ed1714610528578063f2fde38b14610546578063facd743b14610562576101d8565b8063cc54ebf714610482578063d0deef17146104b2578063d49efac0146104d0578063e0226760146104ee576101d8565b80639e39bbfd116100dc5780639e39bbfd146103e6578063a09d387914610404578063c06b35b014610422578063c83eacc214610452576101d8565b806379c4473a1461038e578063860af5e6146103ac5780638da5cb5b146103c8576101d8565b8063472efe381161017a578063715018a611610149578063715018a61461033e578063766718081461034857806379732fbc1461036657806379ba509714610384576101d8565b8063472efe38146102cc5780634d238c8e146102e8578063548bed75146103045780636bbe869d14610322576101d8565b806335aa2e44116101b657806335aa2e441461024657806340a141ff1461027657806342cde4e81461029257806344954b4a146102b0576101d8565b80630c6038ed146101dc5780630f43a6771461020c57806322504a851461022a575b5f80fd5b6101f660048036038101906101f19190612c18565b610592565b6040516102039190612c5b565b60405180910390f35b6102146105c0565b6040516102219190612c8c565b60405180910390f35b610244600480360381019061023f9190612d30565b6105cc565b005b610260600480360381019061025b9190612e04565b6109fb565b60405161026d9190612e6e565b60405180910390f35b610290600480360381019061028b9190612eb1565b610a36565b005b61029a610ce0565b6040516102a79190612c8c565b60405180910390f35b6102ca60048036038101906102c59190612f31565b610ce6565b005b6102e660048036038101906102e19190612ff7565b610eea565b005b61030260048036038101906102fd9190612eb1565b610f8f565b005b61030c61111b565b6040516103199190613031565b60405180910390f35b61033c6004803603810190610337919061304a565b61113f565b005b6103466111f5565b005b610350611208565b60405161035d9190613031565b60405180910390f35b61036e611222565b60405161037b9190612c5b565b60405180910390f35b61038c611246565b005b6103966112d4565b6040516103a3919061311f565b60405180910390f35b6103c660048036038101906103c1919061313f565b611360565b005b6103d061163e565b6040516103dd9190612e6e565b60405180910390f35b6103ee611665565b6040516103fb9190612c5b565b60405180910390f35b61040c611689565b6040516104199190613031565b60405180910390f35b61043c60048036038101906104379190612c18565b6116a2565b6040516104499190612c5b565b60405180910390f35b61046c60048036038101906104679190612c18565b6116b7565b60405161047991906131f8565b60405180910390f35b61049c60048036038101906104979190612c18565b6116ea565b6040516104a99190612c5b565b60405180910390f35b6104ba6116ff565b6040516104c7919061311f565b60405180910390f35b6104d861178b565b6040516104e591906131f8565b60405180910390f35b61050860048036038101906105039190613211565b611799565b005b610512611af4565b60405161051f9190612e6e565b60405180910390f35b610530611b1c565b60405161053d91906131f8565b60405180910390f35b610560600480360381019061055b9190612eb1565b611b2e565b005b61057c60048036038101906105779190612eb1565b611bda565b60405161058991906131f8565b60405180910390f35b5f60055f8367ffffffffffffffff1667ffffffffffffffff1681526020019081526020015f20549050919050565b5f600980549050905090565b60035f9054906101000a900467ffffffffffffffff1667ffffffffffffffff168767ffffffffffffffff161115801561062357505f60035f9054906101000a900467ffffffffffffffff1667ffffffffffffffff16115b1561065a576040517fae0c382600000000000000000000000000000000000000000000000000000000815260040160405180910390fd5b5f60035f9054906101000a900467ffffffffffffffff1667ffffffffffffffff1611156106f55760045f60035f9054906101000a900467ffffffffffffffff1667ffffffffffffffff1667ffffffffffffffff1681526020019081526020015f205486146106f4576040517f591c836700000000000000000000000000000000000000000000000000000000815260040160405180910390fd5b5b5f7fb7e5c549800b144fb8b534568f698ddeb69e84956c61706fee8fefdb813d3a8a7f0000000000000000000000000000000000000000000000000000000000000000898989898960405160200161075397969594939291906132f6565b60405160208183030381529060405280519060200120905060065f9054906101000a900460ff1615610889575f8383905067ffffffffffffffff81111561079d5761079c613376565b5b6040519080825280602002602001820160405280156107d057816020015b60608152602001906001900390816107bb5790505b5090505f5b84849050811015610878578484828181106107f3576107f26133a3565b5b905060200281019061080591906133dc565b8080601f0160208091040260200160405190810160405280939291908181526020018383808284375f81840152601f19601f8201169050808301925050505050505082828151811061085a576108596133a3565b5b602002602001018190525080806108709061346b565b9150506107d5565b506108838282611bf7565b506108fe565b600183839050146108cf576040517f08c379a00000000000000000000000000000000000000000000000000000000081526004016108c690613532565b60405180910390fd5b6108fd8184845f8181106108e6576108e56133a3565b5b90506020028101906108f891906133dc565b611d8e565b5b5f8888888888604051602001610918959493929190613550565b6040516020818303038152906040528051906020012090508060045f8b67ffffffffffffffff1667ffffffffffffffff1681526020019081526020015f20819055508560055f8b67ffffffffffffffff1667ffffffffffffffff1681526020019081526020015f20819055508860035f6101000a81548167ffffffffffffffff021916908367ffffffffffffffff1602179055508867ffffffffffffffff167f2993dbc1bc5a75fad02580d988d66672fb97594b89f81503088f9e1f66e21c0482886040516109e89291906135ae565b60405180910390a2505050505050505050565b60098181548110610a0a575f80fd5b905f5260205f20015f915054906101000a900473ffffffffffffffffffffffffffffffffffffffff1681565b610a3e611f2a565b60085f8273ffffffffffffffffffffffffffffffffffffffff1673ffffffffffffffffffffffffffffffffffffffff1681526020019081526020015f205f9054906101000a900460ff16610abe576040517f580e542f00000000000000000000000000000000000000000000000000000000815260040160405180910390fd5b5f60085f8373ffffffffffffffffffffffffffffffffffffffff1673ffffffffffffffffffffffffffffffffffffffff1681526020019081526020015f205f6101000a81548160ff0219169083151502179055505f5b600980549050811015610c91578173ffffffffffffffffffffffffffffffffffffffff1660098281548110610b4c57610b4b6133a3565b5b905f5260205f20015f9054906101000a900473ffffffffffffffffffffffffffffffffffffffff1673ffffffffffffffffffffffffffffffffffffffff1603610c7e5760096001600980549050610ba391906135d5565b81548110610bb457610bb36133a3565b5b905f5260205f20015f9054906101000a900473ffffffffffffffffffffffffffffffffffffffff1660098281548110610bf057610bef6133a3565b5b905f5260205f20015f6101000a81548173ffffffffffffffffffffffffffffffffffffffff021916908373ffffffffffffffffffffffffffffffffffffffff1602179055506009805480610c4757610c46613608565b5b600190038181905f5260205f20015f6101000a81549073ffffffffffffffffffffffffffffffffffffffff02191690559055610c91565b8080610c899061346b565b915050610b14565b50610c9a611fb1565b8073ffffffffffffffffffffffffffffffffffffffff167fe1434e25d6611e0db941968fdc97811c982ac1602e951637d206f5fdda9dd8f160405160405180910390a250565b60075481565b600160149054906101000a900467ffffffffffffffff1667ffffffffffffffff168567ffffffffffffffff1611610d52576040517f08c379a0000000000000000000000000000000000000000000000000000000008152600401610d499061367f565b60405180910390fd5b6101008484905014610d90576040517f7b7d6d1700000000000000000000000000000000000000000000000000000000815260040160405180910390fd5b5f7fe5af582cf3f77d10e5e9ea85538be744d6b61da44268eb68b35faaf4639edb647f0000000000000000000000000000000000000000000000000000000000000000878787604051602001610dea9594939291906136d9565b604051602081830303815290604052805190602001209050610e0d818484611d8e565b85600160146101000a81548167ffffffffffffffff021916908367ffffffffffffffff160217905550848460029182610e47929190613928565b508484600a9182610e59929190613928565b508567ffffffffffffffff167f48b3aa711887c5c9a4bc0f4bbf4b7dfe91a9d6528b3dfc328a21ed26fc335fa58686604051610e96929190613a21565b60405180910390a28567ffffffffffffffff167f372ab7c5944f1577c45b82904b419a4cd3bd305b60b2d062228a90aa641a5bd38686604051610eda929190613a21565b60405180910390a2505050505050565b610ef2611f2a565b80158015610f055750610f03611ffc565b155b15610f3c576040517fd5313b2b00000000000000000000000000000000000000000000000000000000815260040160405180910390fd5b8060065f6101000a81548160ff0219169083151502179055507fb1ad7aeba0be5ac6144392b92e31727e4f376c05eac1d9d6c8183be2fa70dff781604051610f8491906131f8565b60405180910390a150565b610f97611f2a565b60085f8273ffffffffffffffffffffffffffffffffffffffff1673ffffffffffffffffffffffffffffffffffffffff1681526020019081526020015f205f9054906101000a900460ff1615611018576040517f7e9b8fa600000000000000000000000000000000000000000000000000000000815260040160405180910390fd5b600160085f8373ffffffffffffffffffffffffffffffffffffffff1673ffffffffffffffffffffffffffffffffffffffff1681526020019081526020015f205f6101000a81548160ff021916908315150217905550600981908060018154018082558091505060019003905f5260205f20015f9091909190916101000a81548173ffffffffffffffffffffffffffffffffffffffff021916908373ffffffffffffffffffffffffffffffffffffffff1602179055506110d5611fb1565b8073ffffffffffffffffffffffffffffffffffffffff167fe366c1c0452ed8eec96861e9e54141ebff23c9ec89fe27b996b45f5ec388498760405160405180910390a250565b7f000000000000000000000000000000000000000000000000000000000000000081565b611147611f2a565b6101008282905014611185576040517f7b7d6d1700000000000000000000000000000000000000000000000000000000815260040160405180910390fd5b818160029182611196929190613928565b50600160149054906101000a900467ffffffffffffffff1667ffffffffffffffff167f48b3aa711887c5c9a4bc0f4bbf4b7dfe91a9d6528b3dfc328a21ed26fc335fa583836040516111e9929190613a21565b60405180910390a25050565b6111fd611f2a565b6112065f6120e4565b565b600160149054906101000a900467ffffffffffffffff1681565b7fb7e5c549800b144fb8b534568f698ddeb69e84956c61706fee8fefdb813d3a8a81565b5f61124f612114565b90508073ffffffffffffffffffffffffffffffffffffffff16611270611af4565b73ffffffffffffffffffffffffffffffffffffffff16146112c857806040517f118cdaa70000000000000000000000000000000000000000000000000000000081526004016112bf9190612e6e565b60405180910390fd5b6112d1816120e4565b50565b600280546112e19061375b565b80601f016020809104026020016040519081016040528092919081815260200182805461130d9061375b565b80156113585780601f1061132f57610100808354040283529160200191611358565b820191905f5260205f20905b81548152906001019060200180831161133b57829003601f168201915b505050505081565b60035f9054906101000a900467ffffffffffffffff1667ffffffffffffffff168767ffffffffffffffff16111580156113b757505f60035f9054906101000a900467ffffffffffffffff1667ffffffffffffffff16115b156113ee576040517fae0c382600000000000000000000000000000000000000000000000000000000815260040160405180910390fd5b5f60035f9054906101000a900467ffffffffffffffff1667ffffffffffffffff1611156114895760045f60035f9054906101000a900467ffffffffffffffff1667ffffffffffffffff1667ffffffffffffffff1681526020019081526020015f20548614611488576040517f591c836700000000000000000000000000000000000000000000000000000000815260040160405180910390fd5b5b5f7fb7e5c549800b144fb8b534568f698ddeb69e84956c61706fee8fefdb813d3a8a7f000000000000000000000000000000000000000000000000000000000000000089898989896040516020016114e797969594939291906132f6565b60405160208183030381529060405280519060200120905060065f9054906101000a900460ff1615611535575f83838101906115239190613c0e565b905061152f8282611bf7565b50611541565b611540818484611d8e565b5b5f888888888860405160200161155b959493929190613550565b6040516020818303038152906040528051906020012090508060045f8b67ffffffffffffffff1667ffffffffffffffff1681526020019081526020015f20819055508560055f8b67ffffffffffffffff1667ffffffffffffffff1681526020019081526020015f20819055508860035f6101000a81548167ffffffffffffffff021916908367ffffffffffffffff1602179055508867ffffffffffffffff167f2993dbc1bc5a75fad02580d988d66672fb97594b89f81503088f9e1f66e21c04828860405161162b9291906135ae565b60405180910390a2505050505050505050565b5f805f9054906101000a900473ffffffffffffffffffffffffffffffffffffffff16905090565b7fe5af582cf3f77d10e5e9ea85538be744d6b61da44268eb68b35faaf4639edb6481565b60035f9054906101000a900467ffffffffffffffff1681565b6005602052805f5260405f205f915090505481565b5f805f1b60045f8467ffffffffffffffff1667ffffffffffffffff1681526020019081526020015f205414159050919050565b6004602052805f5260405f205f915090505481565b600a805461170c9061375b565b80601f01602080910402602001604051908101604052809291908181526020018280546117389061375b565b80156117835780601f1061175a57610100808354040283529160200191611783565b820191905f5260205f20905b81548152906001019060200180831161176657829003601f168201915b505050505081565b5f611794611ffc565b905090565b600160149054906101000a900467ffffffffffffffff1667ffffffffffffffff168567ffffffffffffffff1611611805576040517f08c379a00000000000000000000000000000000000000000000000000000000081526004016117fc9061367f565b60405180910390fd5b5f7fe5af582cf3f77d10e5e9ea85538be744d6b61da44268eb68b35faaf4639edb647f000000000000000000000000000000000000000000000000000000000000000087878760405160200161185f9594939291906136d9565b60405160208183030381529060405280519060200120905060065f9054906101000a900460ff1615611995575f8383905067ffffffffffffffff8111156118a9576118a8613376565b5b6040519080825280602002602001820160405280156118dc57816020015b60608152602001906001900390816118c75790505b5090505f5b84849050811015611984578484828181106118ff576118fe6133a3565b5b905060200281019061191191906133dc565b8080601f0160208091040260200160405190810160405280939291908181526020018383808284375f81840152601f19601f82011690508083019250505050505050828281518110611966576119656133a3565b5b6020026020010181905250808061197c9061346b565b9150506118e1565b5061198f8282611bf7565b50611a0a565b600183839050146119db576040517f08c379a00000000000000000000000000000000000000000000000000000000081526004016119d290613532565b60405180910390fd5b611a098184845f8181106119f2576119f16133a3565b5b9050602002810190611a0491906133dc565b611d8e565b5b85600160146101000a81548167ffffffffffffffff021916908367ffffffffffffffff1602179055508484600a9182611a44929190613928565b506101008585905003611aa857848460029182611a62929190613928565b508567ffffffffffffffff167f48b3aa711887c5c9a4bc0f4bbf4b7dfe91a9d6528b3dfc328a21ed26fc335fa58686604051611a9f929190613a21565b60405180910390a25b8567ffffffffffffffff167f372ab7c5944f1577c45b82904b419a4cd3bd305b60b2d062228a90aa641a5bd38686604051611ae4929190613a21565b60405180910390a2505050505050565b5f60015f9054906101000a900473ffffffffffffffffffffffffffffffffffffffff16905090565b60065f9054906101000a900460ff1681565b611b36611f2a565b8060015f6101000a81548173ffffffffffffffffffffffffffffffffffffffff021916908373ffffffffffffffffffffffffffffffffffffffff1602179055508073ffffffffffffffffffffffffffffffffffffffff16611b9561163e565b73ffffffffffffffffffffffffffffffffffffffff167f38d16b8cac22d99fc7c124b9cd0de2d3fa1faef420bfe791d8c362d765e2270060405160405180910390a350565b6008602052805f5260405f205f915054906101000a900460ff1681565b60075481511015611c34576040517f59fa4a9300000000000000000000000000000000000000000000000000000000815260040160405180910390fd5b5f805f5b8351811015611d4b575f611c6686868481518110611c5957611c586133a3565b5b602002602001015161211b565b90508273ffffffffffffffffffffffffffffffffffffffff168173ffffffffffffffffffffffffffffffffffffffff1611611cd6576040517f08c379a0000000000000000000000000000000000000000000000000000000008152600401611ccd90613c9f565b60405180910390fd5b80925060085f8273ffffffffffffffffffffffffffffffffffffffff1673ffffffffffffffffffffffffffffffffffffffff1681526020019081526020015f205f9054906101000a900460ff1615611d37578380611d339061346b565b9450505b508080611d439061346b565b915050611c38565b50600754821015611d88576040517f59fa4a9300000000000000000000000000000000000000000000000000000000815260040160405180910390fd5b50505050565b60808282905014611dcb576040517fffa68d7c00000000000000000000000000000000000000000000000000000000815260040160405180910390fd5b61010060028054611ddb9061375b565b905014611e14576040517f7b7d6d1700000000000000000000000000000000000000000000000000000000815260040160405180910390fd5b5f611eeb83838080601f0160208091040260200160405190810160405280939291908181526020018383808284375f81840152601f19601f8201169050808301925050505050505060028054611e699061375b565b80601f0160208091040260200160405190810160405280929190818152602001828054611e959061375b565b8015611ee05780601f10611eb757610100808354040283529160200191611ee0565b820191905f5260205f20905b815481529060010190602001808311611ec357829003601f168201915b505050505086612145565b905080611f24576040517fd495b61600000000000000000000000000000000000000000000000000000000815260040160405180910390fd5b50505050565b611f32612114565b73ffffffffffffffffffffffffffffffffffffffff16611f5061163e565b73ffffffffffffffffffffffffffffffffffffffff1614611faf57611f73612114565b6040517f118cdaa7000000000000000000000000000000000000000000000000000000008152600401611fa69190612e6e565b60405180910390fd5b565b5f60098054905003611fca576001600781905550611ffa565b6003600280600980549050611fdf9190613cbd565b611fe99190613cfe565b611ff39190613d5e565b6007819055505b565b5f80608067ffffffffffffffff81111561201957612018613376565b5b6040519080825280601f01601f19166020018201604052801561204b5781602001600182028036833780820191505090505b5090505f8182604051602001612062929190613dbe565b60405160208183030381529060405290505f600b73ffffffffffffffffffffffffffffffffffffffff168260405161209a9190613de1565b5f60405180830381855afa9150503d805f81146120d2576040519150601f19603f3d011682016040523d82523d5f602084013e6120d7565b606091505b5050905080935050505090565b60015f6101000a81549073ffffffffffffffffffffffffffffffffffffffff0219169055612111816122ee565b50565b5f33905090565b5f805f8061212986866123af565b9250925092506121398282612404565b82935050505092915050565b5f6080845114612181576040517fec19c2c100000000000000000000000000000000000000000000000000000000815260040160405180910390fd5b6101008351146121bd576040517f6211cf4500000000000000000000000000000000000000000000000000000000815260040160405180910390fd5b5f6121c783612566565b90505f6121d38261267a565b90505f8660405180610120016040528061010081526020016140b4610100913983886040516020016122089493929190613df7565b60405160208183030381529060405290505f80601173ffffffffffffffffffffffffffffffffffffffff16836040516122419190613de1565b5f60405180830381855afa9150503d805f8114612279576040519150601f19603f3d011682016040523d82523d5f602084013e61227e565b606091505b509150915081158061229257506020815114155b156122c9576040517f6df788d200000000000000000000000000000000000000000000000000000000815260040160405180910390fd5b6001818060200190518101906122df9190613e48565b14955050505050509392505050565b5f805f9054906101000a900473ffffffffffffffffffffffffffffffffffffffff169050815f806101000a81548173ffffffffffffffffffffffffffffffffffffffff021916908373ffffffffffffffffffffffffffffffffffffffff1602179055508173ffffffffffffffffffffffffffffffffffffffff168173ffffffffffffffffffffffffffffffffffffffff167f8be0079c531659141344cd1fd0a4f28419497f9722a3daafe3b4186f6b6457e060405160405180910390a35050565b5f805f60418451036123ef575f805f602087015192506040870151915060608701515f1a90506123e188828585612924565b9550955095505050506123fd565b5f600285515f1b9250925092505b9250925092565b5f600381111561241757612416613e73565b5b82600381111561242a57612429613e73565b5b0315612562576001600381111561244457612443613e73565b5b82600381111561245757612456613e73565b5b0361248e576040517ff645eedf00000000000000000000000000000000000000000000000000000000815260040160405180910390fd5b600260038111156124a2576124a1613e73565b5b8260038111156124b5576124b4613e73565b5b036124f957805f1c6040517ffce698f70000000000000000000000000000000000000000000000000000000081526004016124f09190612c8c565b60405180910390fd5b60038081111561250c5761250b613e73565b5b82600381111561251f5761251e613e73565b5b0361256157806040517fd78bce0c0000000000000000000000000000000000000000000000000000000081526004016125589190612c5b565b60405180910390fd5b5b5050565b60605f604067ffffffffffffffff81111561258457612583613376565b5b6040519080825280601f01601f1916602001820160405280156125b65781602001600182028036833780820191505090505b5090508260408201525f80601273ffffffffffffffffffffffffffffffffffffffff16836040516125e79190613de1565b5f60405180830381855afa9150503d805f811461261f576040519150601f19603f3d011682016040523d82523d5f602084013e612624565b606091505b509150915081158061263857506080815114155b1561266f576040517f4ed07c3f00000000000000000000000000000000000000000000000000000000815260040160405180910390fd5b809350505050919050565b606060808251146126c0576040517f08c379a00000000000000000000000000000000000000000000000000000000081526004016126b790613eea565b60405180910390fd5b5f6040518060600160405280604081526020016141b4604091399050608067ffffffffffffffff8111156126f7576126f6613376565b5b6040519080825280601f01601f1916602001820160405280156127295781602001600182028036833780820191505090505b5091505f5b60408110156127a95783818151811061274a576127496133a3565b5b602001015160f81c60f81b838281518110612768576127676133a3565b5b60200101907effffffffffffffffffffffffffffffffffffffffffffffffffffffffffffff191690815f1a90535080806127a19061346b565b91505061272e565b505f604067ffffffffffffffff8111156127c6576127c5613376565b5b6040519080825280601f01601f1916602001820160405280156127f85781602001600182028036833780820191505090505b5090505f5b604081101561288457848160406128149190613cfe565b81518110612825576128246133a3565b5b602001015160f81c60f81b828281518110612843576128426133a3565b5b60200101907effffffffffffffffffffffffffffffffffffffffffffffffffffffffffffff191690815f1a905350808061287c9061346b565b9150506127fd565b505f6128908383612a0b565b90505f5b604081101561291b578181815181106128b0576128af6133a3565b5b602001015160f81c60f81b858260406128c99190613cfe565b815181106128da576128d96133a3565b5b60200101907effffffffffffffffffffffffffffffffffffffffffffffffffffffffffffff191690815f1a90535080806129139061346b565b915050612894565b50505050919050565b5f805f7f7fffffffffffffffffffffffffffffff5d576e7357a4501ddfe92f46681b20a0845f1c1115612960575f600385925092509250612a01565b5f6001888888886040515f81526020016040526040516129839493929190613f23565b6020604051602081039080840390855afa1580156129a3573d5f803e3d5ffd5b5050506020604051035190505f73ffffffffffffffffffffffffffffffffffffffff168173ffffffffffffffffffffffffffffffffffffffff16036129f4575f60015f801b93509350935050612a01565b805f805f1b935093509350505b9450945094915050565b606060408351148015612a1f575060408251145b612a5e576040517f08c379a0000000000000000000000000000000000000000000000000000000008152600401612a5590613fb0565b60405180910390fd5b604067ffffffffffffffff811115612a7957612a78613376565b5b6040519080825280601f01601f191660200182016040528015612aab5781602001600182028036833780820191505090505b5090505f80604090505b5f811115612bc2575f8285600184612acd91906135d5565b81518110612ade57612add6133a3565b5b602001015160f81c60f81b60f81c60ff1687600185612afd91906135d5565b81518110612b0e57612b0d6133a3565b5b602001015160f81c60f81b60f81c60ff16612b299190613fda565b612b339190613fda565b90505f8160010b1215612b595761010081612b4e9190614033565b905060019250612b5d565b5f92505b8060f81b84600184612b6f91906135d5565b81518110612b8057612b7f6133a3565b5b60200101907effffffffffffffffffffffffffffffffffffffffffffffffffffffffffffff191690815f1a905350508080612bba9061408c565b915050612ab5565b505092915050565b5f604051905090565b5f80fd5b5f80fd5b5f67ffffffffffffffff82169050919050565b612bf781612bdb565b8114612c01575f80fd5b50565b5f81359050612c1281612bee565b92915050565b5f60208284031215612c2d57612c2c612bd3565b5b5f612c3a84828501612c04565b91505092915050565b5f819050919050565b612c5581612c43565b82525050565b5f602082019050612c6e5f830184612c4c565b92915050565b5f819050919050565b612c8681612c74565b82525050565b5f602082019050612c9f5f830184612c7d565b92915050565b612cae81612c43565b8114612cb8575f80fd5b50565b5f81359050612cc981612ca5565b92915050565b5f80fd5b5f80fd5b5f80fd5b5f8083601f840112612cf057612cef612ccf565b5b8235905067ffffffffffffffff811115612d0d57612d0c612cd3565b5b602083019150836020820283011115612d2957612d28612cd7565b5b9250929050565b5f805f805f805f60c0888a031215612d4b57612d4a612bd3565b5b5f612d588a828b01612c04565b9750506020612d698a828b01612cbb565b9650506040612d7a8a828b01612cbb565b9550506060612d8b8a828b01612cbb565b9450506080612d9c8a828b01612c04565b93505060a088013567ffffffffffffffff811115612dbd57612dbc612bd7565b5b612dc98a828b01612cdb565b925092505092959891949750929550565b612de381612c74565b8114612ded575f80fd5b50565b5f81359050612dfe81612dda565b92915050565b5f60208284031215612e1957612e18612bd3565b5b5f612e2684828501612df0565b91505092915050565b5f73ffffffffffffffffffffffffffffffffffffffff82169050919050565b5f612e5882612e2f565b9050919050565b612e6881612e4e565b82525050565b5f602082019050612e815f830184612e5f565b92915050565b612e9081612e4e565b8114612e9a575f80fd5b50565b5f81359050612eab81612e87565b92915050565b5f60208284031215612ec657612ec5612bd3565b5b5f612ed384828501612e9d565b91505092915050565b5f8083601f840112612ef157612ef0612ccf565b5b8235905067ffffffffffffffff811115612f0e57612f0d612cd3565b5b602083019150836001820283011115612f2a57612f29612cd7565b5b9250929050565b5f805f805f60608688031215612f4a57612f49612bd3565b5b5f612f5788828901612c04565b955050602086013567ffffffffffffffff811115612f7857612f77612bd7565b5b612f8488828901612edc565b9450945050604086013567ffffffffffffffff811115612fa757612fa6612bd7565b5b612fb388828901612edc565b92509250509295509295909350565b5f8115159050919050565b612fd681612fc2565b8114612fe0575f80fd5b50565b5f81359050612ff181612fcd565b92915050565b5f6020828403121561300c5761300b612bd3565b5b5f61301984828501612fe3565b91505092915050565b61302b81612bdb565b82525050565b5f6020820190506130445f830184613022565b92915050565b5f80602083850312156130605761305f612bd3565b5b5f83013567ffffffffffffffff81111561307d5761307c612bd7565b5b61308985828601612edc565b92509250509250929050565b5f81519050919050565b5f82825260208201905092915050565b5f5b838110156130cc5780820151818401526020810190506130b1565b5f8484015250505050565b5f601f19601f8301169050919050565b5f6130f182613095565b6130fb818561309f565b935061310b8185602086016130af565b613114816130d7565b840191505092915050565b5f6020820190508181035f83015261313781846130e7565b905092915050565b5f805f805f805f60c0888a03121561315a57613159612bd3565b5b5f6131678a828b01612c04565b97505060206131788a828b01612cbb565b96505060406131898a828b01612cbb565b955050606061319a8a828b01612cbb565b94505060806131ab8a828b01612c04565b93505060a088013567ffffffffffffffff8111156131cc576131cb612bd7565b5b6131d88a828b01612edc565b925092505092959891949750929550565b6131f281612fc2565b82525050565b5f60208201905061320b5f8301846131e9565b92915050565b5f805f805f6060868803121561322a57613229612bd3565b5b5f61323788828901612c04565b955050602086013567ffffffffffffffff81111561325857613257612bd7565b5b61326488828901612edc565b9450945050604086013567ffffffffffffffff81111561328757613286612bd7565b5b61329388828901612cdb565b92509250509295509295909350565b5f819050919050565b6132bc6132b782612c43565b6132a2565b82525050565b5f8160c01b9050919050565b5f6132d8826132c2565b9050919050565b6132f06132eb82612bdb565b6132ce565b82525050565b5f613301828a6132ab565b60208201915061331182896132df565b60088201915061332182886132df565b60088201915061333182876132ab565b60208201915061334182866132ab565b60208201915061335182856132ab565b60208201915061336182846132df565b60088201915081905098975050505050505050565b7f4e487b71000000000000000000000000000000000000000000000000000000005f52604160045260245ffd5b7f4e487b71000000000000000000000000000000000000000000000000000000005f52603260045260245ffd5b5f80fd5b5f80fd5b5f80fd5b5f80833560016020038436030381126133f8576133f76133d0565b5b80840192508235915067ffffffffffffffff82111561341a576134196133d4565b5b602083019250600182023603831315613436576134356133d8565b5b509250929050565b7f4e487b71000000000000000000000000000000000000000000000000000000005f52601160045260245ffd5b5f61347582612c74565b91507fffffffffffffffffffffffffffffffffffffffffffffffffffffffffffffffff82036134a7576134a661343e565b5b600182019050919050565b5f82825260208201905092915050565b7f424c53206d6f646520657870656374732073696e676c652061676772656761745f8201527f6564207369676e61747572650000000000000000000000000000000000000000602082015250565b5f61351c602c836134b2565b9150613527826134c2565b604082019050919050565b5f6020820190508181035f83015261354981613510565b9050919050565b5f61355b82886132df565b60088201915061356b82876132ab565b60208201915061357b82866132ab565b60208201915061358b82856132ab565b60208201915061359b82846132df565b6008820191508190509695505050505050565b5f6040820190506135c15f830185612c4c565b6135ce6020830184612c4c565b9392505050565b5f6135df82612c74565b91506135ea83612c74565b92508282039050818111156136025761360161343e565b5b92915050565b7f4e487b71000000000000000000000000000000000000000000000000000000005f52603160045260245ffd5b7f45706f6368206d75737420696e637265617365000000000000000000000000005f82015250565b5f6136696013836134b2565b915061367482613635565b602082019050919050565b5f6020820190508181035f8301526136968161365d565b9050919050565b5f81905092915050565b828183375f83830152505050565b5f6136c0838561369d565b93506136cd8385846136a7565b82840190509392505050565b5f6136e482886132ab565b6020820191506136f482876132df565b60088201915061370482866132df565b6008820191506137158284866136b5565b91508190509695505050505050565b5f82905092915050565b7f4e487b71000000000000000000000000000000000000000000000000000000005f52602260045260245ffd5b5f600282049050600182168061377257607f821691505b6020821081036137855761378461372e565b5b50919050565b5f819050815f5260205f209050919050565b5f6020601f8301049050919050565b5f82821b905092915050565b5f600883026137e77fffffffffffffffffffffffffffffffffffffffffffffffffffffffffffffffff826137ac565b6137f186836137ac565b95508019841693508086168417925050509392505050565b5f819050919050565b5f61382c61382761382284612c74565b613809565b612c74565b9050919050565b5f819050919050565b61384583613812565b61385961385182613833565b8484546137b8565b825550505050565b5f90565b61386d613861565b61387881848461383c565b505050565b5b8181101561389b576138905f82613865565b60018101905061387e565b5050565b601f8211156138e0576138b18161378b565b6138ba8461379d565b810160208510156138c9578190505b6138dd6138d58561379d565b83018261387d565b50505b505050565b5f82821c905092915050565b5f6139005f19846008026138e5565b1980831691505092915050565b5f61391883836138f1565b9150826002028217905092915050565b6139328383613724565b67ffffffffffffffff81111561394b5761394a613376565b5b613955825461375b565b61396082828561389f565b5f601f83116001811461398d575f841561397b578287013590505b613985858261390d565b8655506139ec565b601f19841661399b8661378b565b5f5b828110156139c25784890135825560018201915060208501945060208101905061399d565b868310156139df57848901356139db601f8916826138f1565b8355505b6001600288020188555050505b50505050505050565b5f613a00838561309f565b9350613a0d8385846136a7565b613a16836130d7565b840190509392505050565b5f6020820190508181035f830152613a3a8184866139f5565b90509392505050565b613a4c826130d7565b810181811067ffffffffffffffff82111715613a6b57613a6a613376565b5b80604052505050565b5f613a7d612bca565b9050613a898282613a43565b919050565b5f67ffffffffffffffff821115613aa857613aa7613376565b5b602082029050602081019050919050565b5f80fd5b5f67ffffffffffffffff821115613ad757613ad6613376565b5b613ae0826130d7565b9050602081019050919050565b5f613aff613afa84613abd565b613a74565b905082815260208101848484011115613b1b57613b1a613ab9565b5b613b268482856136a7565b509392505050565b5f82601f830112613b4257613b41612ccf565b5b8135613b52848260208601613aed565b91505092915050565b5f613b6d613b6884613a8e565b613a74565b90508083825260208201905060208402830185811115613b9057613b8f612cd7565b5b835b81811015613bd757803567ffffffffffffffff811115613bb557613bb4612ccf565b5b808601613bc28982613b2e565b85526020850194505050602081019050613b92565b5050509392505050565b5f82601f830112613bf557613bf4612ccf565b5b8135613c05848260208601613b5b565b91505092915050565b5f60208284031215613c2357613c22612bd3565b5b5f82013567ffffffffffffffff811115613c4057613c3f612bd7565b5b613c4c84828501613be1565b91505092915050565b7f5369676e617475726573206e6f7420736f7274656400000000000000000000005f82015250565b5f613c896015836134b2565b9150613c9482613c55565b602082019050919050565b5f6020820190508181035f830152613cb681613c7d565b9050919050565b5f613cc782612c74565b9150613cd283612c74565b9250828202613ce081612c74565b91508282048414831517613cf757613cf661343e565b5b5092915050565b5f613d0882612c74565b9150613d1383612c74565b9250828201905080821115613d2b57613d2a61343e565b5b92915050565b7f4e487b71000000000000000000000000000000000000000000000000000000005f52601260045260245ffd5b5f613d6882612c74565b9150613d7383612c74565b925082613d8357613d82613d31565b5b828204905092915050565b5f613d9882613095565b613da2818561369d565b9350613db28185602086016130af565b80840191505092915050565b5f613dc98285613d8e565b9150613dd58284613d8e565b91508190509392505050565b5f613dec8284613d8e565b915081905092915050565b5f613e028287613d8e565b9150613e0e8286613d8e565b9150613e1a8285613d8e565b9150613e268284613d8e565b915081905095945050505050565b5f81519050613e4281612dda565b92915050565b5f60208284031215613e5d57613e5c612bd3565b5b5f613e6a84828501613e34565b91505092915050565b7f4e487b71000000000000000000000000000000000000000000000000000000005f52602160045260245ffd5b7f496e76616c696420473120706f696e74206c656e6774680000000000000000005f82015250565b5f613ed46017836134b2565b9150613edf82613ea0565b602082019050919050565b5f6020820190508181035f830152613f0181613ec8565b9050919050565b5f60ff82169050919050565b613f1d81613f08565b82525050565b5f608082019050613f365f830187612c4c565b613f436020830186613f14565b613f506040830185612c4c565b613f5d6060830184612c4c565b95945050505050565b7f496e76616c6964206f706572616e64206c656e677468000000000000000000005f82015250565b5f613f9a6016836134b2565b9150613fa582613f66565b602082019050919050565b5f6020820190508181035f830152613fc781613f8e565b9050919050565b5f8160010b9050919050565b5f613fe482613fce565b9150613fef83613fce565b92508282039050617fff81137fffffffffffffffffffffffffffffffffffffffffffffffffffffffffffff80008212171561402d5761402c61343e565b5b92915050565b5f61403d82613fce565b915061404883613fce565b925082820190507fffffffffffffffffffffffffffffffffffffffffffffffffffffffffffff80008112617fff821317156140865761408561343e565b5b92915050565b5f61409682612c74565b91505f82036140a8576140a761343e565b5b60018203905091905056fe00000000000000000000000000000000024aa2b2f08f0a91260805272dc51051c6e47ad4fa403b02b4510b647ae3d1770bac0326a805bbefd48056c8c121bdb80000000000000000000000000000000013e02b6052719f607dacd3a088274f65596bd0d09920b61ab5da61bbdc7f5049334cf11213945d57e5ac7d055d042b7e00000000000000000000000000000000ce5d527727d6e118cc9cdc6da2e351aadfd9baa8cbdd3a76d429a695160d12c923ac9cc3baca289e193548608b828010000000000000000000000000000000000606c4a02ea734cc32acd2b02bc28b99cb3e287e85a763af267492ab572e99ab3f370d275cec1da1aaa9075ff05f79be000000000000000000000000000000001a0111ea397fe69a4b1ba7b6434bacd764774b84f38512bf6730d2a0f6b0f6241eabfffeb153ffffb9feffffffffaaaba26469706673582212200395af9ece95eb9c542b811a948f064f4a6956e9e9fe77da370859c7b2b4f88d64736f6c63430008140033","linkReferences":{}},"methodIdentifiers":{"HEADER_DOMAIN()":"79732fbc","ROTATION_DOMAIN()":"9e39bbfd","acceptOwnership()":"79ba5097","addValidator(address)":"4d238c8e","blsPublicKey()":"79c4473a","currentEpoch()":"76671808","currentPublicKey()":"d0deef17","getReceiptsRoot(uint64)":"0c6038ed","headerHashes(uint64)":"cc54ebf7","isBLSAvailable()":"d49efac0","isHeaderFinalized(uint64)":"c83eacc2","isValidator(address)":"facd743b","latestFinalizedHeight()":"a09d3879","owner()":"8da5cb5b","pendingOwner()":"e30c3978","receiptsRoots(uint64)":"c06b35b0","removeValidator(address)":"40a141ff","renounceOwnership()":"715018a6","setBLSPublicKey(bytes)":"6bbe869d","setSignatureMode(bool)":"472efe38","submitBLSKeyRotation(uint64,bytes,bytes)":"44954b4a","submitHeader(uint64,bytes32,bytes32,bytes32,uint64,bytes)":"860af5e6","submitHeader(uint64,bytes32,bytes32,bytes32,uint64,bytes[])":"22504a85","submitKeyRotation(uint64,bytes,bytes[])":"e0226760","tempoChainId()":"548bed75","threshold()":"42cde4e8","transferOwnership(address)":"f2fde38b","useEcdsaMode()":"e539ed17","validatorCount()":"0f43a677","validators(uint256)":"35aa2e44"},"id":35}