{"abi":[{"type":"constructor","inputs":[{"name":"_lightClient","type":"address","internalType":"address"},{"name":"_tempoChainId","type":"uint64","internalType":"uint64"}],"stateMutability":"nonpayable"},{"type":"function","name":"BURN_EVENT_SIGNATURE","inputs":[],"outputs":[{"name":"","type":"bytes32","internalType":"bytes32"}],"stateMutability":"view"},{"type":"function","name":"TEMPO_BRIDGE","inputs":[],"outputs":[{"name":"","type":"address","internalType":"address"}],"stateMutability":"view"},{"type":"function","name":"acceptOwnership","inputs":[],"outputs":[],"stateMutability":"nonpayable"},{"type":"function","name":"addToken","inputs":[{"name":"token","type":"address","internalType":"address"}],"outputs":[],"stateMutability":"nonpayable"},{"type":"function","name":"deposit","inputs":[{"name":"token","type":"address","internalType":"address"},{"name":"amount","type":"uint256","internalType":"uint256"},{"name":"tempoRecipient","type":"address","internalType":"address"}],"outputs":[{"name":"depositId","type":"bytes32","internalType":"bytes32"}],"stateMutability":"nonpayable"},{"type":"function","name":"depositNonces","inputs":[{"name":"","type":"address","internalType":"address"}],"outputs":[{"name":"","type":"uint64","internalType":"uint64"}],"stateMutability":"view"},{"type":"function","name":"isBurnSpent","inputs":[{"name":"burnId","type":"bytes32","internalType":"bytes32"}],"outputs":[{"name":"","type":"bool","internalType":"bool"}],"stateMutability":"view"},{"type":"function","name":"isUnlocked","inputs":[{"name":"burnId","type":"bytes32","internalType":"bytes32"}],"outputs":[{"name":"","type":"bool","internalType":"bool"}],"stateMutability":"view"},{"type":"function","name":"lightClient","inputs":[],"outputs":[{"name":"","type":"address","internalType":"address"}],"stateMutability":"view"},{"type":"function","name":"owner","inputs":[],"outputs":[{"name":"","type":"address","internalType":"address"}],"stateMutability":"view"},{"type":"function","name":"pendingOwner","inputs":[],"outputs":[{"name":"","type":"address","internalType":"address"}],"stateMutability":"view"},{"type":"function","name":"removeToken","inputs":[{"name":"token","type":"address","internalType":"address"}],"outputs":[],"stateMutability":"nonpayable"},{"type":"function","name":"renounceOwnership","inputs":[],"outputs":[],"stateMutability":"nonpayable"},{"type":"function","name":"spentBurnIds","inputs":[{"name":"","type":"bytes32","internalType":"bytes32"}],"outputs":[{"name":"","type":"bool","internalType":"bool"}],"stateMutability":"view"},{"type":"function","name":"supportedTokens","inputs":[{"name":"","type":"address","internalType":"address"}],"outputs":[{"name":"","type":"bool","internalType":"bool"}],"stateMutability":"view"},{"type":"function","name":"tempoChainId","inputs":[],"outputs":[{"name":"","type":"uint64","internalType":"uint64"}],"stateMutability":"view"},{"type":"function","name":"transferOwnership","inputs":[{"name":"newOwner","type":"address","internalType":"address"}],"outputs":[],"stateMutability":"nonpayable"},{"type":"function","name":"unlock","inputs":[{"name":"tempoHeight","type":"uint64","internalType":"uint64"},{"name":"receiptRlp","type":"bytes","internalType":"bytes"},{"name":"receiptProof","type":"bytes[]","internalType":"bytes[]"},{"name":"logIndex","type":"uint256","internalType":"uint256"}],"outputs":[],"stateMutability":"nonpayable"},{"type":"function","name":"unlockWithProof","inputs":[{"name":"burnId","type":"bytes32","internalType":"bytes32"},{"name":"recipient","type":"address","internalType":"address"},{"name":"amount","type":"uint256","internalType":"uint256"},{"name":"proof","type":"bytes","internalType":"bytes"}],"outputs":[],"stateMutability":"nonpayable"},{"type":"event","name":"Deposited","inputs":[{"name":"depositId","type":"bytes32","indexed":true,"internalType":"bytes32"},{"name":"token","type":"address","indexed":true,"internalType":"address"},{"name":"depositor","type":"address","indexed":true,"internalType":"address"},{"name":"amount","type":"uint64","indexed":false,"internalType":"uint64"},{"name":"tempoRecipient","type":"address","indexed":false,"internalType":"address"},{"name":"nonce","type":"uint64","indexed":false,"internalType":"uint64"}],"anonymous":false},{"type":"event","name":"OwnershipTransferStarted","inputs":[{"name":"previousOwner","type":"address","indexed":true,"internalType":"address"},{"name":"newOwner","type":"address","indexed":true,"internalType":"address"}],"anonymous":false},{"type":"event","name":"OwnershipTransferred","inputs":[{"name":"previousOwner","type":"address","indexed":true,"internalType":"address"},{"name":"newOwner","type":"address","indexed":true,"internalType":"address"}],"anonymous":false},{"type":"event","name":"TokenAdded","inputs":[{"name":"token","type":"address","indexed":true,"internalType":"address"}],"anonymous":false},{"type":"event","name":"TokenRemoved","inputs":[{"name":"token","type":"address","indexed":true,"internalType":"address"}],"anonymous":false},{"type":"event","name":"Unlocked","inputs":[{"name":"burnId","type":"bytes32","indexed":true,"internalType":"bytes32"},{"name":"token","type":"address","indexed":true,"internalType":"address"},{"name":"recipient","type":"address","indexed":true,"internalType":"address"},{"name":"amount","type":"uint64","indexed":false,"internalType":"uint64"}],"anonymous":false},{"type":"error","name":"BurnAlreadySpent","inputs":[]},{"type":"error","name":"HeaderNotFinalized","inputs":[]},{"type":"error","name":"InvalidBurnEvent","inputs":[]},{"type":"error","name":"InvalidProofFormat","inputs":[]},{"type":"error","name":"InvalidReceiptProof","inputs":[]},{"type":"error","name":"InvalidRecipient","inputs":[]},{"type":"error","name":"OwnableInvalidOwner","inputs":[{"name":"owner","type":"address","internalType":"address"}]},{"type":"error","name":"OwnableUnauthorizedAccount","inputs":[{"name":"account","type":"address","internalType":"address"}]},{"type":"error","name":"RLPInvalidEncoding","inputs":[]},{"type":"error","name":"ReentrancyGuardReentrantCall","inputs":[]},{"type":"error","name":"SafeERC20FailedOperation","inputs":[{"name":"token","type":"address","internalType":"address"}]},{"type":"error","name":"TokenNotSupported","inputs":[]},{"type":"error","name":"ZeroAmount","inputs":[]}],"bytecode":{"object":"0x60c060405234801561000f575f5ffd5b5060405161422e38038061422e833981810160405281019061003191906102f1565b335f73ffffffffffffffffffffffffffffffffffffffff168173ffffffffffffffffffffffffffffffffffffffff16036100a2575f6040517f1e4fbdf7000000000000000000000000000000000000000000000000000000008152600401610099919061033e565b60405180910390fd5b6100b18161012d60201b60201c565b5060016100d06100c561016360201b60201c565b61018c60201b60201c565b5f01819055508173ffffffffffffffffffffffffffffffffffffffff1660808173ffffffffffffffffffffffffffffffffffffffff16815250508067ffffffffffffffff1660a08167ffffffffffffffff16815250505050610357565b60015f6101000a81549073ffffffffffffffffffffffffffffffffffffffff02191690556101608161019560201b60201c565b50565b5f7f9b779b17422d0df92223018b32b4d1fa46e071723d6817e2486d003becc55f005f1b905090565b5f819050919050565b5f5f5f9054906101000a900473ffffffffffffffffffffffffffffffffffffffff169050815f5f6101000a81548173ffffffffffffffffffffffffffffffffffffffff021916908373ffffffffffffffffffffffffffffffffffffffff1602179055508173ffffffffffffffffffffffffffffffffffffffff168173ffffffffffffffffffffffffffffffffffffffff167f8be0079c531659141344cd1fd0a4f28419497f9722a3daafe3b4186f6b6457e060405160405180910390a35050565b5f5ffd5b5f73ffffffffffffffffffffffffffffffffffffffff82169050919050565b5f6102838261025a565b9050919050565b61029381610279565b811461029d575f5ffd5b50565b5f815190506102ae8161028a565b92915050565b5f67ffffffffffffffff82169050919050565b6102d0816102b4565b81146102da575f5ffd5b50565b5f815190506102eb816102c7565b92915050565b5f5f6040838503121561030757610306610256565b5b5f610314858286016102a0565b9250506020610325858286016102dd565b9150509250929050565b61033881610279565b82525050565b5f6020820190506103515f83018461032f565b92915050565b60805160a051613ea86103865f395f61047e01525f818161065e01528181610b6701526110d50152613ea85ff3fe608060405234801561000f575f5ffd5b506004361061011e575f3560e01c80638da5cb5b116100ab578063e27945651161006f578063e2794565146102de578063e30c3978146102fc578063f2fde38b1461031a578063f45346dc14610336578063f961ade3146103665761011e565b80638da5cb5b1461023a57806393363dbf14610258578063b5700e6814610288578063baf9362e146102a6578063d48bfca7146102c25761011e565b80635fa7b584116100f25780635fa7b584146101bc57806361b42522146101d857806368c4ac26146101f6578063715018a61461022657806379ba5097146102305761011e565b8062398ad2146101225780630e6e55801461013e5780633dadc1e11461016e578063548bed751461019e575b5f5ffd5b61013c60048036038101906101379190612e3b565b610396565b005b61015860048036038101906101539190612ebf565b610430565b6040516101659190612f04565b60405180910390f35b61018860048036038101906101839190612ebf565b610456565b6040516101959190612f04565b60405180910390f35b6101a661047c565b6040516101b39190612f3f565b60405180910390f35b6101d660048036038101906101d19190612f58565b6104a0565b005b6101e0610542565b6040516101ed9190612f92565b60405180910390f35b610210600480360381019061020b9190612f58565b61055a565b60405161021d9190612f04565b60405180910390f35b61022e610577565b005b61023861058a565b005b610242610618565b60405161024f9190612f92565b60405180910390f35b610272600480360381019061026d9190612ebf565b61063f565b60405161027f9190612f04565b60405180910390f35b61029061065c565b60405161029d9190612f92565b60405180910390f35b6102c060048036038101906102bb919061302a565b610680565b005b6102dc60048036038101906102d79190612f58565b6106a6565b005b6102e6610749565b6040516102f391906130dc565b60405180910390f35b61030461076d565b6040516103119190612f92565b60405180910390f35b610334600480360381019061032f9190612f58565b610795565b005b610350600480360381019061034b91906130f5565b610841565b60405161035d91906130dc565b60405180910390f35b610380600480360381019061037b9190612f58565b610b1e565b60405161038d9190612f3f565b60405180910390f35b61039e610b42565b60045f8681526020019081526020015f205f9054906101000a900460ff16156103f3576040517fe8a4e57b00000000000000000000000000000000000000000000000000000000815260040160405180910390fd5b5f5f5f5f8585810190610406919061335b565b935093509350935061041d848484848d8d8d610b64565b50505050610429610ffa565b5050505050565b5f60045f8381526020019081526020015f205f9054906101000a900460ff169050919050565b5f60045f8381526020019081526020015f205f9054906101000a900460ff169050919050565b7f000000000000000000000000000000000000000000000000000000000000000081565b6104a8611014565b5f60025f8373ffffffffffffffffffffffffffffffffffffffff1673ffffffffffffffffffffffffffffffffffffffff1681526020019081526020015f205f6101000a81548160ff0219169083151502179055508073ffffffffffffffffffffffffffffffffffffffff167f4c910b69fe65a61f7531b9c5042b2329ca7179c77290aa7e2eb3afa3c8511fd360405160405180910390a250565b73bbbb00000000000000000000000000000000000081565b6002602052805f5260405f205f915054906101000a900460ff1681565b61057f611014565b6105885f61109b565b565b5f6105936110cb565b90508073ffffffffffffffffffffffffffffffffffffffff166105b461076d565b73ffffffffffffffffffffffffffffffffffffffff161461060c57806040517f118cdaa70000000000000000000000000000000000000000000000000000000081526004016106039190612f92565b60405180910390fd5b6106158161109b565b50565b5f5f5f9054906101000a900473ffffffffffffffffffffffffffffffffffffffff16905090565b6004602052805f5260405f205f915054906101000a900460ff1681565b7f000000000000000000000000000000000000000000000000000000000000000081565b610688610b42565b6106968686868686866110d2565b61069e610ffa565b505050505050565b6106ae611014565b600160025f8373ffffffffffffffffffffffffffffffffffffffff1673ffffffffffffffffffffffffffffffffffffffff1681526020019081526020015f205f6101000a81548160ff0219169083151502179055508073ffffffffffffffffffffffffffffffffffffffff167f784c8f4dbf0ffedd6e72c76501c545a70f8b203b30a26ce542bf92ba87c248a460405160405180910390a250565b7ff27b61be7b446c751507cb9dcad23ed2f31d18a014e04722d31c39e7696409df81565b5f60015f9054906101000a900473ffffffffffffffffffffffffffffffffffffffff16905090565b61079d611014565b8060015f6101000a81548173ffffffffffffffffffffffffffffffffffffffff021916908373ffffffffffffffffffffffffffffffffffffffff1602179055508073ffffffffffffffffffffffffffffffffffffffff166107fc610618565b73ffffffffffffffffffffffffffffffffffffffff167f38d16b8cac22d99fc7c124b9cd0de2d3fa1faef420bfe791d8c362d765e2270060405160405180910390a350565b5f61084a610b42565b60025f8573ffffffffffffffffffffffffffffffffffffffff1673ffffffffffffffffffffffffffffffffffffffff1681526020019081526020015f205f9054906101000a900460ff166108ca576040517f3dd1b30500000000000000000000000000000000000000000000000000000000815260040160405180910390fd5b5f8303610903576040517f1f2a200500000000000000000000000000000000000000000000000000000000815260040160405180910390fd5b5f73ffffffffffffffffffffffffffffffffffffffff168273ffffffffffffffffffffffffffffffffffffffff1603610968576040517f9c8d2cd200000000000000000000000000000000000000000000000000000000815260040160405180910390fd5b5f60035f3373ffffffffffffffffffffffffffffffffffffffff1673ffffffffffffffffffffffffffffffffffffffff1681526020019081526020015f205f81819054906101000a900467ffffffffffffffff16809291906109c990613424565b91906101000a81548167ffffffffffffffff021916908367ffffffffffffffff16021790555090505f6109fc868661148e565b90505f8167ffffffffffffffff1603610a41576040517f1f2a200500000000000000000000000000000000000000000000000000000000815260040160405180910390fd5b610a6e3330878973ffffffffffffffffffffffffffffffffffffffff16611516909392919063ffffffff16565b46308733848887604051602001610a8b97969594939291906134ec565b6040516020818303038152906040528051906020012092503373ffffffffffffffffffffffffffffffffffffffff168673ffffffffffffffffffffffffffffffffffffffff16847fb546702a9c7a51ec8b31f8d5d4d59c7ca63a7ae9379228cced4c0ad499d10a31848887604051610b059392919061356c565b60405180910390a45050610b17610ffa565b9392505050565b6003602052805f5260405f205f915054906101000a900467ffffffffffffffff1681565b610b4a61156b565b6002610b5c610b576115ac565b6115d5565b5f0181905550565b5f7f000000000000000000000000000000000000000000000000000000000000000090508073ffffffffffffffffffffffffffffffffffffffff1663c83eacc2896040518263ffffffff1660e01b8152600401610bc19190612f3f565b602060405180830381865afa158015610bdc573d5f5f3e3d5ffd5b505050506040513d601f19601f82011682018060405250810190610c0091906135cb565b610c36576040517fc448310800000000000000000000000000000000000000000000000000000000815260040160405180910390fd5b5f8173ffffffffffffffffffffffffffffffffffffffff16630c6038ed8a6040518263ffffffff1660e01b8152600401610c709190612f3f565b602060405180830381865afa158015610c8b573d5f5f3e3d5ffd5b505050506040513d601f19601f82011682018060405250810190610caf919061360a565b90505f88805190602001209050610cc781838a6115de565b610cfd576040517f7b374dd100000000000000000000000000000000000000000000000000000000815260040160405180910390fd5b5f5f5f5f5f610d0c8e8d6116bb565b945094509450945094508a8514610d4f576040517f93e68ed000000000000000000000000000000000000000000000000000000000815260040160405180910390fd5b8973ffffffffffffffffffffffffffffffffffffffff168273ffffffffffffffffffffffffffffffffffffffff1614610db4576040517f93e68ed000000000000000000000000000000000000000000000000000000000815260040160405180910390fd5b8867ffffffffffffffff168167ffffffffffffffff1614610e01576040517f93e68ed000000000000000000000000000000000000000000000000000000000815260040160405180910390fd5b4667ffffffffffffffff168467ffffffffffffffff1614610e4e576040517f93e68ed000000000000000000000000000000000000000000000000000000000815260040160405180910390fd5b60025f8473ffffffffffffffffffffffffffffffffffffffff1673ffffffffffffffffffffffffffffffffffffffff1681526020019081526020015f205f9054906101000a900460ff16610ece576040517f3dd1b30500000000000000000000000000000000000000000000000000000000815260040160405180910390fd5b60045f8681526020019081526020015f205f9054906101000a900460ff1615610f23576040517fe8a4e57b00000000000000000000000000000000000000000000000000000000815260040160405180910390fd5b600160045f8781526020019081526020015f205f6101000a81548160ff0219169083151502179055505f610f578483611aac565b9050610f8483828673ffffffffffffffffffffffffffffffffffffffff16611b529092919063ffffffff16565b8273ffffffffffffffffffffffffffffffffffffffff168473ffffffffffffffffffffffffffffffffffffffff16877dd1d5e5058f4a8ef648b12cb8f43ef9b03b3bf1683e292f34cbceee4ab85c85604051610fe09190612f3f565b60405180910390a450505050505050505050505050505050565b600161100c6110076115ac565b6115d5565b5f0181905550565b61101c6110cb565b73ffffffffffffffffffffffffffffffffffffffff1661103a610618565b73ffffffffffffffffffffffffffffffffffffffff16146110995761105d6110cb565b6040517f118cdaa70000000000000000000000000000000000000000000000000000000081526004016110909190612f92565b60405180910390fd5b565b60015f6101000a81549073ffffffffffffffffffffffffffffffffffffffff02191690556110c881611ba5565b50565b5f33905090565b5f7f000000000000000000000000000000000000000000000000000000000000000090508073ffffffffffffffffffffffffffffffffffffffff1663c83eacc2886040518263ffffffff1660e01b815260040161112f9190612f3f565b602060405180830381865afa15801561114a573d5f5f3e3d5ffd5b505050506040513d601f19601f8201168201806040525081019061116e91906135cb565b6111a4576040517fc448310800000000000000000000000000000000000000000000000000000000815260040160405180910390fd5b5f8173ffffffffffffffffffffffffffffffffffffffff16630c6038ed896040518263ffffffff1660e01b81526004016111de9190612f3f565b602060405180830381865afa1580156111f9573d5f5f3e3d5ffd5b505050506040513d601f19601f8201168201806040525081019061121d919061360a565b90505f8787604051611230929190613663565b6040518091039020905061124681838888611c66565b61127c576040517f7b374dd100000000000000000000000000000000000000000000000000000000815260040160405180910390fd5b5f5f5f5f5f61128c8d8d8b611daa565b945094509450945094504667ffffffffffffffff168467ffffffffffffffff16146112e3576040517f93e68ed000000000000000000000000000000000000000000000000000000000815260040160405180910390fd5b60025f8473ffffffffffffffffffffffffffffffffffffffff1673ffffffffffffffffffffffffffffffffffffffff1681526020019081526020015f205f9054906101000a900460ff16611363576040517f3dd1b30500000000000000000000000000000000000000000000000000000000815260040160405180910390fd5b60045f8681526020019081526020015f205f9054906101000a900460ff16156113b8576040517fe8a4e57b00000000000000000000000000000000000000000000000000000000815260040160405180910390fd5b600160045f8781526020019081526020015f205f6101000a81548160ff0219169083151502179055505f6113ec8483611aac565b905061141983828673ffffffffffffffffffffffffffffffffffffffff16611b529092919063ffffffff16565b8273ffffffffffffffffffffffffffffffffffffffff168473ffffffffffffffffffffffffffffffffffffffff16877dd1d5e5058f4a8ef648b12cb8f43ef9b03b3bf1683e292f34cbceee4ab85c856040516114759190612f3f565b60405180910390a4505050505050505050505050505050565b5f5f611499846121df565b905060068160ff1611156114d3576006816114b49190613687565b600a6114c091906137ea565b836114cb9190613861565b915050611510565b60068160ff16101561150b578060066114ec9190613687565b600a6114f891906137ea565b836115039190613891565b915050611510565b829150505b92915050565b61152484848484600161225f565b61156557836040517f5274afe700000000000000000000000000000000000000000000000000000000815260040161155c9190612f92565b60405180910390fd5b50505050565b6115736122d0565b156115aa576040517f3ee5aeb500000000000000000000000000000000000000000000000000000000815260040160405180910390fd5b565b5f7f9b779b17422d0df92223018b32b4d1fa46e071723d6817e2486d003becc55f005f1b905090565b5f819050919050565b5f5f8490505f5f90505b83518110156116ac575f848281518110611605576116046138d2565b5b602002602001015190506021815114611623575f93505050506116b4565b5f5f6020830151915060418301515f1a905060018160ff160361167057848260405160200161165392919061391f565b60405160208183030381529060405280519060200120945061169c565b818560405160200161168392919061391f565b6040516020818303038152906040528051906020012094505b50505080806001019150506115e8565b508381149150505b9392505050565b5f5f5f5f5f5f8790505f81511180156116f757506080815f815181106116e4576116e36138d2565b5b602001015160f81c60f81b60f81c60ff16105b1561170d576001810190506001601f8201510381525b5f611717826122ec565b905060048151101561175e576040517f08c379a0000000000000000000000000000000000000000000000000000000008152600401611755906139a4565b60405180910390fd5b5f61178382600381518110611776576117756138d2565b5b6020026020010151612306565b9050805189106117c8576040517f08c379a00000000000000000000000000000000000000000000000000000000081526004016117bf90613a0c565b60405180910390fd5b5f6117ec828b815181106117df576117de6138d2565b5b6020026020010151612306565b90506003815114611832576040517f08c379a000000000000000000000000000000000000000000000000000000000815260040161182990613a74565b60405180910390fd5b5f611856825f81518110611849576118486138d2565b5b6020026020010151612443565b905073bbbb00000000000000000000000000000000000073ffffffffffffffffffffffffffffffffffffffff168173ffffffffffffffffffffffffffffffffffffffff16146118da576040517f08c379a00000000000000000000000000000000000000000000000000000000081526004016118d190613adc565b60405180910390fd5b5f6118ff836001815181106118f2576118f16138d2565b5b6020026020010151612306565b90506003815114611945576040517f08c379a000000000000000000000000000000000000000000000000000000000815260040161193c90613b44565b60405180910390fd5b5f611969825f8151811061195c5761195b6138d2565b5b60200260200101516124a6565b90507ff27b61be7b446c751507cb9dcad23ed2f31d18a014e04722d31c39e7696409df81146119cd576040517f08c379a00000000000000000000000000000000000000000000000000000000081526004016119c490613bac565b60405180910390fd5b6119f1826001815181106119e4576119e36138d2565b5b60200260200101516124a6565b9b50611a1782600281518110611a0a57611a096138d2565b5b60200260200101516124b9565b9a505f611a3e85600281518110611a3157611a306138d2565b5b60200260200101516125ba565b905060a081511015611a85576040517f08c379a0000000000000000000000000000000000000000000000000000000008152600401611a7c90613c14565b60405180910390fd5b60208101519a50604081015199506060810151985050505050505050509295509295909350565b5f5f611ab7846121df565b905060068160ff161115611afb57600681611ad29190613687565b600a611ade91906137ea565b8367ffffffffffffffff16611af39190613891565b915050611b4c565b60068160ff161015611b3d57806006611b149190613687565b600a611b2091906137ea565b8367ffffffffffffffff16611b359190613861565b915050611b4c565b8267ffffffffffffffff169150505b92915050565b611b5f8383836001612652565b611ba057826040517f5274afe7000000000000000000000000000000000000000000000000000000008152600401611b979190612f92565b60405180910390fd5b505050565b5f5f5f9054906101000a900473ffffffffffffffffffffffffffffffffffffffff169050815f5f6101000a81548173ffffffffffffffffffffffffffffffffffffffff021916908373ffffffffffffffffffffffffffffffffffffffff1602179055508173ffffffffffffffffffffffffffffffffffffffff168173ffffffffffffffffffffffffffffffffffffffff167f8be0079c531659141344cd1fd0a4f28419497f9722a3daafe3b4186f6b6457e060405160405180910390a35050565b5f5f8590505f5f90505b84849050811015611d9a57365f868684818110611c9057611c8f6138d2565b5b9050602002810190611ca29190613c3e565b9150915060218282905014611cbd575f945050505050611da2565b5f82825f90602092611cd193929190613ca8565b90611cdc9190613cf8565b90505f600160f81b84846020818110611cf857611cf76138d2565b5b9050013560f81c60f81b7effffffffffffffffffffffffffffffffffffffffffffffffffffffffffffff19161490508015611d5d578582604051602001611d4092919061391f565b604051602081830303815290604052805190602001209550611d89565b8186604051602001611d7092919061391f565b6040516020818303038152906040528051906020012095505b505050508080600101915050611c70565b508481149150505b949350505050565b5f5f5f5f5f5f88888080601f0160208091040260200160405190810160405280939291908181526020018383808284375f81840152601f19601f8201169050808301925050505050505090505f8151118015611e2957506080815f81518110611e1657611e156138d2565b5b602001015160f81c60f81b60f81c60ff16105b15611e3f576001810190506001601f8201510381525b5f611e49826122ec565b9050600481511015611e90576040517f08c379a0000000000000000000000000000000000000000000000000000000008152600401611e87906139a4565b60405180910390fd5b5f611eb582600381518110611ea857611ea76138d2565b5b6020026020010151612306565b905080518910611efa576040517f08c379a0000000000000000000000000000000000000000000000000000000008152600401611ef190613a0c565b60405180910390fd5b5f611f1e828b81518110611f1157611f106138d2565b5b6020026020010151612306565b90506003815114611f64576040517f08c379a0000000000000000000000000000000000000000000000000000000008152600401611f5b90613a74565b60405180910390fd5b5f611f88825f81518110611f7b57611f7a6138d2565b5b6020026020010151612443565b905073bbbb00000000000000000000000000000000000073ffffffffffffffffffffffffffffffffffffffff168173ffffffffffffffffffffffffffffffffffffffff161461200c576040517f08c379a000000000000000000000000000000000000000000000000000000000815260040161200390613adc565b60405180910390fd5b5f61203183600181518110612024576120236138d2565b5b6020026020010151612306565b90506003815114612077576040517f08c379a000000000000000000000000000000000000000000000000000000000815260040161206e90613b44565b60405180910390fd5b5f61209b825f8151811061208e5761208d6138d2565b5b60200260200101516124a6565b90507ff27b61be7b446c751507cb9dcad23ed2f31d18a014e04722d31c39e7696409df81146120ff576040517f08c379a00000000000000000000000000000000000000000000000000000000081526004016120f690613bac565b60405180910390fd5b61212382600181518110612116576121156138d2565b5b60200260200101516124a6565b9b506121498260028151811061213c5761213b6138d2565b5b60200260200101516124b9565b9a505f61217085600281518110612163576121626138d2565b5b60200260200101516125ba565b905060a0815110156121b7576040517f08c379a00000000000000000000000000000000000000000000000000000000081526004016121ae90613c14565b60405180910390fd5b60208101519a5060408101519950606081015198505050505050505050939792965093509350565b5f8173ffffffffffffffffffffffffffffffffffffffff1663313ce5676040518163ffffffff1660e01b8152600401602060405180830381865afa92505050801561224857506040513d601f19601f820116820180604052508101906122459190613d80565b60015b612255576012905061225a565b809150505b919050565b5f5f6323b872dd60e01b9050604051815f525f1960601c87166004525f1960601c86166024528460445260205f60645f5f8c5af1925060015f511483166122bd5783831516156122b1573d5f823e3d81fd5b5f883b113d1516831692505b806040525f606052505095945050505050565b5f60026122e36122de6115ac565b6115d5565b5f015414905090565b60606122ff6122fa836126b4565b612306565b9050919050565b60605f612312836126c6565b90505f5f5f612320866126d2565b92509250925060018081111561233957612338613dab565b5b81600181111561234c5761234b613dab565b5b148015612363575081836123609190613dd8565b84145b612399576040517ff3dd700400000000000000000000000000000000000000000000000000000000815260040160405180910390fd5b5f60405195506020860190505f8490505b8581101561242a575f5f6123cf6123ca848c612b5390919063ffffffff16565b6126d2565b50915091505f6123f58484846123e59190613dd8565b8d612ba59092919063ffffffff16565b905081836124039190613dd8565b8461240e9190613dd8565b93508085525050506020826124239190613dd8565b91506123aa565b5060208087018203048652806040525050505050919050565b5f5f61244e836126c6565b9050600181148061245f5750601581145b612495576040517ff3dd700400000000000000000000000000000000000000000000000000000000815260040160405180910390fd5b61249e836124b9565b915050919050565b5f6124b0826124b9565b5f1b9050919050565b5f5f6124c4836126c6565b90506021811115612501576040517ff3dd700400000000000000000000000000000000000000000000000000000000815260040160405180910390fd5b5f5f5f61250d866126d2565b9250925092505f600181111561252657612525613dab565b5b81600181111561253957612538613dab565b5b14612570576040517ff3dd700400000000000000000000000000000000000000000000000000000000815260040160405180910390fd5b5f82146125ad578160086125849190613891565b6101006125919190613e0b565b6125a48488612bf090919063ffffffff16565b5f1c901c6125af565b5f5b945050505050919050565b60605f5f5f6125c8856126d2565b9250925092505f60018111156125e1576125e0613dab565b5b8160018111156125f4576125f3613dab565b5b1461262b576040517ff3dd700400000000000000000000000000000000000000000000000000000000815260040160405180910390fd5b612648612643848488612ba59092919063ffffffff16565b612c41565b9350505050919050565b5f5f63a9059cbb60e01b9050604051815f525f1960601c86166004528460245260205f60445f5f8b5af1925060015f511483166126a657838315161561269a573d5f823e3d81fd5b5f873b113d1516831692505b806040525050949350505050565b5f60208201825160801b179050919050565b5f8160801c9050919050565b5f5f5f5f6126df856126c6565b90505f810361271a576040517ff3dd700400000000000000000000000000000000000000000000000000000000815260040160405180910390fd5b5f61272e5f87612bf090919063ffffffff16565b60f81c905060c060ff168160ff16101561298e57608060ff168160ff161015612762575f60015f9450945094505050612b4c565b603760806127709190613e3e565b60ff168160ff161161284d575f60808261278a9190613687565b60ff169050808311801561280557506001811415806128045750608060f81b7effffffffffffffffffffffffffffffffffffffffffffffffffffffffffffff19166127df600189612bf090919063ffffffff16565b7effffffffffffffffffffffffffffffffffffffffffffffffffffffffffffff191610155b5b61283b576040517ff3dd700400000000000000000000000000000000000000000000000000000000815260040160405180910390fd5b6001815f955095509550505050612b4c565b5f603760808361285d9190613687565b6128679190613687565b60ff16905080831180156128b257505f60f81b61288d5f89612bf090919063ffffffff16565b7effffffffffffffffffffffffffffffffffffffffffffffffffffffffffffff191614155b6128e8576040517ff3dd700400000000000000000000000000000000000000000000000000000000815260040160405180910390fd5b5f8160086128f69190613891565b6101006129039190613e0b565b61291760018a612bf090919063ffffffff16565b5f1c901c9050603760ff168111801561293a575080826129379190613dd8565b84115b612970576040517ff3dd700400000000000000000000000000000000000000000000000000000000815260040160405180910390fd5b60018261297d9190613dd8565b815f96509650965050505050612b4c565b603760c061299c9190613e3e565b60ff168160ff1611612a0f575f60c0826129b69190613687565b60ff169050806129c5886126c6565b116129fc576040517ff3dd700400000000000000000000000000000000000000000000000000000000815260040160405180910390fd5b6001816001955095509550505050612b4c565b5f603760c083612a1f9190613687565b612a299190613687565b60ff169050808311612a67576040517ff3dd700400000000000000000000000000000000000000000000000000000000815260040160405180910390fd5b5f60f81b612a7e5f89612bf090919063ffffffff16565b7effffffffffffffffffffffffffffffffffffffffffffffffffffffffffffff191603612aa9575f5ffd5b5f816008612ab79190613891565b610100612ac49190613e0b565b612ad860018a612bf090919063ffffffff16565b5f1c901c9050603760ff1681118015612afb57508082612af89190613dd8565b84115b612b31576040517ff3dd700400000000000000000000000000000000000000000000000000000000815260040160405180910390fd5b600182612b3e9190613dd8565b816001965096509650505050505b9193909250565b5f612b5d836126c6565b821115612b6f57612b6e6032612c7a565b5b612b9d82612b7c856126c6565b612b869190613e0b565b612b98612b9286612c8b565b85612c9a565b612cb3565b905092915050565b5f612baf846126c6565b8284612bbb9190613dd8565b1115612bcc57612bcb6032612c7a565b5b612be782612be2612bdc87612c8b565b86612c9a565b612cb3565b90509392505050565b5f5f612c10836020612c029190613dd8565b612c0b866126c6565b612cc2565b9050601f811115612c2657612c256032612c7a565b5b5f19816008021b835f1960801c861601511691505092915050565b60605f612c4d836126c6565b90505f612c5984612c8b565b905060405192508183528181602085015e6020828401016040525050919050565b634e487b715f52806020526024601cfd5b5f5f1960801c82169050919050565b5f81835f1c612ca99190613dd8565b5f1b905092915050565b5f818360801b17905092915050565b5f5f612cce8484612cdb565b9150508091505092915050565b5f5f5f8385039050848111159250612cf283612cfe565b81029150509250929050565b5f8115159050919050565b5f604051905090565b5f5ffd5b5f5ffd5b5f819050919050565b612d2c81612d1a565b8114612d36575f5ffd5b50565b5f81359050612d4781612d23565b92915050565b5f73ffffffffffffffffffffffffffffffffffffffff82169050919050565b5f612d7682612d4d565b9050919050565b612d8681612d6c565b8114612d90575f5ffd5b50565b5f81359050612da181612d7d565b92915050565b5f819050919050565b612db981612da7565b8114612dc3575f5ffd5b50565b5f81359050612dd481612db0565b92915050565b5f5ffd5b5f5ffd5b5f5ffd5b5f5f83601f840112612dfb57612dfa612dda565b5b8235905067ffffffffffffffff811115612e1857612e17612dde565b5b602083019150836001820283011115612e3457612e33612de2565b5b9250929050565b5f5f5f5f5f60808688031215612e5457612e53612d12565b5b5f612e6188828901612d39565b9550506020612e7288828901612d93565b9450506040612e8388828901612dc6565b935050606086013567ffffffffffffffff811115612ea457612ea3612d16565b5b612eb088828901612de6565b92509250509295509295909350565b5f60208284031215612ed457612ed3612d12565b5b5f612ee184828501612d39565b91505092915050565b5f8115159050919050565b612efe81612eea565b82525050565b5f602082019050612f175f830184612ef5565b92915050565b5f67ffffffffffffffff82169050919050565b612f3981612f1d565b82525050565b5f602082019050612f525f830184612f30565b92915050565b5f60208284031215612f6d57612f6c612d12565b5b5f612f7a84828501612d93565b91505092915050565b612f8c81612d6c565b82525050565b5f602082019050612fa55f830184612f83565b92915050565b612fb481612f1d565b8114612fbe575f5ffd5b50565b5f81359050612fcf81612fab565b92915050565b5f5f83601f840112612fea57612fe9612dda565b5b8235905067ffffffffffffffff81111561300757613006612dde565b5b60208301915083602082028301111561302357613022612de2565b5b9250929050565b5f5f5f5f5f5f6080878903121561304457613043612d12565b5b5f61305189828a01612fc1565b965050602087013567ffffffffffffffff81111561307257613071612d16565b5b61307e89828a01612de6565b9550955050604087013567ffffffffffffffff8111156130a1576130a0612d16565b5b6130ad89828a01612fd5565b935093505060606130c089828a01612dc6565b9150509295509295509295565b6130d681612d1a565b82525050565b5f6020820190506130ef5f8301846130cd565b92915050565b5f5f5f6060848603121561310c5761310b612d12565b5b5f61311986828701612d93565b935050602061312a86828701612dc6565b925050604061313b86828701612d93565b9150509250925092565b5f5ffd5b5f601f19601f8301169050919050565b7f4e487b71000000000000000000000000000000000000000000000000000000005f52604160045260245ffd5b61318f82613149565b810181811067ffffffffffffffff821117156131ae576131ad613159565b5b80604052505050565b5f6131c0612d09565b90506131cc8282613186565b919050565b5f67ffffffffffffffff8211156131eb576131ea613159565b5b6131f482613149565b9050602081019050919050565b828183375f83830152505050565b5f61322161321c846131d1565b6131b7565b90508281526020810184848401111561323d5761323c613145565b5b613248848285613201565b509392505050565b5f82601f83011261326457613263612dda565b5b813561327484826020860161320f565b91505092915050565b5f67ffffffffffffffff82111561329757613296613159565b5b602082029050602081019050919050565b5f6132ba6132b58461327d565b6131b7565b905080838252602082019050602084028301858111156132dd576132dc612de2565b5b835b8181101561332457803567ffffffffffffffff81111561330257613301612dda565b5b80860161330f8982613250565b855260208501945050506020810190506132df565b5050509392505050565b5f82601f83011261334257613341612dda565b5b81356133528482602086016132a8565b91505092915050565b5f5f5f5f6080858703121561337357613372612d12565b5b5f61338087828801612fc1565b945050602085013567ffffffffffffffff8111156133a1576133a0612d16565b5b6133ad87828801613250565b935050604085013567ffffffffffffffff8111156133ce576133cd612d16565b5b6133da8782880161332e565b92505060606133eb87828801612dc6565b91505092959194509250565b7f4e487b71000000000000000000000000000000000000000000000000000000005f52601160045260245ffd5b5f61342e82612f1d565b915067ffffffffffffffff8203613448576134476133f7565b5b600182019050919050565b5f819050919050565b61346d61346882612da7565b613453565b82525050565b5f8160601b9050919050565b5f61348982613473565b9050919050565b5f61349a8261347f565b9050919050565b6134b26134ad82612d6c565b613490565b82525050565b5f8160c01b9050919050565b5f6134ce826134b8565b9050919050565b6134e66134e182612f1d565b6134c4565b82525050565b5f6134f7828a61345c565b60208201915061350782896134a1565b60148201915061351782886134a1565b60148201915061352782876134a1565b60148201915061353782866134d5565b60088201915061354782856134a1565b60148201915061355782846134d5565b60088201915081905098975050505050505050565b5f60608201905061357f5f830186612f30565b61358c6020830185612f83565b6135996040830184612f30565b949350505050565b6135aa81612eea565b81146135b4575f5ffd5b50565b5f815190506135c5816135a1565b92915050565b5f602082840312156135e0576135df612d12565b5b5f6135ed848285016135b7565b91505092915050565b5f8151905061360481612d23565b92915050565b5f6020828403121561361f5761361e612d12565b5b5f61362c848285016135f6565b91505092915050565b5f81905092915050565b5f61364a8385613635565b9350613657838584613201565b82840190509392505050565b5f61366f82848661363f565b91508190509392505050565b5f60ff82169050919050565b5f6136918261367b565b915061369c8361367b565b9250828203905060ff8111156136b5576136b46133f7565b5b92915050565b5f8160011c9050919050565b5f5f8291508390505b6001851115613710578086048111156136ec576136eb6133f7565b5b60018516156136fb5780820291505b8081029050613709856136bb565b94506136d0565b94509492505050565b5f8261372857600190506137e3565b81613735575f90506137e3565b816001811461374b576002811461375557613784565b60019150506137e3565b60ff841115613767576137666133f7565b5b8360020a91508482111561377e5761377d6133f7565b5b506137e3565b5060208310610133831016604e8410600b84101617156137b95782820a9050838111156137b4576137b36133f7565b5b6137e3565b6137c684848460016136c7565b925090508184048111156137dd576137dc6133f7565b5b81810290505b9392505050565b5f6137f482612da7565b91506137ff8361367b565b925061382c7fffffffffffffffffffffffffffffffffffffffffffffffffffffffffffffffff8484613719565b905092915050565b7f4e487b71000000000000000000000000000000000000000000000000000000005f52601260045260245ffd5b5f61386b82612da7565b915061387683612da7565b92508261388657613885613834565b5b828204905092915050565b5f61389b82612da7565b91506138a683612da7565b92508282026138b481612da7565b915082820484148315176138cb576138ca6133f7565b5b5092915050565b7f4e487b71000000000000000000000000000000000000000000000000000000005f52603260045260245ffd5b5f819050919050565b61391961391482612d1a565b6138ff565b82525050565b5f61392a8285613908565b60208201915061393a8284613908565b6020820191508190509392505050565b5f82825260208201905092915050565b7f496e76616c6964207265636569707400000000000000000000000000000000005f82015250565b5f61398e600f8361394a565b91506139998261395a565b602082019050919050565b5f6020820190508181035f8301526139bb81613982565b9050919050565b7f4c6f6720696e646578206f7574206f6620626f756e64730000000000000000005f82015250565b5f6139f660178361394a565b9150613a01826139c2565b602082019050919050565b5f6020820190508181035f830152613a23816139ea565b9050919050565b7f496e76616c6964206c6f670000000000000000000000000000000000000000005f82015250565b5f613a5e600b8361394a565b9150613a6982613a2a565b602082019050919050565b5f6020820190508181035f830152613a8b81613a52565b9050919050565b7f496e76616c696420656d697474657200000000000000000000000000000000005f82015250565b5f613ac6600f8361394a565b9150613ad182613a92565b602082019050919050565b5f6020820190508181035f830152613af381613aba565b9050919050565b7f496e76616c696420746f7069637320636f756e740000000000000000000000005f82015250565b5f613b2e60148361394a565b9150613b3982613afa565b602082019050919050565b5f6020820190508181035f830152613b5b81613b22565b9050919050565b7f496e76616c6964206576656e74207369676e61747572650000000000000000005f82015250565b5f613b9660178361394a565b9150613ba182613b62565b602082019050919050565b5f6020820190508181035f830152613bc381613b8a565b9050919050565b7f496e76616c6964206c6f672064617461206c656e6774680000000000000000005f82015250565b5f613bfe60178361394a565b9150613c0982613bca565b602082019050919050565b5f6020820190508181035f830152613c2b81613bf2565b9050919050565b5f5ffd5b5f5ffd5b5f5ffd5b5f5f83356001602003843603038112613c5a57613c59613c32565b5b80840192508235915067ffffffffffffffff821115613c7c57613c7b613c36565b5b602083019250600182023603831315613c9857613c97613c3a565b5b509250929050565b5f5ffd5b5f5ffd5b5f5f85851115613cbb57613cba613ca0565b5b83861115613ccc57613ccb613ca4565b5b6001850283019150848603905094509492505050565b5f82905092915050565b5f82821b905092915050565b5f613d038383613ce2565b82613d0e8135612d1a565b92506020821015613d4e57613d497fffffffffffffffffffffffffffffffffffffffffffffffffffffffffffffffff83602003600802613cec565b831692505b505092915050565b613d5f8161367b565b8114613d69575f5ffd5b50565b5f81519050613d7a81613d56565b92915050565b5f60208284031215613d9557613d94612d12565b5b5f613da284828501613d6c565b91505092915050565b7f4e487b71000000000000000000000000000000000000000000000000000000005f52602160045260245ffd5b5f613de282612da7565b9150613ded83612da7565b9250828201905080821115613e0557613e046133f7565b5b92915050565b5f613e1582612da7565b9150613e2083612da7565b9250828203905081811115613e3857613e376133f7565b5b92915050565b5f613e488261367b565b9150613e538361367b565b9250828201905060ff811115613e6c57613e6b6133f7565b5b9291505056fea264697066735822122075c280832975b0b70a256553ac696262d4c7aad4e003c7564f40c95407d5c71e64736f6c634300081c0033","linkReferences":{}},"methodIdentifiers":{"BURN_EVENT_SIGNATURE()":"e2794565","TEMPO_BRIDGE()":"61b42522","acceptOwnership()":"79ba5097","addToken(address)":"d48bfca7","deposit(address,uint256,address)":"f45346dc","depositNonces(address)":"f961ade3","isBurnSpent(bytes32)":"0e6e5580","isUnlocked(bytes32)":"3dadc1e1","lightClient()":"b5700e68","owner()":"8da5cb5b","pendingOwner()":"e30c3978","removeToken(address)":"5fa7b584","renounceOwnership()":"715018a6","spentBurnIds(bytes32)":"93363dbf","supportedTokens(address)":"68c4ac26","tempoChainId()":"548bed75","transferOwnership(address)":"f2fde38b","unlock(uint64,bytes,bytes[],uint256)":"baf9362e","unlockWithProof(bytes32,address,uint256,bytes)":"00398ad2"},"id":41}