{"abi":[{"type":"constructor","inputs":[{"name":"_lightClient","type":"address","internalType":"address"},{"name":"_tempoChainId","type":"uint64","internalType":"uint64"}],"stateMutability":"nonpayable"},{"type":"function","name":"BURN_EVENT_SIGNATURE","inputs":[],"outputs":[{"name":"","type":"bytes32","internalType":"bytes32"}],"stateMutability":"view"},{"type":"function","name":"TEMPO_BRIDGE","inputs":[],"outputs":[{"name":"","type":"address","internalType":"address"}],"stateMutability":"view"},{"type":"function","name":"acceptOwnership","inputs":[],"outputs":[],"stateMutability":"nonpayable"},{"type":"function","name":"addToken","inputs":[{"name":"token","type":"address","internalType":"address"}],"outputs":[],"stateMutability":"nonpayable"},{"type":"function","name":"deposit","inputs":[{"name":"token","type":"address","internalType":"address"},{"name":"amount","type":"uint256","internalType":"uint256"},{"name":"tempoRecipient","type":"address","internalType":"address"}],"outputs":[{"name":"depositId","type":"bytes32","internalType":"bytes32"}],"stateMutability":"nonpayable"},{"type":"function","name":"depositNonces","inputs":[{"name":"","type":"address","internalType":"address"}],"outputs":[{"name":"","type":"uint64","internalType":"uint64"}],"stateMutability":"view"},{"type":"function","name":"isBurnSpent","inputs":[{"name":"burnId","type":"bytes32","internalType":"bytes32"}],"outputs":[{"name":"","type":"bool","internalType":"bool"}],"stateMutability":"view"},{"type":"function","name":"lightClient","inputs":[],"outputs":[{"name":"","type":"address","internalType":"address"}],"stateMutability":"view"},{"type":"function","name":"owner","inputs":[],"outputs":[{"name":"","type":"address","internalType":"address"}],"stateMutability":"view"},{"type":"function","name":"pendingOwner","inputs":[],"outputs":[{"name":"","type":"address","internalType":"address"}],"stateMutability":"view"},{"type":"function","name":"removeToken","inputs":[{"name":"token","type":"address","internalType":"address"}],"outputs":[],"stateMutability":"nonpayable"},{"type":"function","name":"renounceOwnership","inputs":[],"outputs":[],"stateMutability":"nonpayable"},{"type":"function","name":"spentBurnIds","inputs":[{"name":"","type":"bytes32","internalType":"bytes32"}],"outputs":[{"name":"","type":"bool","internalType":"bool"}],"stateMutability":"view"},{"type":"function","name":"supportedTokens","inputs":[{"name":"","type":"address","internalType":"address"}],"outputs":[{"name":"","type":"bool","internalType":"bool"}],"stateMutability":"view"},{"type":"function","name":"tempoChainId","inputs":[],"outputs":[{"name":"","type":"uint64","internalType":"uint64"}],"stateMutability":"view"},{"type":"function","name":"transferOwnership","inputs":[{"name":"newOwner","type":"address","internalType":"address"}],"outputs":[],"stateMutability":"nonpayable"},{"type":"function","name":"unlock","inputs":[{"name":"tempoHeight","type":"uint64","internalType":"uint64"},{"name":"receiptRlp","type":"bytes","internalType":"bytes"},{"name":"receiptProof","type":"bytes[]","internalType":"bytes[]"},{"name":"logIndex","type":"uint256","internalType":"uint256"}],"outputs":[],"stateMutability":"nonpayable"},{"type":"event","name":"Deposited","inputs":[{"name":"depositId","type":"bytes32","indexed":true,"internalType":"bytes32"},{"name":"token","type":"address","indexed":true,"internalType":"address"},{"name":"depositor","type":"address","indexed":true,"internalType":"address"},{"name":"amount","type":"uint64","indexed":false,"internalType":"uint64"},{"name":"tempoRecipient","type":"address","indexed":false,"internalType":"address"},{"name":"nonce","type":"uint64","indexed":false,"internalType":"uint64"}],"anonymous":false},{"type":"event","name":"OwnershipTransferStarted","inputs":[{"name":"previousOwner","type":"address","indexed":true,"internalType":"address"},{"name":"newOwner","type":"address","indexed":true,"internalType":"address"}],"anonymous":false},{"type":"event","name":"OwnershipTransferred","inputs":[{"name":"previousOwner","type":"address","indexed":true,"internalType":"address"},{"name":"newOwner","type":"address","indexed":true,"internalType":"address"}],"anonymous":false},{"type":"event","name":"TokenAdded","inputs":[{"name":"token","type":"address","indexed":true,"internalType":"address"}],"anonymous":false},{"type":"event","name":"TokenRemoved","inputs":[{"name":"token","type":"address","indexed":true,"internalType":"address"}],"anonymous":false},{"type":"event","name":"Unlocked","inputs":[{"name":"burnId","type":"bytes32","indexed":true,"internalType":"bytes32"},{"name":"token","type":"address","indexed":true,"internalType":"address"},{"name":"recipient","type":"address","indexed":true,"internalType":"address"},{"name":"amount","type":"uint64","indexed":false,"internalType":"uint64"}],"anonymous":false},{"type":"error","name":"BurnAlreadySpent","inputs":[]},{"type":"error","name":"HeaderNotFinalized","inputs":[]},{"type":"error","name":"InvalidBurnEvent","inputs":[]},{"type":"error","name":"InvalidReceiptProof","inputs":[]},{"type":"error","name":"InvalidRecipient","inputs":[]},{"type":"error","name":"OwnableInvalidOwner","inputs":[{"name":"owner","type":"address","internalType":"address"}]},{"type":"error","name":"OwnableUnauthorizedAccount","inputs":[{"name":"account","type":"address","internalType":"address"}]},{"type":"error","name":"ReentrancyGuardReentrantCall","inputs":[]},{"type":"error","name":"SafeERC20FailedOperation","inputs":[{"name":"token","type":"address","internalType":"address"}]},{"type":"error","name":"TokenNotSupported","inputs":[]},{"type":"error","name":"ZeroAmount","inputs":[]}],"bytecode":{"object":"0x60c060405234801562000010575f80fd5b50604051620021a9380380620021a983398181016040528101906200003691906200030e565b335f73ffffffffffffffffffffffffffffffffffffffff168173ffffffffffffffffffffffffffffffffffffffff1603620000aa575f6040517f1e4fbdf7000000000000000000000000000000000000000000000000000000008152600401620000a1919062000364565b60405180910390fd5b620000bb816200013c60201b60201c565b506001620000de620000d26200017460201b60201c565b6200019d60201b60201c565b5f01819055508173ffffffffffffffffffffffffffffffffffffffff1660808173ffffffffffffffffffffffffffffffffffffffff16815250508067ffffffffffffffff1660a08167ffffffffffffffff168152505050506200037f565b60015f6101000a81549073ffffffffffffffffffffffffffffffffffffffff02191690556200017181620001a660201b60201c565b50565b5f7f9b779b17422d0df92223018b32b4d1fa46e071723d6817e2486d003becc55f005f1b905090565b5f819050919050565b5f805f9054906101000a900473ffffffffffffffffffffffffffffffffffffffff169050815f806101000a81548173ffffffffffffffffffffffffffffffffffffffff021916908373ffffffffffffffffffffffffffffffffffffffff1602179055508173ffffffffffffffffffffffffffffffffffffffff168173ffffffffffffffffffffffffffffffffffffffff167f8be0079c531659141344cd1fd0a4f28419497f9722a3daafe3b4186f6b6457e060405160405180910390a35050565b5f80fd5b5f73ffffffffffffffffffffffffffffffffffffffff82169050919050565b5f62000296826200026b565b9050919050565b620002a8816200028a565b8114620002b3575f80fd5b50565b5f81519050620002c6816200029d565b92915050565b5f67ffffffffffffffff82169050919050565b620002ea81620002cc565b8114620002f5575f80fd5b50565b5f815190506200030881620002df565b92915050565b5f806040838503121562000327576200032662000267565b5b5f6200033685828601620002b6565b92505060206200034985828601620002f8565b9150509250929050565b6200035e816200028a565b82525050565b5f602082019050620003795f83018462000353565b92915050565b60805160a051611e01620003a85f395f61035d01525f818161053d015261056a0152611e015ff3fe608060405234801561000f575f80fd5b5060043610610109575f3560e01c806393363dbf116100a0578063e27945651161006f578063e27945651461027d578063e30c39781461029b578063f2fde38b146102b9578063f45346dc146102d5578063f961ade31461030557610109565b806393363dbf146101f7578063b5700e6814610227578063baf9362e14610245578063d48bfca71461026157610109565b806368c4ac26116100dc57806368c4ac2614610195578063715018a6146101c557806379ba5097146101cf5780638da5cb5b146101d957610109565b80630e6e55801461010d578063548bed751461013d5780635fa7b5841461015b57806361b4252214610177575b5f80fd5b61012760048036038101906101229190611376565b610335565b60405161013491906113bb565b60405180910390f35b61014561035b565b60405161015291906113f6565b60405180910390f35b61017560048036038101906101709190611469565b61037f565b005b61017f610421565b60405161018c91906114a3565b60405180910390f35b6101af60048036038101906101aa9190611469565b610439565b6040516101bc91906113bb565b60405180910390f35b6101cd610456565b005b6101d7610469565b005b6101e16104f7565b6040516101ee91906114a3565b60405180910390f35b610211600480360381019061020c9190611376565b61051e565b60405161021e91906113bb565b60405180910390f35b61022f61053b565b60405161023c91906114a3565b60405180910390f35b61025f600480360381019061025a91906115cf565b61055f565b005b61027b60048036038101906102769190611469565b6108ab565b005b61028561094e565b6040516102929190611681565b60405180910390f35b6102a3610972565b6040516102b091906114a3565b60405180910390f35b6102d360048036038101906102ce9190611469565b61099a565b005b6102ef60048036038101906102ea919061169a565b610a46565b6040516102fc9190611681565b60405180910390f35b61031f600480360381019061031a9190611469565b610ce0565b60405161032c91906113f6565b60405180910390f35b5f60045f8381526020019081526020015f205f9054906101000a900460ff169050919050565b7f000000000000000000000000000000000000000000000000000000000000000081565b610387610d04565b5f60025f8373ffffffffffffffffffffffffffffffffffffffff1673ffffffffffffffffffffffffffffffffffffffff1681526020019081526020015f205f6101000a81548160ff0219169083151502179055508073ffffffffffffffffffffffffffffffffffffffff167f4c910b69fe65a61f7531b9c5042b2329ca7179c77290aa7e2eb3afa3c8511fd360405160405180910390a250565b73bbbb00000000000000000000000000000000000081565b6002602052805f5260405f205f915054906101000a900460ff1681565b61045e610d04565b6104675f610d8b565b565b5f610472610dbb565b90508073ffffffffffffffffffffffffffffffffffffffff16610493610972565b73ffffffffffffffffffffffffffffffffffffffff16146104eb57806040517f118cdaa70000000000000000000000000000000000000000000000000000000081526004016104e291906114a3565b60405180910390fd5b6104f481610d8b565b50565b5f805f9054906101000a900473ffffffffffffffffffffffffffffffffffffffff16905090565b6004602052805f5260405f205f915054906101000a900460ff1681565b7f000000000000000000000000000000000000000000000000000000000000000081565b610567610dc2565b5f7f000000000000000000000000000000000000000000000000000000000000000090508073ffffffffffffffffffffffffffffffffffffffff1663c83eacc2886040518263ffffffff1660e01b81526004016105c491906113f6565b602060405180830381865afa1580156105df573d5f803e3d5ffd5b505050506040513d601f19601f820116820180604052508101906106039190611714565b610639576040517fc448310800000000000000000000000000000000000000000000000000000000815260040160405180910390fd5b5f8173ffffffffffffffffffffffffffffffffffffffff16630c6038ed896040518263ffffffff1660e01b815260040161067391906113f6565b602060405180830381865afa15801561068e573d5f803e3d5ffd5b505050506040513d601f19601f820116820180604052508101906106b29190611753565b90505f87876040516106c59291906117ba565b604051809103902090506106db81838888610de4565b610711576040517f7b374dd100000000000000000000000000000000000000000000000000000000815260040160405180910390fd5b5f805f805f6107218d8d8b610e68565b945094509450945094504667ffffffffffffffff168467ffffffffffffffff1614610778576040517f93e68ed000000000000000000000000000000000000000000000000000000000815260040160405180910390fd5b60045f8681526020019081526020015f205f9054906101000a900460ff16156107cd576040517fe8a4e57b00000000000000000000000000000000000000000000000000000000815260040160405180910390fd5b600160045f8781526020019081526020015f205f6101000a81548160ff0219169083151502179055505f6108018483610ea8565b905061082e83828673ffffffffffffffffffffffffffffffffffffffff16610f4e9092919063ffffffff16565b8273ffffffffffffffffffffffffffffffffffffffff168473ffffffffffffffffffffffffffffffffffffffff16877dd1d5e5058f4a8ef648b12cb8f43ef9b03b3bf1683e292f34cbceee4ab85c8560405161088a91906113f6565b60405180910390a45050505050505050506108a3610fa1565b505050505050565b6108b3610d04565b600160025f8373ffffffffffffffffffffffffffffffffffffffff1673ffffffffffffffffffffffffffffffffffffffff1681526020019081526020015f205f6101000a81548160ff0219169083151502179055508073ffffffffffffffffffffffffffffffffffffffff167f784c8f4dbf0ffedd6e72c76501c545a70f8b203b30a26ce542bf92ba87c248a460405160405180910390a250565b7ff27b61be7b446c751507cb9dcad23ed2f31d18a014e04722d31c39e7696409df81565b5f60015f9054906101000a900473ffffffffffffffffffffffffffffffffffffffff16905090565b6109a2610d04565b8060015f6101000a81548173ffffffffffffffffffffffffffffffffffffffff021916908373ffffffffffffffffffffffffffffffffffffffff1602179055508073ffffffffffffffffffffffffffffffffffffffff16610a016104f7565b73ffffffffffffffffffffffffffffffffffffffff167f38d16b8cac22d99fc7c124b9cd0de2d3fa1faef420bfe791d8c362d765e2270060405160405180910390a350565b5f610a4f610dc2565b60025f8573ffffffffffffffffffffffffffffffffffffffff1673ffffffffffffffffffffffffffffffffffffffff1681526020019081526020015f205f9054906101000a900460ff16610acf576040517f3dd1b30500000000000000000000000000000000000000000000000000000000815260040160405180910390fd5b5f8303610b08576040517f1f2a200500000000000000000000000000000000000000000000000000000000815260040160405180910390fd5b5f73ffffffffffffffffffffffffffffffffffffffff168273ffffffffffffffffffffffffffffffffffffffff1603610b6d576040517f9c8d2cd200000000000000000000000000000000000000000000000000000000815260040160405180910390fd5b5f60035f3373ffffffffffffffffffffffffffffffffffffffff1673ffffffffffffffffffffffffffffffffffffffff1681526020019081526020015f205f81819054906101000a900467ffffffffffffffff1680929190610bce906117ff565b91906101000a81548167ffffffffffffffff021916908367ffffffffffffffff16021790555090505f610c018686610fbb565b9050610c303330878973ffffffffffffffffffffffffffffffffffffffff16611043909392919063ffffffff16565b46308733848887604051602001610c4d97969594939291906118c7565b6040516020818303038152906040528051906020012092503373ffffffffffffffffffffffffffffffffffffffff168673ffffffffffffffffffffffffffffffffffffffff16847fb546702a9c7a51ec8b31f8d5d4d59c7ca63a7ae9379228cced4c0ad499d10a31848887604051610cc793929190611947565b60405180910390a45050610cd9610fa1565b9392505050565b6003602052805f5260405f205f915054906101000a900467ffffffffffffffff1681565b610d0c610dbb565b73ffffffffffffffffffffffffffffffffffffffff16610d2a6104f7565b73ffffffffffffffffffffffffffffffffffffffff1614610d8957610d4d610dbb565b6040517f118cdaa7000000000000000000000000000000000000000000000000000000008152600401610d8091906114a3565b60405180910390fd5b565b60015f6101000a81549073ffffffffffffffffffffffffffffffffffffffff0219169055610db881611098565b50565b5f33905090565b610dca611159565b6002610ddc610dd761119a565b6111c3565b5f0181905550565b5f808590505f5b84849050811015610e595781858583818110610e0a57610e0961197c565b5b9050602002810190610e1c91906119b5565b604051602001610e2e93929190611a37565b6040516020818303038152906040528051906020012091508080610e5190611a60565b915050610deb565b50848114915050949350505050565b5f805f805f6040517f08c379a0000000000000000000000000000000000000000000000000000000008152600401610e9f90611b01565b60405180910390fd5b5f80610eb3846111cc565b905060068160ff161115610ef757600681610ece9190611b2b565b600a610eda9190611c8e565b8367ffffffffffffffff16610eef9190611cd8565b915050610f48565b60068160ff161015610f3957806006610f109190611b2b565b600a610f1c9190611c8e565b8367ffffffffffffffff16610f319190611d46565b915050610f48565b8267ffffffffffffffff169150505b92915050565b610f5b838383600161124c565b610f9c57826040517f5274afe7000000000000000000000000000000000000000000000000000000008152600401610f9391906114a3565b60405180910390fd5b505050565b6001610fb3610fae61119a565b6111c3565b5f0181905550565b5f80610fc6846111cc565b905060068160ff16111561100057600681610fe19190611b2b565b600a610fed9190611c8e565b83610ff89190611d46565b91505061103d565b60068160ff161015611038578060066110199190611b2b565b600a6110259190611c8e565b836110309190611cd8565b91505061103d565b829150505b92915050565b6110518484848460016112ae565b61109257836040517f5274afe700000000000000000000000000000000000000000000000000000000815260040161108991906114a3565b60405180910390fd5b50505050565b5f805f9054906101000a900473ffffffffffffffffffffffffffffffffffffffff169050815f806101000a81548173ffffffffffffffffffffffffffffffffffffffff021916908373ffffffffffffffffffffffffffffffffffffffff1602179055508173ffffffffffffffffffffffffffffffffffffffff168173ffffffffffffffffffffffffffffffffffffffff167f8be0079c531659141344cd1fd0a4f28419497f9722a3daafe3b4186f6b6457e060405160405180910390a35050565b61116161131f565b15611198576040517f3ee5aeb500000000000000000000000000000000000000000000000000000000815260040160405180910390fd5b565b5f7f9b779b17422d0df92223018b32b4d1fa46e071723d6817e2486d003becc55f005f1b905090565b5f819050919050565b5f8173ffffffffffffffffffffffffffffffffffffffff1663313ce5676040518163ffffffff1660e01b8152600401602060405180830381865afa92505050801561123557506040513d601f19601f820116820180604052508101906112329190611da0565b60015b6112425760129050611247565b809150505b919050565b5f8063a9059cbb60e01b9050604051815f525f1960601c86166004528460245260205f60445f808b5af1925060015f511483166112a0578383151615611294573d5f823e3d81fd5b5f873b113d1516831692505b806040525050949350505050565b5f806323b872dd60e01b9050604051815f525f1960601c87166004525f1960601c86166024528460445260205f60645f808c5af1925060015f5114831661130c578383151615611300573d5f823e3d81fd5b5f883b113d1516831692505b806040525f606052505095945050505050565b5f600261133261132d61119a565b6111c3565b5f015414905090565b5f80fd5b5f80fd5b5f819050919050565b61135581611343565b811461135f575f80fd5b50565b5f813590506113708161134c565b92915050565b5f6020828403121561138b5761138a61133b565b5b5f61139884828501611362565b91505092915050565b5f8115159050919050565b6113b5816113a1565b82525050565b5f6020820190506113ce5f8301846113ac565b92915050565b5f67ffffffffffffffff82169050919050565b6113f0816113d4565b82525050565b5f6020820190506114095f8301846113e7565b92915050565b5f73ffffffffffffffffffffffffffffffffffffffff82169050919050565b5f6114388261140f565b9050919050565b6114488161142e565b8114611452575f80fd5b50565b5f813590506114638161143f565b92915050565b5f6020828403121561147e5761147d61133b565b5b5f61148b84828501611455565b91505092915050565b61149d8161142e565b82525050565b5f6020820190506114b65f830184611494565b92915050565b6114c5816113d4565b81146114cf575f80fd5b50565b5f813590506114e0816114bc565b92915050565b5f80fd5b5f80fd5b5f80fd5b5f8083601f840112611507576115066114e6565b5b8235905067ffffffffffffffff811115611524576115236114ea565b5b6020830191508360018202830111156115405761153f6114ee565b5b9250929050565b5f8083601f84011261155c5761155b6114e6565b5b8235905067ffffffffffffffff811115611579576115786114ea565b5b602083019150836020820283011115611595576115946114ee565b5b9250929050565b5f819050919050565b6115ae8161159c565b81146115b8575f80fd5b50565b5f813590506115c9816115a5565b92915050565b5f805f805f80608087890312156115e9576115e861133b565b5b5f6115f689828a016114d2565b965050602087013567ffffffffffffffff8111156116175761161661133f565b5b61162389828a016114f2565b9550955050604087013567ffffffffffffffff8111156116465761164561133f565b5b61165289828a01611547565b9350935050606061166589828a016115bb565b9150509295509295509295565b61167b81611343565b82525050565b5f6020820190506116945f830184611672565b92915050565b5f805f606084860312156116b1576116b061133b565b5b5f6116be86828701611455565b93505060206116cf868287016115bb565b92505060406116e086828701611455565b9150509250925092565b6116f3816113a1565b81146116fd575f80fd5b50565b5f8151905061170e816116ea565b92915050565b5f602082840312156117295761172861133b565b5b5f61173684828501611700565b91505092915050565b5f8151905061174d8161134c565b92915050565b5f602082840312156117685761176761133b565b5b5f6117758482850161173f565b91505092915050565b5f81905092915050565b828183375f83830152505050565b5f6117a1838561177e565b93506117ae838584611788565b82840190509392505050565b5f6117c6828486611796565b91508190509392505050565b7f4e487b71000000000000000000000000000000000000000000000000000000005f52601160045260245ffd5b5f611809826113d4565b915067ffffffffffffffff8203611823576118226117d2565b5b600182019050919050565b5f819050919050565b6118486118438261159c565b61182e565b82525050565b5f8160601b9050919050565b5f6118648261184e565b9050919050565b5f6118758261185a565b9050919050565b61188d6118888261142e565b61186b565b82525050565b5f8160c01b9050919050565b5f6118a982611893565b9050919050565b6118c16118bc826113d4565b61189f565b82525050565b5f6118d2828a611837565b6020820191506118e2828961187c565b6014820191506118f2828861187c565b601482019150611902828761187c565b60148201915061191282866118b0565b600882019150611922828561187c565b60148201915061193282846118b0565b60088201915081905098975050505050505050565b5f60608201905061195a5f8301866113e7565b6119676020830185611494565b61197460408301846113e7565b949350505050565b7f4e487b71000000000000000000000000000000000000000000000000000000005f52603260045260245ffd5b5f80fd5b5f80fd5b5f80fd5b5f80833560016020038436030381126119d1576119d06119a9565b5b80840192508235915067ffffffffffffffff8211156119f3576119f26119ad565b5b602083019250600182023603831315611a0f57611a0e6119b1565b5b509250929050565b5f819050919050565b611a31611a2c82611343565b611a17565b82525050565b5f611a428286611a20565b602082019150611a53828486611796565b9150819050949350505050565b5f611a6a8261159c565b91507fffffffffffffffffffffffffffffffffffffffffffffffffffffffffffffffff8203611a9c57611a9b6117d2565b5b600182019050919050565b5f82825260208201905092915050565b7f4e6f7420696d706c656d656e746564202d207573652074657374206d6f636b005f82015250565b5f611aeb601f83611aa7565b9150611af682611ab7565b602082019050919050565b5f6020820190508181035f830152611b1881611adf565b9050919050565b5f60ff82169050919050565b5f611b3582611b1f565b9150611b4083611b1f565b9250828203905060ff811115611b5957611b586117d2565b5b92915050565b5f8160011c9050919050565b5f808291508390505b6001851115611bb457808604811115611b9057611b8f6117d2565b5b6001851615611b9f5780820291505b8081029050611bad85611b5f565b9450611b74565b94509492505050565b5f82611bcc5760019050611c87565b81611bd9575f9050611c87565b8160018114611bef5760028114611bf957611c28565b6001915050611c87565b60ff841115611c0b57611c0a6117d2565b5b8360020a915084821115611c2257611c216117d2565b5b50611c87565b5060208310610133831016604e8410600b8410161715611c5d5782820a905083811115611c5857611c576117d2565b5b611c87565b611c6a8484846001611b6b565b92509050818404811115611c8157611c806117d2565b5b81810290505b9392505050565b5f611c988261159c565b9150611ca383611b1f565b9250611cd07fffffffffffffffffffffffffffffffffffffffffffffffffffffffffffffffff8484611bbd565b905092915050565b5f611ce28261159c565b9150611ced8361159c565b9250828202611cfb8161159c565b91508282048414831517611d1257611d116117d2565b5b5092915050565b7f4e487b71000000000000000000000000000000000000000000000000000000005f52601260045260245ffd5b5f611d508261159c565b9150611d5b8361159c565b925082611d6b57611d6a611d19565b5b828204905092915050565b611d7f81611b1f565b8114611d89575f80fd5b50565b5f81519050611d9a81611d76565b92915050565b5f60208284031215611db557611db461133b565b5b5f611dc284828501611d8c565b9150509291505056fea264697066735822122020927f7dfebc8e8edea265aa197f75fdec23efe099470a0e3bbd5ec8c32f08a664736f6c63430008140033","linkReferences":{}},"methodIdentifiers":{"BURN_EVENT_SIGNATURE()":"e2794565","TEMPO_BRIDGE()":"61b42522","acceptOwnership()":"79ba5097","addToken(address)":"d48bfca7","deposit(address,uint256,address)":"f45346dc","depositNonces(address)":"f961ade3","isBurnSpent(bytes32)":"0e6e5580","lightClient()":"b5700e68","owner()":"8da5cb5b","pendingOwner()":"e30c3978","removeToken(address)":"5fa7b584","renounceOwnership()":"715018a6","spentBurnIds(bytes32)":"93363dbf","supportedTokens(address)":"68c4ac26","tempoChainId()":"548bed75","transferOwnership(address)":"f2fde38b","unlock(uint64,bytes,bytes[],uint256)":"baf9362e"},"id":31}